:020000040C00EE
:100000000088FE1F010200089902000899020008FA
:1000100099020008990200089902000800000000F7
:10002000000000000000000000000000990200082D
:1000300099020008000000009902000899020008D7
:100040009902000899020008990200089902000824
:100050009902000899020008990200089902000814
:1000600099020008000000000000000000000000ED
:100070009902000800000000990200089902000897
:1000800099020008990200089902000899020008E4
:1000900099020008990200089902000899020008D4
:1000A00099020008990200089902000899020008C4
:1000B00099020008990200089902000899020008B4
:1000C00099020008990200089902000899020008A4
:1000D0009902000899020008990200089902000894
:1000E0009902000899020008990200089902000884
:1000F0009902000899020008990200089902000874
:100100009902000899020008990200089902000863
:100110009902000899020008990200089902000853
:100120009902000899020008990200089902000843
:100130009902000899020008990200089902000833
:100140009902000899020008990200089902000823
:100150009902000899020008990200089902000813
:10016000000000000000000000000000000000008F
:1001700099020008FD110008990200089902000880
:1001800099020008990200089902000899020008E3
:1001900099020008990200089902000899020008D3
:1001A00099020008990200089902000899020008C3
:1001B00099020008990200089902000899020008B3
:1001C00099020008990200089902000899020008A3
:1001D0009902000899020008990200080000000036
:1001E0009902000899020008990200089902000883
:1001F00099020008000000009902000800000000B9
:10020000DFF874D01D4880471D4C1E4DAC4209DA02
:1002100021686268A368043BA2BFC858D050FAE7BF
:100220000C34F3E7184B194CA34208DA19685A68E2
:100230000020043AA4BF8850FBE70833F4E71448D1
:1002400080471448804700004C13000C0088FE1FB4
:10025000740100004C13000C0088FE1F0000000019
:100260007489FE1F1800000000000020000000003C
:1002700000000020000000000088FE1F2503000889
:1002800048020008600200086002000878020008C6
:100290005112000801110008FEE700001D4BDB6849
:1002A000D90310B525D51C4BDA6812F0010F1C4696
:1002B00002D100F0DFFE00E018482268164B52071A
:1002C00010D59A6899689B68C2F30362C3F3064429
:1002D000531C04FB0333B0FBF3F0C1F3062303FB11
:1002E000000007E09B6803F07F030133B0FBF3F0ED
:1002F00000E00A48074AD368DBB20133B0FBF3F0F1
:10030000136903F001030133B0FBF3F0044B1860F1
:1003100010BD00BF004600501047005000366E016F
:10032000C0FF032038B5094A094D4FF00054234659
:1003300003CBAB42106051601C4602F10802F6D1BB
:1003400000F058FE00F09AFE38BD00BFC4FF032045
:100350001000002001F0FC030344F0B501F0030499
:100360001E69E400F825A54026EA05051D61466FD3
:100370004F000325BD4026EA05054567144DA842F8
:1003800003D005F58075A84207D1056E012606FA4F
:1003900001F125EA0101016614E055688D404560D0
:1003A000CD0800EB850001F00701066C89000725E8
:1003B0008D4026EA05050564167A056C06FA01F1FA
:1003C0002943016412781969A2400A431A61F0BDF9
:1003D000008E024810B50446FFF760FF064B074841
:1003E0001B68B3FBF0F303FB04F00023834202D04D
:1003F00000BF0133FAE710BDC0FF032040420F00E9
:10040000020F0C235343024A20F07040985070476B
:1004100014440050034B044A5B69106803F0010365
:10042000D840704700460050C0FF0320034AD368FD
:1004300023F480331843D060704700BF004600505B
:10044000034A936923F4803318439061704700BFD7
:1004500000460050034A536A23F440331843506265
:10046000704700BF00460050064AD36820B923F405
:10047000807323F0010303E043F4807343F001032E
:10048000D360704710470050054BD3F8C4301B07AA
:10049000FAD4044AD36823F040031843D06070476D
:1004A0000040005000430050054BD3F8C4301B07F8
:1004B000FAD4044AD36823F080031843D06070470D
:1004C0000040005000430050034AD368013823F035
:1004D000FF030343D360704700460050034A136A8A
:1004E000013823F0010303431362704700460050B4
:1004F000034A1369013823F0010303431361704772
:1005000000460050034A5369013823F001030343B6
:100510005361704700460050034A9369013823F045
:10052000070303439361704700460050034AD369B1
:10053000013823F03F030343D36170470046005066
:10054000034A536A013823F0FF03034353627047A1
:1005500000460050020F0C235343024A20F0704023
:1005600098507047484600500F4B5A6942F00102BC
:100570005A615A6901380139000642F0100240EA16
:1005800001215A6159615A6942F040025A615A691F
:1005900022F010025A615A6942F480225A611A69A3
:1005A0005207FCD5704700BF1047005010B50B4CE8
:1005B0006368012843F4801363600AD1636823F4FD
:1005C000801363606420FFF705FF636843F4002332
:1005D00063606420BDE81040FFF7FCBE1047005088
:1005E0000A4B1A68D20704D5094B1A68900506D43D
:1005F000704701225A601A68D107FCD5F4E74FF41E
:1006000000729A601A689205FCD47047004200504C
:1006100000440050034B186880F00800C0F3C0008D
:10062000704700BF004300500E4BD3F8C42012F0B7
:10063000800F1A46F8D103F54073D96921F03001D3
:10064000D961D2F8C4100907FBD4DA6842F0080275
:10065000DA60044BD3F8C4305B07FAD4024B0822AB
:100660009A607047004000500043005070B50C4D38
:100670000C4E6B6823F480336B60746800F0FAFCF6
:10068000094BB0FBF3F024F47023013823F030035E
:1006900043EA004373606B6823F400336B6070BD02
:1006A0001047005000470050A0252600044B186852
:1006B00000F46070A0F5607358425841704700BF65
:1006C00010470050034A536823F4803323F0020399
:1006D0005360704710470050034A536843F4803317
:1006E00043F002035360704710470050054A936877
:1006F000013823F4FE0343EA004393603220FFF7FE
:1007000069BE00BF104700502DE9F0410C46054678
:1007100090461F46069EFFF7A7FE012C314C52D192
:1007200035B900F0A7FC304DB0FBF5F0800501E0D5
:100730004FF0C060636843F001036360636843F097
:1007400010036360A168294B08F1FF320B4043EAB4
:1007500002637A1E43EA022278431823B0FBF8F5BD
:10076000B5FBF3F39B0D013B42EA0343A3606368CF
:1007700043F040036360636823F0100363606368C1
:1007800043F4802363602368164A5907FBD55368F6
:1007900023F0010353602368DA07FCD43C20B5FB47
:1007A000F0F0800D864201D2FFF7A0FF5A20B5FB82
:1007B000F0F0800D864201D2FFF798FF3046BDE889
:1007C000F041FFF793BFA368013E23F07F031E4370
:1007D000A660636843F0010363602368DB07FCD510
:1007E000BDE8F0811047005040420F00FF8080F0CC
:1007F00037B504460020FFF719FEFFF7F1FEE37955
:10080000A3B9607AFFF750FE207AFFF7CFFE207C75
:10081000FFF75AFE607CFFF76BFEA07CFFF75EFEE1
:10082000E07CFFF76FFEA3796BB106E0FFF7FCFEFB
:10083000FFF7F0FE0028FBD0E3E7FFF717FFFFF715
:1008400035FF0028FBD0E37813B9FFF745FF09E037
:10085000FFF738FFA578A088E178627823780095C3
:10086000FFF752FFE068B0F5803F01D1FFF7DEFDF2
:1008700003B0BDE83040FFF711BD0B682DE9F04330
:100880004FF00A0808FB03F8D1F804E0002342F215
:1008900010791E4601270A22B8FBF7F4B4FBFEFCD0
:1008A000BCFBF2F502FB15CCBCF1050F944601D957
:1008B000013500E025B10CFB05F2B4FBF2F202E0D9
:1008C0000125B4FBF2F272452CBFCEEB0202C2EB63
:1008D0000E02142D07D8914505D9B2F57A7F06D3BB
:1008E00091462B463E460137412FD4D101E02B469D
:1008F0003E460F8942F2107E0124402542F21072DA
:1009000005FB0222B2FBF3F2BA4205D3D21B964595
:1009100007D996462C4604E0BA1A964588BF2C465D
:1009200002E0013D022DE9D1026842F0400202607E
:100930004A89013A013E9201611E06F03F06D2B299
:100940000902324301F4706111439A1E131B1B0309
:1009500003F4E0430B430361036823F040030360A7
:10096000BDE8F083D0F8C43113F4407FFAD112040B
:1009700042F00202013142EA0161C0F8C41170473D
:1009800010B504460648FFF7E5FD0548FFF738FDBA
:10099000236823F00103236023689B07FCD410BD68
:1009A00010000010D0F8C83103F00F03012B03D062
:1009B000022B03D100F05EBBFFF72CBD0020704777
:1009C00070B5044615460E46FFF7DAFFD4F8C83175
:1009D00023F00F0346EA0301C4F8C8112046FFF7CD
:1009E000E1FFB0FBF5F1C1F58061002938BF0021BE
:1009F00040F2FF36B1424FEA951328BF31468209D3
:100A00009B02B3FBF2F3B34228BF33465A43920A28
:100A1000C1F58066B0FBF6F0281AA5EB8215E268F6
:100A200022F4434222F0FF02E260A842E26896BF4D
:100A30000B4602210121134343EA8133E36070BD79
:100A4000037E012B14D103682022DA610368017B45
:100A50001A68090601F0706122F070620A431A6098
:100A600002691A6142695A61024ADA6100207047DC
:100A700003207047400028000268916802F1384363
:100A800021F47F4110B5A3F5A83391609168DB0094
:100A900023F0FF030B439360037E012B044625D80C
:100AA0002023D361C379426813F0200F08BF02F0FE
:100AB0006041036803BF41EA82429A6181689A619A
:100AC00006BF01F0604242EA81428268DA60027E3B
:100AD000012A05D1FFF7B4FF23684FF0006201E05F
:100AE0004FF40062DA612368014ADA6110BD00BF89
:100AF0004000A0060368D969DA69890606D5D205DF
:100B000006D44FF0E062DA6100207047042070479D
:100B1000022070470368DA69DB6912054ED4590771
:100B20004ED403680822DA610368C2799969C1F377
:100B30004071D9B961F34512C2719A694168C2F333
:100B40008A4262F31C014160D968C27AC1F34071E4
:100B500061F34512C272D96812F0200F826818BF83
:100B6000C1F38A4161F31C02826013E042F020026B
:100B7000C2719969426861F31C024260D968826857
:100B800061F31C028260DA68C17AC2F3407262F3D8
:100B90004511C1721A68C2F3036202731A690261D5
:100BA0005A694261DA69DB695207C3F3C00301D5B0
:100BB000002BB6D1002303761846704703207047F8
:100BC0000220704782B00268019113689DF80410FA
:100BD00023F00F0343F002031360536803F07F43D5
:100BE0000B439DF8051043EA01239DF8061043EAE4
:100BF0000143536002B0704782B0036801911A68E4
:100C00009DF8061022F00F0242F003021A605A68A3
:100C100022F47F0242EA01425A60024ADA6102B0DB
:100C2000704700BF0004000282B002AB03E9060077
:100C30009DF8033001681B0203F480729DF80530B3
:100C40009B0203F4806313439DF80420520202F4D4
:100C5000007243F0040313439DF80620D20202F40D
:100C6000006213430B609DF801209DF8003043EAB9
:100C700002239DF8022043EA02434B6002B0704712
:100C8000436F490010B503248C4023EA04034367F3
:100C9000436F8A401343436710BD70478369184709
:100CA000F8B5A24C206800F089F90546002840F00C
:100CB0003981E36958689968FFF7DFFDE269536895
:100CC000196841F040011960196841F0010119608B
:100CD000996921F4F810D168096801439961D968CC
:100CE00041F48071D960996821F00700917C01433B
:100CF00099609968D07C21F0700141EA00119960F7
:100D00009968107D21F4E06141EA002199609968B9
:100D1000507D21F4E04242EA00329A601A6822F0E3
:100D200040021A601A6822F001021A60236A5868A9
:100D30009968FFF7A2FD226A5368196841F04001E3
:100D40001960196841F001011960996921F4F810DE
:100D5000D168096801439961D96841F48071D9600B
:100D6000996821F00700917C014399609968D07CD3
:100D700021F0700141EA001199609968107D21F419
:100D8000E06141EA002199609968507D21F4E042D8
:100D900042EA00329A601A6822F040021A601A6829
:100DA00022F001021A60636A58689968FFF765FDCE
:100DB000626A5368196841F040011960196841F08E
:100DC00001011960996921F4F810D168096801439B
:100DD0009961D96841F48071D960996821F0070060
:100DE000917C014399609968D07C21F0700141EABF
:100DF000001199609968107D21F4E06141EA0021B9
:100E000099609968507D21F4E04242EA00329A608C
:100E10001A68216822F040021A601A68486822F0B5
:100E200001021A606368E269517C9A7BFFF79AFDC0
:100E30002168226AA3684868517C9A7BFFF792FD7B
:100E40002168226AE3684868517C9A7BFFF78AFD33
:100E50002168626A23694868517C9A7BFFF782FDAA
:100E60002168626A63694868517C9A7BFFF77AFD62
:100E7000261D04F1180733681868FFF7FDFD56F8C2
:100E8000041B0B681A68936823F007000B7C03436C
:100E900093609368C97B23F0700343EA0113BE4259
:100EA0009360E8D16068816800680B794A7943EA09
:100EB00002228B79096842EA034222F07F42FFF75F
:100EC000B3FEA068426800685178137843EA0123B2
:100ED000917843EA0141FFF775FEA1680B68496804
:100EE0001A680978536823F07F4343EA0163882630
:100EF0005360D661E068426800685178137843EA2D
:100F00000123917843EA0141FFF776FEE3681B680D
:100F10001B68DE6163691B681A68136843F48033D9
:100F2000136000E001252846F8BD00BF2C89FE1F94
:100F30001F4BF0B5D968057842788778C1F3022154
:100F4000C1F1070EBEF1060F28BF4FF0060E01B12A
:100F50000139012404FA01F3013B04FA0EF403EA17
:100F60000706631E13408B406AB2002A43EA060359
:100F70004FEA8303AFBF02F1604205F00F050D4A4F
:100F8000DBB2A5BF02F56142DBB2535582F80033F4
:100F9000C37853B1037801215AB203F01F0301FA59
:100FA00003F35209044941F822300020F0BD00BF8C
:100FB00000ED00E014ED00E000E100E0437A10B540
:100FC000044633B94068217A2268FFF7F9FC01230F
:100FD0006372002010BD10B50446221D217C0068FC
:100FE000FFF7B8F92068217C627CFFF749FE0020FA
:100FF00010BD0000194B1A4AD96821F4E0610904B8
:10100000090C0A43DA6072B6164A9A60BFF34F8F32
:1010100062B6D3F88820144842F4700241F21401F9
:10102000C3F88820425822F00F0242F004024250D6
:101030005A6922F010025A615A6922F008025A6174
:101040005A6A22F480325A625A6A22F400325A6290
:101050005A6A22F480225A62704700BF00ED00E015
:101060000001FA0500000008001000580123037079
:101070000020704700487047001BB70030B5114D85
:101080000FCD87B001AC0FC42B68236001A8FFF718
:10109000AFFB0020FFF7F8F90020FFF7D1F904209B
:1010A000FFF73AFA20210120FFF75EFA0020FFF750
:1010B000D1F90120FFF744FA0120FFF737FA07B012
:1010C00030BD00BF3813000808B50948FFF7CEFF50
:1010D00060B90848FFF7E2FD40B90748FFF77BFF1A
:1010E00020B90648BDE80840FFF722BF08BD00BF91
:1010F0007489FE1F2C89FE1F24130008201300088A
:101100002DE9F041FFF7E0FF012800D1FEE70025BF
:10111000324E334C316915F804E00B684FEAC50CC8
:1011200083F80CE037460023DAB27245086807D22C
:101130002C4A1A44184412F80C2002740133F3E7C5
:101140000268D369DB05FCD4FFF77AFCDFF8A880DE
:1011500088F8000000B1FEE733691868FFF7CAFCA1
:1011600088F8000000B1FEE70DB90125D0E71E4B5D
:101170001B78022BFDD17B681B681A685368C3F388
:101180000743012BFAD1BB681B681A685368C3F385
:101190000743012BFAD10023144AE05C9A5C824297
:1011A00002D1DD0000220BE0FEE70E4911440132BE
:1011B0004E5D0F49AF18394411F8011CB14203D1FB
:1011C000D1B28142F1D300E0FEE70BB90123E3E79E
:1011D000084A1168127C93404B60FEE72C89FE1F81
:1011E0007089FE1F6089FE1F8789FE1F8589FE1F8B
:1011F0007589FE1F241300088889FE1FF8B50F4C5F
:1012000063691868FFF786FC0D4B187000B1FEE7A4
:1012100062690C4912680B780B4C157BE5540F3250
:10122000DE00C4B2AC4206D2084C12F8017F04447E
:101230000130A755F5E701330B70F8BD2C89FE1F6F
:101240008889FE1F8789FE1F8589FE1F7589FE1FFD
:1012500070B50E4B0E4CE41AA41000251E46A54294
:1012600004D056F8253098470135F8E7FFF715FD0B
:10127000084C094BE41AA41000251E46A54204D0D0
:1012800056F8253098470135F8E770BD7489FE1F80
:101290007489FE1F7489FE1F7489FE1F004495081F
:1012A00020A10700401F0100000000005489FE1F1C
:1012B00000440148F8120008C812000800020000AB
:1012C000000000000000010000000000004495083C
:1012D00020A10700401F0100000000005489FE1FEC
:1012E000004301489C120008D812000800010000C9
:1012F00000000000000001000044950820A1070044
:10130000401F01005489FE1F00420148CC12000812
:10131000A81200080000000000000000000001000A
:101320004D3F0001008502488000000000000100E0
:10133000000000000900000030020101000001006F
:0C1340000000000000000100020101019B
:10134C008050014877070040FF070020080000008C
:10135C000000000000000000000000000000000081
:10136C005888FE1F000000000089FE1F05010000C8
:10137C00000000000000000001020100E088FE1FD8
:10138C003888FE1F0000000003020100000000006E
:10139C00000000010000000000500148440400401F
:1013AC00FF07002008000000000000000000000003
:1013BC000000000000000000A888FE1F00000000D4
:1013CC00000000000003030000000000000000000B
:1013DC000889FE1F2889FE1F00000000040202007D
:1013EC00000000000000000160500148440400406F
:1013FC00FF0700200800000003030303030303039B
:10140C0001000000000000000088FE1F000000002A
:10141C0000000000000304000100000001000000B7
:10142C002050014877070040FF070020080000000B
:10143C000101010101010101010000000000000097
:10144C0001020101000101004050014877070040F2
:10145C00FF07002008000000020202020202020242
:10146C000100000000000000010201005489FE1F71
:10147C002088FE1F3C88FE1F9088FE1F7888FE1F68
:10148C00C888FE1FA10C000804130008DC12000819
:10149C00AC1200080044950800400148010000000F
:1014AC00AABBCCDDEEFF66779991929394959697B3
:0414BC00050800001F
:0400000508000201EC
:00000001FF
