:020000040C00EE
:100000000088FE1F010200089902000899020008FA
:1000100099020008990200089902000800000000F7
:10002000000000000000000000000000990200082D
:1000300099020008000000009902000899020008D7
:100040009902000899020008990200089902000824
:100050009902000899020008990200089902000814
:1000600099020008000000000000000000000000ED
:100070009902000800000000990200089902000897
:1000800099020008990200089902000899020008E4
:1000900099020008990200089902000899020008D4
:1000A00099020008990200089902000899020008C4
:1000B00099020008990200089902000899020008B4
:1000C00099020008990200089902000899020008A4
:1000D0009902000899020008990200089902000894
:1000E0009902000899020008990200089902000884
:1000F0009902000899020008990200089902000874
:100100009902000899020008990200089902000863
:100110009902000899020008990200089902000853
:100120009902000899020008990200089902000843
:100130009902000899020008990200089902000833
:100140009902000899020008990200089902000823
:100150009902000899020008990200089902000813
:10016000000000000000000000000000000000008F
:1001700099020008990200089902000899020008F3
:1001800099020008990200089902000899020008E3
:1001900099020008990200089902000899020008D3
:1001A00099020008990200089902000899020008C3
:1001B00099020008990200089902000899020008B3
:1001C00099020008990200089902000899020008A3
:1001D0009902000899020008990200080000000036
:1001E0009902000899020008990200089902000883
:1001F0009902000899020008990200080000000016
:10020000DFF874D01D4880471D4C1E4DAC4209DA02
:1002100021686268A368043BA2BFC858D050FAE7BF
:100220000C34F3E7184B194CA34208DA19685A68E2
:100230000020043AA4BF8850FBE70833F4E71448D1
:1002400080471448804700004040000C0088FE1F93
:10025000F40000004040000C0088FE1F0000000079
:10026000F488FE1FC800000000000020000000000D
:1002700000000020000000000088FE1F9D02000812
:1002800048020008600200086002000878020008C6
:10029000CD290008C51B0008FEE7000098B500AF97
:1002A000054A4FF0005314460FCB84E80F0000F0CE
:1002B00005F801F017FC98BDC4FF032080B483B09B
:1002C00000AF72B6164B174A9A60BFF34F8F62B6F3
:1002D000134A134BD3F8883043F47003C2F88830C4
:1002E0000F4A0F4B5B6923F0080353610E4B03F574
:1002F000805314331B687B607B6823F00F037B60A3
:100300007B6843F004037B60074B03F58053143391
:100310007A681A600C37BD465DF8047B704700BFF1
:1003200000ED00E0000000080010005880B584B027
:1003300000AF2F4BDB6803F48033002B3ED02D4BF6
:10034000DB6803F00103002B02D02B4BFB6002E0C3
:1003500001F0AAFBF860274B1B6803F00403002B95
:1003600020D0244B9B6803F070631B0E0133BB60ED
:10037000204B9B6803F4FE431B0A01337B601D4B3B
:100380009B6803F4FE031B0C01333B60BB683A68B7
:1003900002FB03F3FA68B2FBF3F37A6802FB03F3A0
:1003A000FB600DE0134B9B6803F07F0301333B6060
:1003B000FA683B68B2FBF3F3FB6001E00E4BFB60B5
:1003C0000B4BDB68DBB20133FA68B2FBF3F3FB6083
:1003D000074B1B6903F001030133FA68B2FBF3F327
:1003E000FB60064AFB6813601037BD4680BD00BF46
:1003F000004600501047005000366E01C0FF032039
:1004000080B485B000AFF8600B467A60FB72FB7A6F
:100410009B08DBB21846FB7A9B08DBB21A46FB68E6
:10042000043253F82220FB7A03F00303DB00194661
:10043000F8238B40DB4302EA0301FB68021D43F80B
:100440002210FB685A6FFB7A5B00194603238B402E
:10045000DB431A40FB685A67FB683A4A934203D071
:10046000FB68394A93420AD1FB681A6EFB7A012174
:1004700001FA03F3DB431A40FB681A6642E07B682B
:100480001B78DBB25BB2002B3CDA7B685A68FB7AE4
:100490009A40FB685A60FB7ADB08DBB21846FB7AAD
:1004A000DB08DBB21A46FB68103253F82220FB7AD5
:1004B00003F007039B00194607238B40DB4302EA46
:1004C0000301FB6800F1100243F82210FB7ADB08FD
:1004D000DBB21846FB7ADB08DBB21A46FB68103247
:1004E00053F822207B681B7A1946FB7A03F0070336
:1004F0009B0001FA03F342EA0301FB6800F11002DA
:1005000043F82210FB7A9B08DBB21846FB7A9B0863
:10051000DBB21A46FB68043253F822207B681B7852
:100520001946FB7A03F00303DB0001FA03F342EA06
:100530000301FB68021D43F822101437BD465DF825
:10054000047B7047008E0248008F024880B400AFE1
:10055000034B1B681846BD465DF8047B704700BF1F
:10056000C0FF032080B400AF034BD3F8C43018465B
:10057000BD465DF8047B70470040005080B584B0F4
:1005800000AF7860FFF7D2FE0B4B1B680B4AA2FB53
:1005900003239A0C7B6802FB03F37B600023FB6060
:1005A00003E000BFFB680133FB60FA687B689A4296
:1005B000F7D31037BD4680BDC0FF032083DE1B4349
:1005C00080B400AF034B5B681846BD465DF8047B02
:1005D000704700BF7440005080B483B000AF7860B3
:1005E000034A7B68D3600C37BD465DF8047B7047D7
:1005F00074400050B0B584B002AF7860002000F0C5
:10060000A1F800F083FA7B68DB79002B0AD000F0B8
:10061000BBFA00BF00F0A6FA034683F00103DBB289
:10062000002BF7D17B685B7A184600F005F900BF14
:10063000FFF798FF0346002BFAD17B681B7A184618
:1006400000F03EFA7B681B7C184600F013F97B68CB
:100650005B7C184600F036F97B689B7C184600F0FE
:100660001DF97B68DB7C184600F040F97B689B79BC
:10067000002B0AD000F0C0FA00BF00F0E5FA0346F4
:1006800083F00103DBB2002BF7D17B68DB78002B12
:1006900009D17B689B7983F00103DBB2002B17D073
:1006A00000F0F6FA14E000F0E3FA7B6899887B68C2
:1006B000DA787B685B781D467B681B781C467B6814
:1006C0009B780093084611462A46234600F0F0FA2C
:1006D0007B68DB68B3F5803F03D14FF4803000F0D6
:1006E00031F8FFF723FE0837BD46B0BD80B485B0B2
:1006F00000AF78607B681B0FFB607B6823F0704362
:10070000BB60FA6813465B0013449B001A46044B17
:100710001344BA681A601437BD465DF8047B70470D
:100720001444005080B500AFFFF710FF0246044BA1
:100730005B6903F0010322FA03F3184680BD00BF92
:100740000046005080B483B000AF78600649064B85
:10075000DB6823F480327B681343CB600C37BD46E3
:100760005DF8047B704700BF0046005080B483B042
:1007700000AF78600649064B9B6923F480327B68A2
:1007800013438B610C37BD465DF8047B704700BF97
:100790000046005080B483B000AF78600649064B35
:1007A0005B6A23F440327B6813434B620C37BD46CF
:1007B0005DF8047B704700BF0046005080B483B0F2
:1007C00000AF0346FB80FB88002B08D10A4A0A4B86
:1007D000DB6823F4807323F00103D36007E0064A4B
:1007E000054BDB6843F4807343F00103D3600C379F
:1007F000BD465DF8047B70471047005080B483B05D
:1008000000AF0346FB7100BF094BD3F8C43003F0BF
:100810000803002BF8D10749064BDB6823F04002A0
:10082000FB791343CB600C37BD465DF8047B704702
:10083000004000500043005080B483B000AF034636
:10084000FB7100BF094BD3F8C43003F00803002B41
:10085000F8D10749064BDB6823F08002FB7913438C
:10086000CB600C37BD465DF8047B704700400050FC
:100870000043005080B483B000AF78600649064B57
:10088000DB6823F0FF027B68013B1343CB600C372E
:10089000BD465DF8047B70470046005080B483B0CD
:1008A00000AF78600649064B1B6A23F001027B68A3
:1008B000013B13430B620C37BD465DF8047B704768
:1008C0000046005080B483B000AF78600649064B04
:1008D0001B6923F001027B68013B13430B610C375A
:1008E000BD465DF8047B70470046005080B483B07D
:1008F00000AF78600649064B5B6923F001027B6814
:10090000013B13434B610C37BD465DF8047B7047D8
:100910000046005080B483B000AF78600649064BB3
:100920009B6923F007027B68013B13438B610C3703
:10093000BD465DF8047B70470046005080B483B02C
:1009400000AF78600649064BDB6923F03F027B6805
:10095000013B1343CB610C37BD465DF8047B704708
:100960000046005080B483B000AF78600649064B63
:100970005B6A23F0FF027B68013B13434B620C3739
:10098000BD465DF8047B70470046005080B483B0DC
:1009900000AF78600649064B9B6B23F003027B682F
:1009A000013B13438B630C37BD465DF8047B7047F6
:1009B0000046005080B485B000AF78607B681B0FA4
:1009C000FB607B6823F07043BB60FA6813465B00F2
:1009D00013449B001A46044B1344BA681A60143738
:1009E000BD465DF8047B70474846005080B400AFB8
:1009F000054A054B5B6923F4803323F002035361FE
:100A0000BD465DF8047B70471047005080B483B04A
:100A100000AF78603960284A274B5B6943F00103D7
:100A2000536100BF244B1B6903F00103002BF9D075
:100A3000214A214B5B6943F0100353611E493B6817
:100A4000013B1A027B68013B1B0613434B611A4AA8
:100A5000194B5B6943F040035361174A164B5B69BE
:100A600023F010035361144A134B5B6943F4802352
:100A7000536100BF104B1B6903F00403002BF9D036
:100A80000D4A0D4B5B6923F00103536100BF0A4B14
:100A90001B6903F00103002BF9D1074A064B5B6980
:100AA00023F040035361054B0822DA600C37BD4642
:100AB0005DF8047B704700BF104700506041005054
:100AC00080B582B000AF0346FB710F4A0E4B5B68E6
:100AD00043F480135360FB79012B0ED10A4A0A4B71
:100AE0005B6823F4801353606420FFF747FD064AD8
:100AF000054B5B6843F4002353606420FFF73EFD21
:100B00000837BD4680BD00BF1047005080B400AF1D
:100B1000124B1B6803F00103002B09D10F4B01227C
:100B20005A6000BF0D4B1B6803F00103002BF9D086
:100B30000B4B1B6803F40073002B0AD0084B4FF4D7
:100B400000729A6000BF064B1B6803F40073002B11
:100B5000F9D1BD465DF8047B704700BF00420050EC
:100B60000044005080B400AF064B1B6803F008033C
:100B7000002B0CBF01230023DBB21846BD465DF8F5
:100B8000047B70470043005080B500AF4FF4000075
:100B9000FFF722FD174A174BDB6923F03003D361BF
:100BA00000BFFFF70DFD034603F40003002BF8D050
:100BB0004FF40030FFF710FD0E4B08225A6000BFC3
:100BC000FFF7FEFC034603F40033002BF8D04FF48C
:100BD0000020FFF701FD074A064BDB6843F00803DE
:100BE000D36000BFFFF7ECFC034603F40023002BA7
:100BF000F8D080BD00430050B0B500AF0F4A0F4B96
:100C00005B6823F4803353600D4D0D4B5B6823F418
:100C1000702424F0300400F047FF0246094BA3FB88
:100C200002231B0D013B1B0423436B60034A034B50
:100C30005B6823F400335360B0BD00BF1047005021
:100C4000004700506BCA5F6B80B400AF074B1B6856
:100C500003F46073B3F5607F0CBF01230023DBB2A4
:100C60001846BD465DF8047B704700BF1047005032
:100C700080B400AF054A054B5B6823F4803323F052
:100C800002035360BD465DF8047B70471047005077
:100C900080B400AF054A054B5B6843F4803343F0F2
:100CA00002035360BD465DF8047B70471047005057
:100CB00080B586B000AFBA607B600346FB810B460F
:100CC0007B73FB891846FFF779FD7B7B012B40F096
:100CD0008B80FB89002B09D100F0E6FE0246544BC5
:100CE000A3FB02239B0C9B057B6102E04FF0C063DA
:100CF0007B617B697A6802FB03F2BB68B2FBF3F3AA
:100D00007B617B694B4AA2FB03231B099B0D3B6163
:100D1000494A494B5B6843F00103536000BF464BAF
:100D20001B6803F00103002BF9D0434A424B5B6878
:100D300043F01003536040493F4B9A683F4B1340C8
:100D40007A68013A12021A433B69013B1B041A43B9
:100D5000BB68013B1B0613438B60374A364B5B680D
:100D600043F040035360344A334B5B6823F0100375
:100D70005360314A304B5B6843F48023536000BFBB
:100D80002D4B1B6803F00403002BF9D02A4A2A4B91
:100D90005B6823F00103536000BF274B1B6803F01F
:100DA0000103002BF9D17B69254AA2FB03235B09D0
:100DB0009B0D3B613A6A3B699A4202D2386900F066
:100DC00045F87B695B081F4AA2FB03235B099B0D67
:100DD0003B613A6A3B699A4202D2386900F036F8C0
:100DE000386A00F033F81CE01349134B9B6823F07A
:100DF0007F023B6A013B13438B6000BF0E4B1B68B5
:100E000003F01003002BF9D00B4A0B4B5B6843F047
:100E10000103536000BF084B1B6803F00103002B64
:100E2000F9D0094B0522DA601837BD4680BD00BFF6
:100E300083DE1B43ABAAAAAA10470050FF8080F0B4
:100E400089888888B7600BB66041005080B582B051
:100E500000AF78600B490B4B9B6823F4FE027B6864
:100E6000013B1B0413438B6000BF064B1B6803F060
:100E70002003002BF9D03220FFF780FB0837BD4656
:100E800080BD00BF1047005080B483B000AF7860D1
:100E90007B68D3F8C43103F44073002B0CBF0123EB
:100EA0000023DBB218460C37BD465DF8047B704763
:100EB00080B483B000AF7860084611461A460346F6
:100EC000FB700B46BB7013467B70FA78BB781B0433
:100ED00003F47F031A437B781B061A437B68C3F82D
:100EE000C4210C37BD465DF8047B704780B483B0E5
:100EF00000AF78607B681B6843F040027B681A6033
:100F00000C37BD465DF8047B704700BF80B483B0EA
:100F100000AF78607B681B6823F040027B681A6032
:100F20000C37BD465DF8047B704700BF80B483B0CA
:100F300000AF786039603A687B68934238BF1346E7
:100F400018460C37BD465DF8047B704780B483B00B
:100F500000AF786039603A687B68934228BF1346D7
:100F600018460C37BD465DF8047B704780B590B0DD
:100F700000AF786039600C23FB630C23BB63002354
:100F80007B6301233B6300237B610023FB6242F20E
:100F90001073BB620123FB6367E03B681A6813466A
:100FA0009B0013445B001A46FB6BB2FBF3F33B61FF
:100FB0003B685B683A69B2FBF3F37B62796A5B4B2F
:100FC000A3FB0123DA0813469B0013445B00CA1AF3
:100FD000052A09D97B6A554AA2FB0323DB087B62F9
:100FE0007B6A01337B6205E07B6A504AA2FB0323E4
:100FF000DB087B627B6A002B0AD07A6A13469B006F
:1010000013445B001A463B69B3FBF2F33B6207E013
:101010003B69464AA2FB0323DB083B6201237B6258
:101020003B685A683B6A9A4205D83B685B683A6AF3
:10103000D31AFB6104E03B685A683B6AD31AFB6130
:101040007B6A142B0ED8BA6AFB699A420AD9FB6BE9
:101050007B637B6AFB62FB69BB62FB69B3F57A7FEA
:1010600000D205E0FB6B0133FB63FB6B402B94D993
:1010700042F21073BB624023BB632EE0BB6B0133B3
:1010800042F2107202FB03F2FB6AB2FBF3F3FB6065
:101090003B681B891A46FB689A4206D83B681B8945
:1010A0001A46FB689B1ABB6105E03B681B891A4620
:1010B000FB68D31ABB61BA6ABB699A4203D9BB6B9E
:1010C0003B63BB69BB623B681B891A46FB689A425B
:1010D00000D905E0BB6B013BBB63BB6B022BCDD8DA
:1010E000FA6A3B6BD31A013B7B617868FFF7FEFE1F
:1010F0007B69013B1B0303F4E0423B685B89013BD6
:101100009B01DBB21A433B6B013B1B0203F4706390
:101110001A437B6B013B03F03F031A437B681A6160
:101120007868FFF7F3FE4037BD4680BDCDCCCCCC10
:1011300080B582B000AF78600B46FB701346BB7081
:1011400000BF7868FFF7A0FE034683F00103DBB21F
:10115000002BF6D1FB780133DBB2BA787868022134
:10116000FFF7A6FE0837BD4680BD00BF80B582B040
:1011700000AF78600A48FFF71DFC0948FFF7B6FA90
:101180007B681B6823F001027B681A6000BF7B68E4
:101190001B6803F00203002BF9D10837BD4680BD60
:1011A0001000001080B483B000AF78600B46FB7075
:1011B0007B68D3F8C83123F00F02FB781A437B68B1
:1011C000C3F8C8210C37BD465DF8047B704700BFEB
:1011D00080B483B000AF78607B68D3F8C831DBB2ED
:1011E00003F00F03DBB218460C37BD465DF8047BF5
:1011F000704700BF80B584B000AF78600023FB600B
:101200007868FFF7E5FF0346012B02D0022B04D0DC
:1012100007E0FFF787FAF86003E000F045FCF860AC
:1012200000BFFB6818461037BD4680BD80B588B04A
:1012300000AFF8600B467A60FB72F868FFF796FF24
:10124000FB7AF8681946FFF7ADFFF868FFF7D2FFA1
:10125000F861FA697B68B2FBF3F3C3F580630020A1
:101260001946FFF763FE0346184640F2FF31FFF7C9
:101270006DFEB861BB69C3F58063FA69B2FBF3F335
:101280007B61FB68DB6823F4434323F0FF03FA68C8
:10129000D360FB68DA68BB69134343F48042FB68A0
:1012A000DA607B6918462037BD4680BD80B586B0C0
:1012B00000AF78607B681B6803F13843A3F5A8335F
:1012C0005B097B617B695B095A037B6903F01F0340
:1012D0001B0213433B617B681B687A681268926843
:1012E00022F47F429A607B681B687A681268916872
:1012F0003A690A439A607B68DB7903F02003DBB22A
:10130000002B07D07B68DB7903F02003DBB2002BD6
:1013100000D160E07B681B7E002B04D07B681B7EC5
:10132000012B00D057E07B681B682022DA617B68C4
:10133000DB7903F02003DBB2002B28D17B685B68EC
:10134000FB60FB6803F06043FB607B685B68C3F392
:101350001C039B041A46FB681343FB607B681B68F5
:10136000FA689A617B689B68FB60FB6803F06043E6
:10137000FB607B689B68C3F31C039B041A46FB68F5
:101380001343FB607B681B68FA68DA6009E07B68DE
:101390001B687A6852689A617B681B687A689268F1
:1013A000DA607B681B7E012B0CD1786800F01AF89C
:1013B0007B681B684FF00062DA617B681B68074A34
:1013C000DA6108E07B681B684FF40062DA617B68D1
:1013D0001B68034ADA611837BD4680BDC00020068D
:1013E0004006A00080B485B000AF78600323FB7393
:1013F0007B681B7E012B22D17B681B682022DA616F
:101400007B681B687A681268126822F070617A68DB
:10141000127B120602F070620A431A607B681B6836
:101420007A6812691A617B681B687A6852695A6126
:101430007B681B68064ADA610023FB7301E0032323
:10144000FB73FB7B18461437BD465DF8047B704781
:101450004000280080B487B000AF78600123FB759E
:101460007B681B68DB6903F020035B093B617B68D9
:101470001B68DB6903F480731B0AFB603B69002B6C
:1014800002D10423FB750CE0FB68012B02D102237F
:10149000FB7506E07B681B684FF0E062DA610023B1
:1014A000FB75FB7D18461C37BD465DF8047B704715
:1014B00080B487B000AF78600123FB750023BB7553
:1014C00000237B757B681B68DB6903F40063DB0A20
:1014D0003B617B681B68DB6903F004039B08FB60CE
:1014E0003B69002B02D00323FB75A7E0FB68012BAF
:1014F00002D10223FB75A1E07B681B680822DA6138
:101500007B681B689B6903F000535B0F002B40D185
:101510007A68D3796FF34513D3717B681B689A6936
:101520004A4B13409B0C23F060417A68536861F387
:101530001C0353607B681B68DB6803F000535B0F80
:10154000DBB203F00103D9B27A68D37A61F34513B1
:10155000D3727B68DB7A03F02003DBB2002B0DD063
:101560007B681B68DA68394B13409B0C23F06041A1
:101570007A68936861F31C03936032E07B681B68B0
:10158000DB6823F060417A68936861F31C03936021
:1015900027E07A68D37943F02003D3717B681B6816
:1015A0009B6923F060417A68536861F31C035360C0
:1015B0007B681B68DB6823F060417A68936861F39D
:1015C0001C0393607B681B68DB6803F000535B0FB0
:1015D000DBB203F00103D9B27A68D37A61F3451321
:1015E000D3727B681B681B6803F070631B0EDAB252
:1015F0007B681A737B681B681A697B681A617B6851
:101600001B685A697B685A617B681B68DB6903F059
:1016100004039B08BB757B681B68DB6903F0080348
:10162000DB087B75BB7D002B03D07B7D002B7FF41B
:1016300063AF7B6800221A760023FB75FB7D18469A
:101640001C37BD465DF8047B704700BF0000FC1FDF
:1016500080B483B000AF78600B46FB701346BB705C
:101660007B685A6FFB785B00194603238B40DB4392
:101670001A407B685A677B685A6FBB78F9784900D3
:101680008B401A437B685A670C37BD465DF8047B74
:10169000704700BF80B584B000AF7860144B1B6802
:1016A000002B02D1124B134A1A60114B1B68FB60CE
:1016B0007B68033323F003037B600D4B1A687B6860
:1016C00013440D4A934207D2094B1A687B681344AE
:1016D000074A1360FB6806E001F072F902460C232A
:1016E00013604FF0FF3318461037BD4680BD00BF72
:1016F000F488FE1F00000020C0FF032080B400AF6C
:10170000BD465DF8047B704780B584B000AF78605B
:101710000023FB737B68DB6898470346FB73FB7B06
:1017200018461037BD4680BD80B485B000AFF86064
:101730000B467A60FB72FB689A68FB7A072101FA14
:1017400003F3DB431A40FB7A796801FA03F31A4387
:10175000FB689A601437BD465DF8047B704700BF94
:1017600080B483B000AF78600B46FB707B68DB68A9
:1017700023F00702FB7803F007031A437B68DA6063
:101780000C37BD465DF8047B704700BF80B483B062
:1017900000AF78607B681B6843F040027B681A608A
:1017A0000C37BD465DF8047B704700BF80B483B042
:1017B00000AF78607B681B6823F040027B681A608A
:1017C0000C37BD465DF8047B704700BF80B483B022
:1017D00000AF78607B681B6843F001027B681A6089
:1017E0000C37BD465DF8047B704700BF80B483B002
:1017F00000AF78607B681B6823F001027B681A6089
:101800000C37BD465DF8047B704700BF80B483B0E1
:1018100000AF786039607B689B6923F4F8123B68FD
:101820001B681A437B689A610C37BD465DF8047BE0
:10183000704700BF80B485B000AFF8600B467A6097
:10184000FB72FB681B68FA6812689168FA7A0720D5
:1018500000FA02F2D2431140FA7A786800FA02F2F2
:101860000A439A601437BD465DF8047B704700BF99
:1018700080B582B000AF624B1B68184600F0C2F81A
:101880000346FB71FB79002B40F0B3805C4B1B6976
:101890005A685B4B1B699B6810461946FFF766FB4D
:1018A000574B1B695B681846FFF770FF544B1B6969
:1018B0005B681846FFF78AFF514B1B695A68504B0B
:1018C0001B69DB6810461946FFF7A0FF4C4B1B69EC
:1018D0005A684B4B1B691B7C10461946FFF740FFAB
:1018E000474B1B695A68464B1B699B7C104600217D
:1018F0001A46FFF719FF424B1B695A68404B1B6998
:10190000DB7C104604211A46FFF70EFF3C4B1B6997
:101910005A683B4B1B691B7D104608211A46FFF78E
:1019200003FF374B1B695A68354B1B695B7D1046BB
:101930000C211A46FFF7F8FE314B1B695B6818460D
:10194000FFF734FF2E4B1B695B681846FFF74EFF0D
:101950002B4B1B6859682A4B1B695A7C284B5B68C8
:101960009B7B084611461A46FFF7E2FB244B1B6897
:101970005968234B1B695A7C214B9B689B7B08460B
:1019800011461A46FFF7D4FB00233B602DE01C4AAA
:101990003B689B0013445B681B681846FFF786FC96
:1019A000174A3B689B0013445B681968144A3B68FC
:1019B0009B0013445B681B7C084600211A46FFF716
:1019C00039FF0F4A3B689B0013445B6819680C4A57
:1019D0003B689B0013445B68DB7B084604211A4686
:1019E000FFF728FF3B6801333B603B68012BCED9F2
:1019F00001E00123FB71FB7918460837BD4680BD25
:101A00007088FE1F80B584B000AF78600023FB7340
:101A10007B685B7A83F00103DBB2002B0FD07B681D
:101A200059687B681A7A7B681B68084611461A4613
:101A3000FFF7FCFB7B6801225A720023FB73FB7BE0
:101A400018461037BD4680BD80B582B000AF7860C3
:101A50007B6819687B681A7C7B68043308461146EA
:101A60001A46FEF7CDFC7B6819687B681A7C7B6898
:101A70005B7C084611461A46FFF7EAFD002318462C
:101A80000837BD4680BD00BF80B485B000AF786028
:101A90000023FB737B6801221A70FB7B1846143706
:101AA000BD465DF8047B704780B400AF024B18461A
:101AB000BD465DF8047B7047001BB70080B483B05F
:101AC00000AF78600649064B9B6B23F480327B683D
:101AD00013438B630C37BD465DF8047B704700BF32
:101AE00000460050B0B586B000AF164B3C1D1D46F9
:101AF0000FCD0FC42B6823603B1D1846FEF77AFDFF
:101B00000020FEF77BFE4FF48030FEF72FFE06200C
:101B1000FEF700FFFEF76AFF03206421FEF776FF61
:101B20000020FFF7CBFF0220FEF730FF0020FEF77A
:101B300031FE0120FEF716FF0120FEF7FFFE1837E9
:101B4000BD46B0BDA03C000880B582B000AF002308
:101B5000FB710D48FFF798FF0346FB71FB79002BE3
:101B600004D10A48FFF770FF0346FB71FB79002B95
:101B700004D10748FFF7C8FD0346FB71FB791846FF
:101B80000837BD4680BD00BFF888FE1F8C3C0008AA
:101B90007088FE1F80B485B000AF78600023FB60C2
:101BA00002E0FB680133FB607B684FF4E14202FB1B
:101BB00003F2FB689A42F4D81437BD465DF8047B03
:101BC000704700BFF0B5A5B006AFFFF7BDFF0346F5
:101BD00087F8753001F0DAFE97F87530002B03D0E6
:101BE000B34800F0B7FFFEE700F09CFAB14B19686C
:101BF000B04B1A69AF4B5B68AF4800F021FFAF4BA9
:101C0000DA69AE4BDB6903F470431B0BAC48114639
:101C10001A4600F015FFAB4BDA69AA4BDB6903F4F7
:101C200070431B0BA84811461A4600F009FFA7484D
:101C3000022100F005FFA64A07F15C0312881A8012
:101C4000A44800F087FF07F15C03184600F002FD8E
:101C5000034687F8743097F87430002B09D197F851
:101C60005C301A4697F85D309B4811461A4600F0E2
:101C7000E7FE07F15003184600F018FC034687F80A
:101C8000743097F87430002B6DD1D7ED147AB2EE22
:101C9000047A67EE877AB6EE007A77EE877AFCEE02
:101CA000E77A17EE903A3B67D7ED157AB2EE047AF1
:101CB00067EE877AFDEEE77A17EE903AFB66D7ED8E
:101CC000167AB2EE047A67EE877AB6EE007A77EE8D
:101CD000877AFCEEE77A17EE903ABB66FB6E002B34
:101CE000B8BF5B427B663B6F7C4AA2FB03234FEA93
:101CF000D30C3A6F794BA3FB0213DC0823469B00FD
:101D000023445B00D41AFB6E002B02DADFF8F8E103
:101D100001E0DFF8F8E17B6E704AA2FB0323DE08E6
:101D20007A6E6E4BA3FB0213D9080B469B000B4443
:101D30005B00D11ABB6E694AA2FB0323DD08B86EB3
:101D4000664BA3FB0023DA0813469B0013445B0099
:101D5000C21A00960191029503926148614622469B
:101D6000734600F06DFE07F13C03184600F046FC98
:101D7000034687F8743097F87430002B1AD197F81F
:101D80003C30012B07D097F83C30022B01D1554B4A
:101D900002E0554B00E0554B3B6697F83D301A4644
:101DA00097F83E301C463B6C00935148396E2346F1
:101DB00000F046FE07F14803184600F0C7FB034653
:101DC00087F8743097F87430002B0FD1B7F848308B
:101DD000194697F84A301A46B7F84C301C4697F81F
:101DE0004E3000934348234600F02AFE07F1440397
:101DF000184600F0DBFB034687F8743097F8743020
:101E0000002B10D197F844305AB297F845301C4651
:101E100097F846305BB297F8471000913648114664
:101E2000224600F00DFE97F85C303A4610461946FF
:101E300000F02CFC034687F8743097F87430002BC0
:101E400020D12E4800F0FCFD002387F8763010E00A
:101E500097F876305B0007F17802134433F8783C4A
:101E60002748194600F0ECFD97F87630013387F8E3
:101E7000763097F8203097F876209A42E8D30A20F7
:101E800000F0F6FD97F85D3007F130021046194674
:101E900000F00EFD034687F8743097F87430002B7D
:101EA00050D1184800F0CCFD002387F8763040E090
:101EB000B43C000800420148D43C000800500148EE
:101EC000043D000820500148283D00084C3D000812
:101ED0006C3F0008903D0008B03D0008CDCCCCCC54
:101EE000E83D0008283E00082C3E0008343E00086B
:101EF000383E0008703E0008A43E0008DC3E0008A2
:101F0000EC3E0008F03E0008E03D0008E43D00081B
:101F100097F8763007F17802134413F8483C5BB227
:101F20004048194600F08CFD97F87630013387F869
:101F3000763097F8383097F876209A42E8D30A201E
:101F400000F096FD07F12C03184600F0FBFC034659
:101F500087F8743097F87430002B0AD197F82C303A
:101F6000194697F82D301A4697F82E302E4800F073
:101F700067FD07F12403184600F004FD034687F8C7
:101F8000743097F87430002B46D1002387F87730EF
:101F9000002387F8763010E097F8763007F1780262
:101FA000134413F8542C97F87730134387F877309D
:101FB00097F87630013387F8763097F87630072B2C
:101FC000EAD997F824309C4697F825309E4697F832
:101FD00026301E4697F827301D4697F828301C46B5
:101FE00097F82930184697F82A30194697F82B3079
:101FF0001A4697F87730002B01D00C4B00E00C4BC1
:10200000009501940290039104920593094861465A
:102010007246334600F014FD4FF4FA60FFF7BAFD44
:1020200009E600BF003F0008043F00082C3F0008FD
:10203000343F0008383F000880B483B000AF7860B8
:102040000B46FB707B68DB6823F00702FB7803F02C
:1020500007031A437B68DA600C37BD465DF8047BE2
:10206000704700BF80B483B000AF78600B467B80C0
:102070007B685A687B88DB431A407B685A600C3760
:10208000BD465DF8047B704780B483B000AF7860D4
:102090007B681B6843F040027B681A600C37BD46C2
:1020A0005DF8047B704700BF80B483B000AF7860F8
:1020B0007B681B6823F040027B681A600C37BD46C2
:1020C0005DF8047B704700BF80B483B000AF7860D8
:1020D0007B681B6843F001027B681A600C37BD46C1
:1020E0005DF8047B704700BF80B483B000AF7860B8
:1020F0007B681B6823F001027B681A600C37BD46C1
:102100005DF8047B704700BF80B483B000AF786097
:102110007B681B68DB6918460C37BD465DF8047B9D
:10212000704700BF80B58AB000AF284A07F11C0392
:1021300007CA83E8070007F11C0325481946FEF784
:1021400015FF2348FFF7A0FF2148FFF7BDFF2048F8
:102150000121FFF771FF1E48FFF7A6FF1C48FFF79C
:10216000C3FF1C4800210022FEF7E2FF19480021AE
:102170000122FEF7DDFF07F1100300221A6004338D
:1021800000221A60043300221A60043388233B744F
:1021900001237B6107F110030F4800211A46FEF767
:1021A0002FF93B1D00221A60043300221A60043309
:1021B00000221A60043310233B713B1D07480321A2
:1021C0001A46FEF71DF92837BD4680BD703F00084E
:1021D000004201480040014800820248008E024847
:1021E00080B483B000AF0D4B7B6009E00C4B5B68A3
:1021F0003B603B6803F00F03002B01D03B6806E017
:102200007B685A1E7A60002BF0D1054B5B6818463C
:102210000C37BD465DF8047B704700BF80C3C90121
:102220000042014880B584B000AF0346FB712D4BDE
:10223000FB6000BF2C4B5B681B681846FFF764FF10
:10224000034603F48073002B05D0FB68013BFB6061
:10225000FB68002BEED1FB68002B01D101233CE091
:10226000214B5B681A68FB791B0443F0C05343F4AD
:10227000107323F06041536861F31C035360002323
:10228000FB7209E0184B5B681A68FB7A1344002262
:102290001A74FB7A0133FB72FB7A072BF2D9124BCB
:1022A0005B681B681846FFF701F810480821FFF724
:1022B000D9FE0E4A0D4B5B6823F0070353600A4BAF
:1022C0005B681B681846FFF7C5F80346002B01D072
:1022D000022302E0FFF784FF002318461037BD46B3
:1022E00080BD00BF005125027088FE1F00420148DA
:1022F00080B483B000AF786039600C37BD465DF8BC
:10230000047B704780B584B000AF78603960224BA1
:10231000FB6000BF214B9B681B681846FFF7F4FE6B
:10232000034603F00803002B05D1FB68013BFB606B
:10233000FB68002BEED1FB68002B01D1012327E0C5
:10234000164B9B681B681846FFF7B2F8134B9B6847
:102350001B68134A103319685B68116053603B684F
:10236000002B08D00D4B9B681B685B68C3F31C03F4
:102370001A463B681A607B68002B08D0074B9B68A5
:102380001B68103378681946082200F045FB0023CB
:1023900018461037BD4680BD005125027088FE1FCB
:1023A000B089FE1F80B586B000AF7860396007F154
:1023B0000C0207F1080310461946FFF7A3FF034676
:1023C000FB75FB7D002B04D0114800F0C3FBFB7DA7
:1023D00019E0BA6807F10C0310461946FFF788FFA9
:1023E0003B68002B04D0BB681B0CDAB23B681A7048
:1023F0007B68002B06D07B681A4607F10C0303CBE1
:1024000010605160002318461837BD4680BD00BFDC
:102410007C3F000880B584B000AF03463960FB7193
:10242000FB791846FFF7FEFE0346FB73FB7B002B90
:1024300001D0FB7B04E038680021FFF7B3FF0346BF
:1024400018461037BD4680BD80B483B000AF7860B9
:102450007B681B781B029AB27B6801331B789BB2A6
:1024600013439BB29BB218460C37BD465DF8047B04
:10247000704700BF80B483B000AF78607B681B7882
:102480001A067B6801331B781B041A437B680233EE
:102490001B781B0213437A680332127813431846E1
:1024A0000C37BD465DF8047B704700BF80B586B031
:1024B00000AF786007F10C0390201946FFF7AAFFE0
:1024C0000346FB75FB7D002B01D0FB7D38E007F157
:1024D0000C031846FFF7B8FF034607EE903AF8EEF4
:1024E000677A9FED197A67EE877A7B68C3ED007A89
:1024F00007F10C0304331846FFF7A6FF0346A3F5C4
:10250000EA43303B07EE903AF8EEE77A9FED0E7A19
:1025100067EE877A7B68C3ED017A07F10C03063317
:102520001846FFF791FF034607EE903AF8EE677AF8
:102530009FED057A67EE877A7B68C3ED027A002308
:1025400018461837BD4680BDCDCCCC3D80B586B091
:1025500000AF786007F10C0391201946FFF75AFF8E
:102560000346FB75FB7D002B01D0FB7D19E007F1D5
:102570000C031846FFF768FF03461A467B681A806B
:10258000BA7B7B689A7007F10C0303331846FFF798
:102590005BFF03461A467B689A807A7C7B689A7157
:1025A000002318461837BD4680BD00BF80B586B0F1
:1025B00000AF786007F10C0392201946FFF72AFF5D
:1025C0000346FB75FB7D002B01D0FB7D12E03B7BBE
:1025D000283BDBB2DAB27B681A707A7B7B685A7070
:1025E000BB7B283BDBB2DAB27B689A70FA7B7B68F4
:1025F000DA70002318461837BD4680BD80B586B016
:1026000000AF786007F10C0393201946FFF702FF33
:102610000346FB75FB7D002B01D0FB7D15E03A7B6B
:102620007B681A707A7B7B685A70BA7B7B689A7079
:10263000FA7B7B68DA7007F10C0304331846FFF766
:1026400019FF02467B685A60002318461837BD46BA
:1026500080BD00BF80B586B000AF786007F10C0385
:1026600094201946FFF7D6FE0346FB75FB7D002B31
:1026700001D0FB7D06E03A7B7B681A707A7B7B6831
:102680005A70002318461837BD4680BD90B5A3B0D8
:1026900000AF78600B46FB70FB78102B01D910233C
:1026A000FB70002387F883300CE097F8833007F144
:1026B00088021344002203F87C2C97F883300133FE
:1026C00087F8833097F88320FB789A42EDD3002374
:1026D00087F88530002387F886307B68002283F8EE
:1026E0002020FB780233714AA2FB03235B08DBB294
:1026F000023387F8873097F88730082B02D90823F0
:1027000087F887309520FFF78DFD034687F88230E4
:1027100097F88230002B02D097F88230C2E0002375
:1027200087F8843084E097F8863007F13C02DB00BC
:10273000D11897F8863007F11C029B001344084615
:102740001946FFF7DFFD034687F8823097F882309D
:10275000002B00D078E097F88630013387F8863078
:1027600097F88630013BDB0007F18802134413F829
:102770004C3C87F8813097F88130002B03D097F8D4
:102780008130FF2B00D14EE097F88130013BDBB266
:102790001A465200134487F88030002387F88330AC
:1027A0003DE097F8802097F88330134487F87F3016
:1027B00097F87F20FB789A4200D334E097F87F3077
:1027C00007F18802134413F87C3C002B22D197F8C0
:1027D0007F4097F88630591E97F883305B000133AD
:1027E00007F13C02C9000B4413441846FFF72CFEC6
:1027F00003461A467B6823F8142097F87F3007F1C8
:1028000088021344012203F87C2C97F885300133A9
:1028100087F8853097F88330013387F8833097F84D
:102820008330022BBDD997F88430013387F8843088
:1028300097F8842097F887309A4205D297F8852038
:10284000FB789A42FFF46FAF002387F8833016E0DD
:1028500097F883309B0007F18802134453F86C1CEF
:1028600097F8833007F13C02DB0013440846194611
:10287000FFF73EFD97F88330013387F8833097F8F0
:10288000832097F886309A42E2D37B6897F88520B8
:1028900083F8202097F88520FB789A4214BF012303
:1028A0000023DBB218468C37BD4690BDABAAAAAA5E
:1028B00080B586B000AF78600B46FB70FB78082BC4
:1028C00001D90823FB709620FFF7ACFC0346BB75CB
:1028D000BB7D002B01D0BB7D30E007F10C03184617
:1028E0000021FFF75FFD0346BB75BB7D002B01D0C8
:1028F000BB7D23E07B6800221A720023FB7515E084
:10290000FB7DFA7D013207F118010A4412F80C2C04
:10291000283AD2B2D1B27A68D1547B681B7A01339B
:10292000DAB27B681A72FB7D0133FB75FA7DFB78A6
:102930009A4202D2FB7D062BE2D9002318461837B3
:10294000BD4680BD80B586B000AF786007F10C034E
:1029500097201946FFF75EFD0346FB75FB7D002BB4
:1029600001D0FB7D09E03A7B7B681A707A7B7B683B
:102970005A70BA7B7B689A70002318461837BD4698
:1029800080BD00BF80B586B000AF786007F10C0352
:1029900098201946FFF73EFD0346FB75FB7D002B93
:1029A00001D0FB7D07E07B681A4607F10C0303CBDF
:1029B00010605160002318461837BD4680BD00BF27
:1029C000014B1868704700BFF088FE1F70B50E4BB2
:1029D0000E4CE41AA41000251E46A54204D056F859
:1029E000253098470135F8E7FEF788FE084C094B7B
:1029F000E41AA41000251E46A54204D056F825303E
:102A000098470135F8E770BDF488FE1FF488FE1F73
:102A1000F488FE1FF488FE1F10B5431E0A4491423D
:102A200004D011F8014B03F8014FF8E710BD024440
:102A30000346934202D003F8011BFAE770470000F7
:102A40000FB40A4B13B51C6824B1A36913B920460F
:102A500000F036FA05AB2046A168049A019300F015
:102A6000C7FB02B0BDE8104004B07047F088FE1FFD
:102A700038B5084B1C68054624B1A36913B9204634
:102A800000F01EFA20462946A268BDE8384000F052
:102A900047BE00BFF088FE1F70B50E46054618B150
:102AA00083690BB900F00CFAAC68A389190701D54A
:102AB000236983B92846214600F0A8F858B14FF0A1
:102AC000FF3070BD002B0EDB236816F8012C1A7046
:102AD000236801332360A36816F8012B013BA36030
:102AE000002AEFD116E0A269934209DB236816F8A9
:102AF000012C1A70236819780A29EAD1284602E0C5
:102B000016F8011C2846224600F02CF8421C5042C0
:102B10005041D3E7002B15DAA269934208DB236802
:102B20000A221A702368197891420FD1284601E0D1
:102B300028460A21224600F015F8431C5842584105
:102B400030B1BCE723680A221A702368013323607E
:102B50000A2070BD024B01461868FFF79DBF00BFF9
:102B6000F088FE1F70B50D461446064618B18369FD
:102B70000BB900F0A5F9224B9C4201D1746808E022
:102B8000204B9C4201D1B46803E01F4B9C4208BF1C
:102B9000F468A369A360A3891A0709D523693BB127
:102BA00023682069181A63699842EDB20FDB08E0C8
:102BB0003046214600F02AF80028F1D04FF0FF30CF
:102BC00070BD3046214600F011F90028F6D1A36807
:102BD000013BA36023685A1C22601D7063690130A9
:102BE000984204D0A389DB0707D50A2D05D13046CA
:102BF000214600F0FBF80028E0D1284670BD00BF58
:102C0000A83F0008C83F0008E83F0008314B70B5F6
:102C10001D6806460C4625B1AB6913B9284600F07D
:102C20004FF92D4B9C4201D16C6808E02B4B9C4224
:102C300001D1AC6803E02A4B9C4208BFEC68A38931
:102C40009AB211071DD4D50602D40922326038E0A9
:102C5000500712D5616B41B104F14403994202D08F
:102C6000304600F003FA00236363A38923F02403B2
:102C7000A3810023636023692360A38943F00803D1
:102C8000A38123694BB9A38903F42073B3F5007FB3
:102C900003D03046214600F09BF9A38913F00102CE
:102CA00005D00022A26062695242A26103E0990746
:102CB00058BF6269A26022694AB903F0800080B2FD
:102CC00030B143F04003A3814FF0FF3070BD0020CE
:102CD00070BD00BFF088FE1FA83F0008C83F000875
:102CE000E83F00088A892DE9F041054610070C46A7
:102CF00057D44B68002B02DC0B6C002B18DDE66A06
:102D0000B6B102F48052002392B22F682B600AB150
:102D1000626D10E0216A28460123B047411C02463B
:102D200009D12B683BB11D2B01D0162B47D12F6049
:102D30000020BDE8F081A3895B0705D56368D21A3E
:102D4000636B0BB1236CD21AE66A216A0023284612
:102D5000B047461CA38905D12A681AB11D2A01D0A3
:102D6000162A19D100226260D9042269226004D592
:102D7000421C01D12B6803B96065616B2F6000298B
:102D8000D6D004F14403994202D0284600F06EF9EF
:102D900000206063BDE8F08143F04003A381BDE8FB
:102DA000F0810F69002FC3D093070E6808BF4B69ED
:102DB0000F6018BF0023C7EB06088B6012E0A389E1
:102DC00043F04003A3814FF0FF30BDE8F081284677
:102DD000216AA66A3A464346B0470028EFDD074419
:102DE000C0EB0808B8F1000FF1DCA1E738B50B69BA
:102DF00005460C46DBB118B183690BB900F060F8E9
:102E00000C4B9C4201D16C6808E00B4B9C4201D1F9
:102E1000AC6803E0094B9C4208BFEC68B4F90C3085
:102E20002BB128462146BDE83840FFF75BBF0020A4
:102E300038BD00BFA83F0008C83F0008E83F0008B1
:102E4000014900F0A7B800BFED2D0008002310B520
:102E5000044603604360836081814366C2810361ED
:102E60004361836119465C300822FFF7E0FD054BA2
:102E70006362054BA362054BE362054B2462236347
:102E800010BD00BFB9370008DB3700081338000851
:102E90003738000870B568234D1E5D430E4605F1B6
:102EA000740100F027F9044640B1002180E8420097
:102EB0000C30A06005F16802FFF7B9FD204670BD37
:102EC000836910B5044633BB8364C3640365124B46
:102ED000124A1B688262984204BF0123836100F09A
:102EE0001FF86060204600F01BF8A060204600F04C
:102EF00017F80421E06000226068FFF7A7FFA068D0
:102F000009210122FFF7A2FFE06812210222FFF748
:102F10009DFF0123A36110BDA43F0008412E0008BE
:102F2000F8B51B4B1E68B369074613B93046FFF767
:102F3000C7FF4836B4687368013B04D4B4F90C5039
:102F400075B16834F8E733682BB938460421FFF7C8
:102F5000A1FF306008B13668ECE70C233B60F8BD98
:102F60004FF6FF73E3810123A38165662560A560A9
:102F7000656025616561A56104F15C002946082250
:102F8000FFF755FD6563A563A564E5642046F8BDBC
:102F9000A43F00082DE9F8438046894600F1480423
:102FA000002694B1A5686768013F0CD4AB89012B5A
:102FB00007D9B5F90E30013303D040462946C8473A
:102FC00006436835F0E72468EBE73046BDE8F88350
:102FD000F0B58B899D0791B006460C4626D4B1F911
:102FE0000E10002909DAA38913F0800F4FF00005B5
:102FF00014BF40274FF480670DE001AA00F042FCA7
:103000000028F0DB029D05F47045A5F500514D4206
:103010004D414FF480673046394600F06BF860B997
:10302000A3899A051DD443F00203A38104F1470349
:10303000236023610123636113E00B4BB362A38917
:10304000206043F08003A381206167614DB1304669
:10305000B4F90E1000F028FC18B1A38943F0010365
:10306000A38111B0F0BD00BF412E000830B500298A
:103070003DD051F8042C0B1F1D49002AB8BF9B18E6
:103080000A680C4612B95A600B6030BD93420DD2EB
:1030900019685818904201BF5A5852181A6042686D
:1030A0005A60236030BD994203D80A46516800290E
:1030B000F9D1146815199D420AD11B682344D01810
:1030C0008842136013D10868034413604B680DE015
:1030D00002D90C23036030BD1C681819884204BF54
:1030E00008684968596004BF00191860536030BD12
:1030F0000089FE1F70B5CC1C24F0030408340C2C8E
:1031000038BF0C24002C064603DA0C233360002061
:1031100070BD8C42F9D3204A136810461946A1B1FC
:103120000A68121B0ED40B2A03D90A608B188C5024
:103130001FE08B420DBF5A684A685A60026018BF90
:103140000B4616E00B464968E9E7144D2B681BB99E
:10315000304600F021FB28603046214600F01CFB81
:10316000421C0346D1D0C51C25F0030585420AD177
:103170001C6003F10B001A1D20F00700821A0AD010
:103180005142995070BD3046E91A00F005FB0130FC
:10319000BBD02B46ECE770BD0089FE1FFC88FE1FEC
:1031A0009368013B002B10B5936009DA9469A34240
:1031B00002DBCBB20A2B03D1BDE81040FFF7D2BC33
:1031C0001368581C10601970C8B210BDF8B50646D7
:1031D0000F461446D518AC4208D0304614F8011BEF
:1031E0003A46FFF7DDFF431CF5D100E00020F8BDB3
:1031F0002DE9F0439DB00D4690460393064618B165
:1032000083690BB9FFF75CFE754B9D4201D1756870
:1032100008E0744B9D4201D1B56803E0724B9D42BA
:1032200008BFF568AB891C070AD52B6943B1002399
:10323000099320238DF8293030238DF82A3041E07E
:1032400030462946FFF7E2FC0028F0D04FF0FF306F
:10325000C2E0039A111D12680391002ABBBF5242BB
:1032600043F0020307920792B8BF04930134237816
:103270002E2B7BD0DFF8808121784046032200F09E
:1032800035FB38B1049AC8EB000040238340134358
:1032900004930134217855488DF82810062204F152
:1032A000010800F023FB002800F08580504B002B24
:1032B00078D1039B073323F0070308330393099B5B
:1032C0003B44099343461C4613F8012B1AB9B4EB4F
:1032D00008090ED002E0252AF5D1F8E73046294644
:1032E00042464B46FFF772FF013070D0099B4B44BA
:1032F00009932378002B6AD000234FF0FF32049308
:103300000793059206938DF853301A9304F1010840
:103310004446DFF8E89021784846052200F0E6FAB6
:1033200008F10108049B30B1C9EB00000122824082
:1033300013430493ECE7D80644BF20228DF85320B2
:10334000190744BF2B228DF8532022782A2A80D0D7
:10335000079923461C4601332278303A092A03D8BC
:103360000A2000FB0121F5E7079180E763782A2B0B
:103370000AD1039B1A1D1B680392002BB8BF4FF0A4
:10338000FF330234059375E7611C00220C460131BE
:103390002378303B092B03D80A2000FB0232F5E7E3
:1033A000059267E703AB0093304604A92A46114B08
:1033B000AFF3008007E003AB0093304604A92A4630
:1033C0000C4B00F093F8421C07467FF478AFAB89B2
:1033D0005B063FF53BAF09981DB0BDE8F08300BF29
:1033E000A83F0008C83F0008E83F00081240000856
:1033F00000000000CD3100080E4000080840000821
:103400002DE9F84391461F468A680B69DDF8208054
:103410009342B8BF1346C9F8003091F843200646DE
:103420000C4612B10133C9F800302368990642BF37
:10343000D9F800300233C9F80030256815F00605C8
:103440001CD094F843302268003318BF0123920641
:103450001FD5E1185A1C302081F84300224494F80B
:10346000451082F84310023313E03046394604F128
:1034700019020123C047013007D00135E368D9F8AC
:1034800000209B1A9D42F0DBDBE74FF0FF30BDE8E8
:10349000F8833046394604F14302C0470130F4D086
:1034A0002268D9F80050E36802F00602042A08BF37
:1034B0005D1B2269A3680CBF25EAE57500259342D0
:1034C000C4BF9B1AED184FF00009A9450ADA30462F
:1034D000394604F11A020123C0470130D5D009F161
:1034E0000109F2E70020BDE8F88300002DE9FF4163
:1034F0000C461746227E6E2A984606460A9B01F124
:10350000430100F0A98012D8632A23D00AD8002AE8
:1035100000F0B680582A40F0C58084F84520DFF8D6
:10352000F8E151E0642A1ED0692A1CD0BAE0732A5F
:1035300000F0AA8009D86F2A2BD0702A40F0B28000
:10354000226842F02002226039E0752A21D0782AD0
:1035500035D0A7E01A68111D1960136884F842304D
:1035600004F14205A2E020681A6810F0800F03D031
:10357000101D1860136805E04506F9D5101D186088
:10358000B2F90030002B3BDA2D225B4284F8432055
:1035900036E020681A6810F0800F03D0101D186004
:1035A000136804E04006F9D5101D18601388227EC8
:1035B000DFF864E16F2A0CBF08220A221CE078229F
:1035C000DFF858E184F845202268186812F0800F6F
:1035D00000F104051D6001D0036802E05506FBD52B
:1035E0000388D00744BF42F0200222601BB9226842
:1035F00022F0200222601022002084F8430002E022
:10360000DFF814E10A226568A560002DA2BF2068DA
:1036100020F00400206003B965B10D46B3FBF2F061
:1036200002FB10331EF8033005F8013D0346002865
:10363000F4D100E00D46082A0BD12368DA0708D53B
:10364000236962689A42DEBF302305F8013C05F128
:10365000FF35491B21612EE025681A68606915F065
:10366000800F03D0151D1D60136808E015F0400F92
:1036700002F104051D60136801D0188000E0186095
:10368000002323610D4616E01A68111D19601568A4
:1036900062682846002100F029F908B1401B6060EB
:1036A000636804E004F1420584F8422001232361A9
:1036B000002384F84330CDF800803046214603AA29
:1036C0003B46FFF79DFE013002D14FF0FF301FE077
:1036D000304639462A462369C0470130F5D0236871
:1036E0009B0705D4E068039B9842B8BF18460FE0DB
:1036F0000025E368039A9B1A9D42F3DA3046394667
:1037000004F119020123C0470130DED00135F0E792
:1037100004B0BDE8F08100BF194000082A4000084D
:1037200070B50E461446054618B183690BB9FFF70C
:10373000C7FB164B9C4201D16C6808E0144B9C42BD
:1037400001D1AC6803E0134B9C4208BFEC68A3684E
:10375000013B002BA36011DAA269934207DB2368C7
:103760001E70236819780A290BD1284601E02846E3
:1037700031462246BDE87040FFF7F4B923681E7059
:1037800023685A1C2260187870BD00BFA83F00084B
:10379000C83F0008E83F000838B5064C002305463E
:1037A00008462360FDF776FF431C02D1236803B16E
:1037B0002B6038BDB889FE1F10B50C46B1F90E104C
:1037C00000F0A4F80028ABBF636DA3891B1823F495
:1037D0008053ACBF6365A38110BD2DE9F0411D4648
:1037E0008B89DB0507460C46164605D5B1F90E1048
:1037F0000022022300F068F8A389B4F90E1023F424
:103800008053A381384632462B46BDE8F04100F094
:1038100017B810B50C46B1F90E1000F055F8431C5E
:10382000A38915BF606523F4805343F48053A381BB
:1038300018BFA38110BDB1F90E1000F013B800003D
:1038400038B5074C054600202060084611461A4648
:1038500000F067F9431C02D1236803B12B6038BD27
:10386000B889FE1F38B5064C00230546084623607C
:1038700000F086F9431C02D1236803B12B6038BDE8
:10388000B889FE1F38B5074C002305460846114687
:10389000236000F0BAF9431C02D1236803B12B6006
:1038A00038BD00BFB889FE1F38B5064C0023054659
:1038B0000846236000F0B7F9431C02D1236803B126
:1038C0002B6038BDB889FE1F38B5074C054600206F
:1038D0002060084611461A4600F011F9431C02D137
:1038E000236803B12B6038BDB889FE1F10B5C9B27B
:1038F00002449042034606D01C788C4200F101003D
:10390000F7D1184610BD002010BD000038B5074C97
:10391000054600202060084611461A4600F098F837
:10392000431C02D1236803B12B6038BDB889FE1F48
:103930000A4B10B50446186818B183690BB9FFF734
:10394000BFFA132C07D8064850F83430013302D0A0
:1039500000EBC40010BD002010BD00BFF088FE1FAA
:103960001089FE1FF8B50546FFF72AF8002706461E
:10397000132420463946ABBE044634602846F8BDC1
:10398000431C01D1FFF7EEBF704700002DE9FF4750
:10399000DFF89890CDF804904FF003080023CDF89D
:1039A0000C800124029301AF20463946ABBE054688
:1039B0001A4ECDF804900423CDF80C8035600293A4
:1039C00020463946ABBE8246154DCDF804900823FB
:1039D000CDF80C80C5F800A0029320463946ABBE56
:1039E0000446104A1460013404BF2B6813600021A0
:1039F0000D4B4FF0FF3043F8310001311429F7D15E
:103A00003168286812681960002159609860D9608F
:103A10001A61596104B0BDE8F08700BF0889FE1F34
:103A20000489FE1F0C89FE1F1089FE1F3B40000801
:103A300030B585B001AD0190029103920624204675
:103A40002946ABBE04462046FFF79AFF05B030BDBD
:103A500070B50E461546FFF76BFF044630B9FEF70A
:103A6000AFFF092303604FF0FF3070BD31462A4697
:103A70000068FFF7DDFF431C1FBF6368281A1B188F
:103A8000636070BDF7B50C461646FFF751FF05465B
:103A900018B9FEF795FF092304E0022E06D9FEF7B8
:103AA0008FFF162303604FF0FF3026E0012E03D175
:103AB0004368E41811D5F2E7022E0ED102AF036875
:103AC00047F8083D0C2630463946ABBE0646304620
:103AD000FFF756FF431CE6D004442B686F468DE881
:103AE00018000A2630463946ABBE06463046FFF778
:103AF00047FF0028D7DB6C60204603B0F0BDFFF71E
:103B0000C1BF30B585B001AD01900291039205248B
:103B100020462946ABBE04462046FFF731FF05B0DC
:103B200030BD70B50E461546FFF702FF044620B9BA
:103B3000FEF746FF0923036011E02A46006831467C
:103B4000FFF7DFFF021E0ADB6368A81A03449542F1
:103B5000636006D10020BDE87040FFF703BF4FF05F
:103B6000FF3070BD37B502AD022445F8040D204684
:103B70002946ABBE04462046FFF702FF03B030BD26
:103B800038B50546FFF7D4FE044630B9FEF718FFF6
:103B9000092303604FF0FF3038BD013D012D09D8E6
:103BA000084B9A681B699A4204D14FF0FF330360B7
:103BB000002038BD2068FFF7D5FF10B94FF0FF3364
:103BC000236038BD1089FE1F70B50C46FFF7B0FEAC
:103BD000064630B9FEF7F4FE092303604FF0FF30CC
:103BE00070BD636843F4005363604FF48063E36225
:103BF0000C2528463146ABBE05462846FFF7C0FED9
:103C0000431C1CBF2061002070BD38B53C22054616
:103C10000C4608460021FEF70AFF28462146BDE86B
:103C20003840FFF7D1BF70B5FFF782FE0925044683
:103C300018B9FEF7C5FE05600FE028462146ABBE69
:103C40000446012C09D0FEF7BBFE002406461325CE
:103C500028462146ABBE05463560204670BD0000B3
:103C60000044950890D00300401F010000000000B0
:103C70008488FE1F00420148603C00086C3C00083C
:103C80000000000000000000000000000085024865
:103C9000800000000000010000000000070000009C
:103CA00030020101000001000000000000000100DE
:103CB0000201010144415645204150507320696E74
:103CC000697469616C697A6174696F6E2066616993
:103CD0006C6564004E6F646530204E43523D307811
:103CE0002530386C5820204E4254523D30782530D3
:103CF000386C5820204E53523D30782530386C585F
:103D00000A0000004D4F3028545829204D4F53547D
:103D100041543D30782530386C5820204C4953545C
:103D20003D256C750A0000004D4F3128525829205E
:103D30004D4F535441543D30782530386C58202035
:103D40004C4953543D256C750A0000004D6F726557
:103D50006C6C6520424D53206D6F6E69746F7220DC
:103D6000737461727465642028323530206B627020
:103D7000732043414E2C2062617474657279206116
:103D800064647220307825303258290A000000001F
:103D90000A3D3D3D3D3D3D3D3D3D3D20424D532095
:103DA000506F6C6C203D3D3D3D3D3D3D3D3D3D00FA
:103DB0005B307839345D2053746174757320496EBB
:103DC000666F3A2043656C6C733D25752020546501
:103DD0006D702073656E736F72733D25750A0000F8
:103DE0002D000000000000005B307839305D20506D
:103DF00061636B20546F74616C733A205061636B24
:103E00003D256C752E256C75562020493D25732562
:103E10006C752E256C75412020536F433D256C75C4
:103E20002E256C7525250A004453470049444C450E
:103E300000000000434847005B307839335D205371
:103E4000746174653A20257320204368674D4F5391
:103E50003A20257520204473674D4F533A2025752D
:103E6000202052656D3A20256C75206D41680A004E
:103E70005B307839315D204D61783A202575206DB1
:103E800056202863656C6C2025752920204D696EAD
:103E90003A202575206D56202863656C6C202575A9
:103EA000290A00005B307839325D204D61783A2074
:103EB00025642043202873656E736F722025752951
:103EC00020204D696E3A2025642043202873656EBA
:103ED000736F72202575290A000000005B30783965
:103EE000355D2043656C6C206D563A0020257500C9
:103EF0005B307839365D2054656D707320433A002D
:103F0000202564005B307839375D2042616C616E3A
:103F10006365206D61736B3A20253032582025305F
:103F2000325820253032580A000000003C464155E6
:103F30004C543E004F4B00005B307839385D2025F3
:103F40003032582025303258202530325820253044
:103F50003258202530325820253032582025303232
:103F6000582025303258202025730A000D04000007
:103F70000044950890D00300401F01005B52585D3B
:103F80002054494D454F555420286E6F207265735B
:103F9000706F6E7365206672616D652900000000A8
:103FA000430000009088FE1F000000000000000099
:103FB0000000000000000000000000000000000001
:103FC00000000000000000000000000000000000F1
:103FD00000000000000000000000000000000000E1
:103FE00000000000000000000000000000000000D1
:103FF00000000000000000000000000000000000C1
:104000000000000000000000232D302B2000686C11
:104010004C006566674546470030313233343536EB
:104020003738394142434445460030313233343524
:1040300036373839616263646566003A747400002B
:104040000050014840020078FF07002008000000EF
:10405000000000000000000001000000000000005F
:104060000088FE1F000000000000000000010000AA
:10407000000000000000000020500148024090783D
:1040800000FF003F080000000000000000000000EA
:1040900000000000000000003888FE1F0000000043
:1040A000000000000001010000000000000000000E
:1040B0008488FE1F2088FE1F5888FE1F7118000884
:1040C000703C0008004495080040014801000000D1
:1040D00000000000A83F0008C83F0008E83F0008B3
:1040E00000000000000000000000000000000000D0
:1040F000A03F0008000000000000000000000000D9
:1041000000000000000000000000000000000000AF
:10411000000000000000000000000000000000009F
:10412000000000000000000000000000000000008F
:044130009088FE1F56
:0400000508000201EC
:00000001FF
