:020000040C00EE
:100000000088FE1F010200089902000899020008FA
:1000100099020008990200089902000800000000F7
:10002000000000000000000000000000990200082D
:1000300099020008000000009902000899020008D7
:100040009902000899020008990200089902000824
:100050009902000899020008990200089902000814
:1000600099020008000000000000000000000000ED
:100070009902000800000000990200089902000897
:1000800099020008990200089902000899020008E4
:1000900099020008990200089902000899020008D4
:1000A00099020008990200089902000899020008C4
:1000B00099020008990200089902000899020008B4
:1000C00099020008990200089902000899020008A4
:1000D0009902000899020008990200089902000894
:1000E0009902000899020008990200089902000884
:1000F0009902000899020008990200089902000874
:100100009902000899020008990200089902000863
:100110009902000899020008990200089902000853
:100120009902000899020008990200089902000843
:100130009902000899020008990200089902000833
:100140009902000899020008990200089902000823
:100150009902000899020008990200089902000813
:10016000000000000000000000000000000000008F
:1001700099020008990200089902000899020008F3
:1001800099020008990200089902000899020008E3
:1001900099020008990200089902000899020008D3
:1001A00099020008990200089902000899020008C3
:1001B00099020008990200089902000899020008B3
:1001C00099020008990200089902000899020008A3
:1001D0009902000899020008990200080000000036
:1001E0009902000899020008990200089902000883
:1001F0009902000899020008990200080000000016
:10020000DFF874D01D4880471D4C1E4DAC4209DA02
:1002100021686268A368043BA2BFC858D050FAE7BF
:100220000C34F3E7184B194CA34208DA19685A68E2
:100230000020043AA4BF8850FBE70833F4E71448D1
:1002400080471448804700002008000C0088FE1FEB
:10025000000000002008000C0088FE1F00000000C5
:100260000088FE1F000000000000002000000000C9
:1002700000000020000000000088FE1F0D0600089E
:1002800048020008600200086002000878020008C6
:10029000AD0700081D070008FEE7000082B000233C
:1002A0000193019B834203D200BF019B0133F7E717
:1002B00002B0704772B60D4B0D4A9A60BFF34F8F74
:1002C00062B6D3F888200B4942F47002C3F8882044
:1002D0005A6922F008025A6141F214028B5823F045
:1002E0000F0343F004038B50704700BF00ED00E0A4
:1002F000000000080010005800487047001BB700BD
:100300001D4BDB68D90310B525D51C4BDA6812F0FC
:10031000010F1C4602D1FFF7EFFF00E018482268EA
:10032000164B520710D59A6899689B68C2F303620E
:10033000C3F30644531C04FB0333B0FBF3F0C1F3D7
:10034000062303FB000007E09B6803F07F030133F3
:10035000B0FBF3F000E00A48074AD368DBB2013390
:10036000B0FBF3F0136903F001030133B0FBF3F0CA
:10037000044B186010BD00BF0046005010470050ED
:1003800000366E01C0FF0320F8B58F4B1A68D40702
:100390000CD58E4B1A68900510D59A6842F40072FD
:1003A0009A6041F64C50FFF779FF07E05A6842F037
:1003B00001025A601A68D107FCD5EAE7844C854DE2
:1003C000636843F40023636040F6C410FFF766FFE0
:1003D000636823F4803323F0020363606B6813F0D7
:1003E000300F04D1636843F0010363601CE06B6865
:1003F00023F4702323F030036B60FFF77DFF6A68FE
:10040000754BB0FBF3F00138002342EA004068600E
:10041000E360636823F400336360236803F460736C
:10042000B3F5607FF9D1DDE72268694BD207FBD5D0
:100430005A6842F010025A60684A9A605A6842F05C
:1004400040025A605A6822F010025A605A6842F418
:1004500080225A6023685E4A5B07FBD5536823F00D
:100460000103536022685A4912F00102FAD15C4B31
:100470004FF00110D8605A611A611A625A62032261
:10048000DA61584A9A6101229A63574A9A624B6824
:1004900023F040034B60554B8B6023689F06FCD5CF
:1004A0004FF41660FFF7FAFE494B514A9A602368F1
:1004B0009E06FCD54FF46160FFF7F0FE444B4D4AB9
:1004C0009A6023689D06FCD54FF49650FFF7E6FE30
:1004D0003F4B494A9A6023689806FCD541F27070F8
:1004E000FFF7DCFE3A4B454A9A602368384E99067E
:1004F000FBD54FF4E150424F364DFFF7CFFE0523B9
:10050000FB60736923F4803323F0020373616B682B
:1005100013F0300F04D1636943F00103636124E0F9
:100520007268384B13402BB1736823F4803323F087
:10053000020373606B6823F4702323F030036B6055
:10054000FFF7DAFE6A68244BB0FBF3F0013842EAA9
:1005500000406860636823F400336360236803F439
:100560006073B3F5607FF9D1D5E72269184BD207E4
:10057000FBD55A6942F010025A61234A5A615A69FE
:1005800042F040025A615A6922F010025A615A69D7
:1005900042F480225A6123690D4A5B07FBD55369F7
:1005A00023F0010353612369094913F00103FAD1D0
:1005B0004A6922F040024A610822FA60084A536000
:1005C000FFF79EFEF8BD00BF0042005000440050FF
:1005D0001047005000470050A0252600002F0B01B7
:1005E000004600500500010003002001002F050116
:1005F000002F0301002F0201002F0101002F000135
:1006000060410050020001000063000238B5094A51
:10061000094D4FF00054234603CBAB4210605160AC
:100620001C4602F10802F6D1FFF744FEFFF7ACFECC
:1006300038BD00BFC4FF03201000002001F0FC0300
:100640000344F0B501F003041E69E400F825A54059
:1006500026EA05051D61466F4F000325BD4026EAC9
:1006600005054567164DA84203D005F58075A842DB
:1006700007D1056E012606FA01F125EA010101669E
:1006800018E092F90050002D14DA55688D4045604D
:10069000CD0800EB850001F00701066C89000725F5
:1006A0008D4026EA05050564167A056C06FA01F107
:1006B0002943016412781969A2400A431A61F0BD06
:1006C000008E0248436F490010B503248C4023EA92
:1006D00004034367436F8A401343436710BD704769
:1006E00010B50446221D217C0068FFF7A7FF206893
:1006F000217C627CFFF7E6FF002010BD08B50548AD
:10070000FFF7EEFF20B90448BDE80840FFF7E8BF57
:1007100008BD00BFF80700080C08000838B5FFF74F
:10072000EDFF00B1FEE71D4B1A7C1C684FF0011372
:1007300093401B4A157C10684FF480310122AA4077
:10074000A940DFED186A6360B7EE007A76EE876A3B
:10075000DFED157AF4EEE76AF1EE10FAF4D4DFED8E
:10076000116A636076EE876AF4EEE76AF1EE10FADA
:10077000F8D4DFED0C6A426076EE876AF4EEE76A41
:10078000F1EE10FAF8D4DFED076A416076EE876A81
:10079000F4EEE76AF1EE10FAF8D4D2E7F8070008B1
:1007A0000C080008000000004054094B70B50E4BC7
:1007B0000E4CE41AA41000251E46A54204D056F89B
:1007C000253098470135F8E7FFF789FF084C094BBA
:1007D000E41AA41000251E46A54204D056F8253080
:1007E00098470135F8E770BD0088FE1F0088FE1F9E
:1007F0000088FE1F0088FE1F008402488000000061
:100800000000010000000000000000000084024819
:100810008000000000000100000000000100000056
:0400000508000201EC
:00000001FF
