:020000040C00EE
:100000000088FE1F010200089902000899020008FA
:1000100099020008990200089902000800000000F7
:10002000000000000000000000000000990200082D
:1000300099020008000000009902000899020008D7
:100040009902000899020008990200089902000824
:100050009902000899020008990200089902000814
:1000600099020008000000000000000000000000ED
:100070009902000800000000990200089902000897
:1000800099020008990200089902000899020008E4
:1000900099020008990200089902000899020008D4
:1000A00099020008990200089902000899020008C4
:1000B00099020008990200089902000899020008B4
:1000C00099020008990200089902000899020008A4
:1000D0009902000899020008990200089902000894
:1000E0009902000899020008990200089902000884
:1000F0009902000899020008990200089902000874
:100100009902000899020008990200089902000863
:100110009902000899020008990200089902000853
:100120009902000899020008990200089902000843
:100130009902000899020008990200089902000833
:100140009902000899020008990200089902000823
:100150009902000899020008990200089902000813
:10016000000000000000000000000000000000008F
:1001700099020008990200089902000899020008F3
:1001800099020008990200089902000899020008E3
:1001900099020008990200089902000899020008D3
:1001A00099020008990200089902000899020008C3
:1001B00099020008990200089902000899020008B3
:1001C00099020008990200089902000899020008A3
:1001D0009902000899020008990200080000000036
:1001E0009902000899020008990200089902000883
:1001F0009902000899020008990200080000000016
:10020000DFF874D01D4880471D4C1E4DAC4209DA02
:1002100021686268A368043BA2BFC858D050FAE7BF
:100220000C34F3E7184B194CA34208DA19685A68E2
:100230000020043AA4BF8850FBE70833F4E71448D1
:1002400080471448804700009055000C0088FE1F2E
:100250008C0000009055000C0088FE1F000000007C
:100260008C88FE1FE002000000000020000000005B
:1002700000000020000000000088FE1F6903000845
:1002800048020008600200086002000878020008C6
:10029000F14F0008A54F0008FEE7000072B60D4BB5
:1002A0000D4A9A60BFF34F8F62B6D3F888200B498E
:1002B00042F47002C3F888205A6922F008025A6199
:1002C00041F214028B5823F00F0343F004038B50C8
:1002D000704700BF00ED00E000000008001000586B
:1002E0001D4BDB68D90310B525D51C4BDA6812F01D
:1002F000010F1C4602D104F003FE00E018482268FA
:10030000164B520710D59A6899689B68C2F303622E
:10031000C3F30644531C04FB0333B0FBF3F0C1F3F7
:10032000062303FB000007E09B6803F07F03013313
:10033000B0FBF3F000E00A48074AD368DBB20133B0
:10034000B0FBF3F0136903F001030133B0FBF3F0EA
:10035000044B186010BD00BF00460050104700500D
:1003600000366E01C0FF032038B5094A094D4FF031
:100370000054234603CBAB42106051601C4602F18F
:100380000802F6D1FFF78AFF04F0BEFD38BD00BFBA
:10039000C4FF032010000020ED4B1A88B3F894101E
:1003A000B3F89A00511AB3F912212DE9F04F5143D5
:1003B000B3F89660B3F8984040F6FF7291FBF2F103
:1003C000A3F8901159888E1BB3F914114E439988E4
:1003D00096FBF2F60C1BB3F91611A3F892614C438D
:1003E000D98894FBF2F4091AB3F91801A3F89441DF
:1003F0004143B3F89C0091FBF2F1A3F896111989DF
:10040000091AB3F91A014143B3F89E0091FBF2F1C6
:10041000A3F898115989091AB3F91C014143B3F89B
:10042000A00091FBF2F1A3F89A119989091AB3F986
:100430001E014143B3F8A20091FBF2F1A3F89C1115
:10044000D989091AB3F92001414391FBF2F1A3F8CC
:100450009E11198AB3F8A400091AB3F92201414385
:10046000B3F8A60091FBF2F1A3F8A011598A091A7A
:10047000B3F924014143B3F8A80091FBF2F1A3F8CA
:10048000A211998A091AB3F926014143B3F8AA00C7
:1004900091FBF2F1A3F8A411D98A091AB3F9280142
:1004A0004143B3F8AC0091FBF2F1A3F8A611198B0C
:1004B000091AB3F92A014143B3F8AE0091FBF2F1F6
:1004C000A3F8A811598B091AB3F92C014143B3F8C9
:1004D000B00091FBF2F1A3F8AA11998B091AB3F9B4
:1004E0002E014143B3F8B20091FBF2F1A3F8AC1135
:1004F000D98B091AB3F93001414391FBF2F1A3F80A
:10050000AE11198CB3F8B400091AB3F932014143A2
:10051000B3F8B60091FBF2F1A3F8B011598C091AA7
:10052000B3F934014143B3F8B80091FBF2F1A3F8F9
:10053000B211998C091AB3F936014143B3F8BA00E4
:1005400091FBF2F1A3F8B411D98C091AB3F938016F
:100550004143B3F8BC0091FBF2F1A3F8B611198D39
:10056000091AB3F93A014143B3F8BE0091FBF2F125
:10057000A3F8B811598D091AB3F93C014143B3F8F6
:10058000C00091FBF2F1A3F8BA11998D091AB3F9E1
:100590003E014143B3F8C20091FBF2F1A3F8BC1154
:1005A000D98D091AB3F940014143B3F8C40091FB56
:1005B000F2F1A3F8BE11198E091AB3F94201B3F88A
:1005C000C6E0B3F8CA70B3F8CC90B3F94A51B3F8A7
:1005D000D080B3F8D2C0414391FBF2F1A3F8C0112F
:1005E000598EB3F94401CEEB01014143B3F8C80081
:1005F00091FBF2FE998EA3F8C2E1091AB3F9460104
:100600004143D88E91FBF2F1C71BB3F94801A3F81F
:10061000C4114743188F97FBF2F7C9EB00006843FA
:10062000B3F8CE5090FBF2F9588FA3F8C671401B77
:10063000B3F94C51A3F8C89168439D8F90FBF2F039
:10064000C8EB0508B3F94E51A3F8CA0105FB08F839
:10065000DD8F98FBF2F8CCEB0505B3F950C1A3F898
:10066000CC810CFB05F5B3F8D4C095FBF2F5A3F8EB
:10067000CE51B3F84050CCEB0505B3F952C10CFB99
:1006800005F595FBF2F5A3F8D051B3F8D6C0B3F851
:100690004250CCEB0505B3F954C10CFB05F5B3F89A
:1006A000D8C095FBF2F5A3F8D251B3F84450CCEB87
:1006B0000505B3F956C10CFB05F5B3F8DAC095FB97
:1006C000F2F5A3F8D451B3F84650CCEB0505B3F9D5
:1006D00058C10CFB05F5B3F8DCC095FBF2F5A3F8A7
:1006E000D651B3F84850CCEB0505B3F95AC10CFB11
:1006F00005F5B3F8DEC095FBF2F5A3F8D851B3F8D1
:100700004A50CCEB0505B3F95CC10CFB05F5B3F819
:10071000E0C095FBF2F5A3F8DA51B3F84C50CCEBFE
:100720000505B3F95EC10CFB05F5B3F8E2C095FB16
:10073000F2F5A3F8DC51B3F84E50CCEB0505B3F954
:1007400060C10CFB05F5B3F8E4C095FBF2F501E0E0
:100750008C88FE1FA3F8DE51B3F85050CCEB050592
:10076000B3F962C10CFB05F595FBF2F5A3F8E05176
:10077000B3F85250B3F8E6C0B3F8ECA0B3F8EEB05B
:10078000CCEB0505B3F964C10CFB05F5B3F8E8C083
:1007900095FBF2F5A3F8E251B3F85450CCEB050504
:1007A000B3F966C10CFB05F5B3F8EAC095FBF2F5A9
:1007B000A3F8E451B3F85650CCEB050CB3F96851EB
:1007C00005FB0CFCB3F858509CFBF2FCCAEB05058A
:1007D000B3F96AA1A3F8E6C10AFB05F5B3F85AA07C
:1007E00095FBF2F5CBEB0A0AB3F96CB1A3F8E8512B
:1007F0000BFB0AFAB3F8F0B09AFBF2FAA3F8EAA1FD
:10080000B3F85CA0CBEB0A0AB3F96EB10BFB0AFAA2
:10081000B3F8F2B09AFBF2FAA3F8ECA1B3F85EA039
:10082000CBEB0A0AB3F970B10BFB0AFAB3F8F4B0D8
:100830009AFBF2FAA3F8EEA1B3F860A0CBEB0A0A98
:10084000B3F972B10BFB0AFAB3F8F6B09AFBF2FAFD
:10085000A3F8F0A1B3F862A0CBEB0A0AB3F974B124
:100860000BFB0AFAB3F8F8B09AFBF2FAA3F8F2A17C
:10087000B3F864A0CBEB0A0AB3F976B10BFB0AFA22
:10088000B3F8FAB09AFBF2FAA3F8F4A1B3F866A0B1
:10089000CBEB0A0AB3F978B10BFB0AFAB3F8FCB058
:1008A0009AFBF2FAA3F8F6A1B3F868A0CBEB0A0A18
:1008B000B3F97AB10BFB0AFAB3F8FEB09AFBF2FA7D
:1008C000A3F8F8A1B3F86AA0CBEB0A0AB3F97CB19C
:1008D0000BFB0AFAB3F800B19AFBF2FAA3F8FAA1FB
:1008E000B3F86CA0CBEB0A0AB3F97EB10BFB0AFAA2
:1008F000B3F802B19AFBF2FAA3F8FCA1B3F86EA028
:10090000CBEB0A0AB3F980B10BFB0AFAB3F804B1D6
:100910009AFBF2FAA3F8FEA1B3F870A0CBEB0A0A97
:10092000B3F982B10BFB0AFAB3F806B19AFBF2FAFB
:10093000A3F800A2B3F872A0CBEB0A0AB3F984B112
:100940000BFB0AFA9AFBF2FAA3F802A2B3F808B179
:10095000B3F874A0CBEB0A0AB3F986B10BFB0AFA21
:10096000B3F80AB19AFBF2FAA3F804A2B3F876A09E
:10097000CBEB0A0AB3F988B10BFB0AFAB3F80CB156
:100980009AFBF2FAA3F806A2B3F878A0CBEB0A0A16
:10099000B3F98AB10BFB0AFAB3F80EB19AFBF2FA7B
:1009A000A3F808A2B3F87AA0CBEB0A0AB3F98CB18A
:1009B0000BFB0AFAB3F810B19AFBF2FAA3F80AA2F9
:1009C000B3F87CA04844CBEB0A0B7144B3F98EA179
:1009D00040446544394434440AFB0BFAA3F80E0240
:1009E0009AFBF2F2A3F81052A3F80C22A3F8121209
:1009F000A3F81442BDE8F08F70B5244C244E204675
:100A000000214FF4377204F019FB022384F883307D
:100A10000125736884F887501868A4F8CE52A4F8AA
:100A2000D05200230376C37943F02003C371436897
:100A30004FF4404262F31C03436083684FF47F42EB
:100A400062F31C0383601B0E43F020030824C3726F
:100A5000047304F0BDF9B3680E4A1868C3790473CF
:100A600043F02003C3714368057662F31C034360BF
:100A700083686FF0604262F31C0383601B0E43F0D7
:100A80002003C372BDE8704004F0A2B98C88FE1F39
:100A90007088FE1FC0A00010EB4B5B682DE9F04F83
:100AA000D3F80080D8F800A0DAF81C3013F00C0F4F
:100AB00087B002F05584D8F810300093D8F814406D
:100AC0000099009A9DF800508DF808504FEA144B99
:100AD000080EE6B2210A240E8DF80F400124CAF850
:100AE0001C40D8F804408DF80EB0C4F31C081B0A53
:100AF0004FEA124C4FEA184A4FEA98675FFA83FEB2
:100B00005FFA8CF25FFA80F95FFA88FB8DF809E0F2
:100B10008DF80A208DF80B908DF80C608DF80D1073
:100B2000CAF3090401974FF0000802AF17F80870E4
:100B3000002F41F0618508F10108B8F1060FF4D1EA
:100B40000BE0B4F5FC7F41F08085C04991F8D212EA
:100B50000F0702F1EC83FFF71FFCBC4A002305934B
:100B60000493B2F8D832612C4FEA1326DFB203F1B6
:100B70000103A2F8D8328DF817608DF8167013466D
:100B800001F0DD8000F23982332C00F08B8600F218
:100B90001981132C00F08C8500F28380092C00F061
:100BA000F08440D8042C00F0A58421D8012C00F05A
:100BB0007384C0F05A84022C00F08584032C41F029
:100BC000D884528A8DF81020C2F303228DF81120A8
:100BD0009A8ADB8A8DF812208DF81430C2F3032232
:100BE000C3F303238DF813208DF8153001F0C1BC39
:100BF000062C00F0A684C0F09484072C00F0B18489
:100C0000082C41F0B684528D9B8D8DF810208DF804
:100C10001230C2F30322C3F303238DF811208DF8A1
:100C2000133001F0A6BC0E2C00F0FA841CD80B2C5B
:100C300000F0CE84C0F0B5840C2C00F0E0840D2CC4
:100C400041F09784B2F84220B3F844308DF8102078
:100C50008DF81230C2F30322C3F303238DF8112061
:100C60008DF8133001F085BC102C00F0FD84C0F02D
:100C7000E984112C00F00A85122C41F07A84B2F834
:100C80005620B3F858308DF810208DF81230C2F38A
:100C90000322C3F303238DF811208DF8133001F0E4
:100CA00068BC1D2C00F0A28539D8182C00F058859E
:100CB0001CD8152C00F02885C0F00C85162C00F0EF
:100CC0003D85172C41F05584B2F86E20B3F8703092
:100CD0008DF810208DF81230C2F30322C3F30323E2
:100CE0008DF811208DF8133001F043BC1A2C00F060
:100CF0005B85C0F047851B2C00F06A851C2C41F0F9
:100D0000388492F881208DF8102093F8822093F88F
:100D100083308DF811208DF8123001F02ABC222C7E
:100D200000F08C851CD81F2C00F07485C0F06885FD
:100D3000202C00F07585212C41F01B8492F88C202A
:100D40008DF8102093F88D208DF8112093F88E20C7
:100D500093F88F308DF812208DF8133001F009BC14
:100D6000302C00F0718510D8232C41F0028492F8C9
:100D700091208DF8102093F8922093F893308DF8FD
:100D800011208DF8123001F0F4BB312C00F0738586
:100D9000322C41F0EE83B2F8A0208DF81020120A18
:100DA0008DF81120B3F8A220B3F8A4308DF81220EA
:100DB0008DF81430120A1B0A8DF813208DF81530A7
:100DC00001F0D7BB472C00F097867BD83D2C00F074
:100DD00005863DD8382C00F0B3851AD8352C00F0A4
:100DE0008F85C0F07685362C00F09A85372C41F03F
:100DF000C083B2F8BA20B3F8BC308DF810208DF85B
:100E00001230120A1B0A8DF811208DF8133001F0F0
:100E1000B0BB3A2C00F0B485C0F0A2853B2C00F0AA
:100E2000C6853C2C41F0A583B2F8D220B3F8D4306B
:100E30008DF810208DF81230120A1B0A8DF811203F
:100E40008DF8133001F095BB7088FE1F8C88FE1F53
:100E5000422C00F003861AD83F2C00F0DF85C0F04A
:100E6000CD85402C00F0EA85412C41F08283B2F818
:100E7000E620B3F8E8308DF810208DF81230120A11
:100E80001B0A8DF811208DF8133001F072BB442C31
:100E900000F00486C0F0F285452C00F01686462C42
:100EA00041F06783B2F8FE20B3F800318DF81020CE
:100EB0008DF81230120A1B0A8DF811208DF81330AC
:100EC00001F057BB562C00F0B38640D8512C00F0EF
:100ED000538621D8492C00F02F86C0F01D864A2C5D
:100EE00000F03A86502C41F04483B2F812218DF87C
:100EF0001020120A8DF81120B3F81421B3F816311E
:100F00008DF812208DF81430120A1B0A8DF8132068
:100F10008DF8153001F02DBB532C00F05B86C0F02E
:100F20004286542C00F06D86552C41F02283B2F895
:100F30003021B3F832318DF810208DF81230120ABA
:100F40001B0A8DF811208DF8133001F012BB5B2CB9
:100F500000F0AE8621D8582C00F08A86C0F0788642
:100F6000592C00F095865A2C41F00383B2F84421A5
:100F70008DF81020120A8DF81120B3F84621B3F82D
:100F800048318DF812208DF81430120A1B0A8DF8A2
:100F900013208DF8153001F0ECBA5E2C00F0AF860E
:100FA00015D85C2C00F09B865D2C41F0E282B2F8F3
:100FB0005421B3F856318DF810208DF81230120AF2
:100FC0001B0A8DF811208DF8133001F0D2BA5F2C76
:100FD00000F0A586602C41F0CC82B2F86021B3F815
:100FE00062318DF810208DF81230120A1B0A8DF82C
:100FF00011208DF8133001F0BCBAA82C01F0B0809C
:1010000000F214817A2C00F0AE8700F28680702CFA
:1010100000F0158740D8662C00F0D58621D8632CC7
:1010200000F0AC86C0F09B86642C00F0B686652C80
:1010300041F09F82B2F876218DF81020120A8DF8C7
:101040001120B3F87821B3F87A318DF812208DF899
:101050001430120A1B0A8DF813208DF8153001F098
:1010600088BA682C00F0CD86C0F0BC86692C00F0F0
:10107000D7866A2C41F07D82B2F88C21B3F88E318C
:101080008DF810208DF81230120A1B0A8DF81120ED
:101090008DF8133001F06DBA752C00F0288721D837
:1010A000722C00F0F886C0F0E086732C00F00987FF
:1010B000742C41F05E82B2F8A8218DF81020120A3B
:1010C0008DF81120B3F8AA21B3F8AC318DF81220B5
:1010D0008DF81430120A1B0A8DF813208DF8153084
:1010E00001F047BA772C00F02087C0F00F87782CEA
:1010F00000F02A87792C41F03C82B2F8BE21B3F887
:10110000C0318DF810208DF81230120A1B0A8DF8AC
:1011100011208DF8133001F02CBA842C00F0A9872F
:1011200039D87F2C00F069871AD87C2C00F04787CB
:10113000C0F02F877D2C00F051877E2C41F0198262
:10114000B2F8D621B3F8D8318DF810208DF81230CE
:10115000120A1B0A8DF811208DF8133001F009BA1C
:10116000812C00F06887C0F05787822C00F07287CE
:10117000832C41F0FE81B2F8EA21B3F8EC318DF80E
:1011800010208DF81230120A1B0A8DF811208DF8EC
:10119000133001F0EEB9892C00F0B5871AD8862CEF
:1011A00000F09387C0F07B87872C00F09D87882C08
:1011B00041F0DF81B2F80222B3F804328DF810203A
:1011C0008DF81230120A1B0A8DF811208DF8133099
:1011D00001F0CFB9902C00F0A58712D88A2C41F0ED
:1011E000C881B2F80A22B3F80C328DF810208DF8BD
:1011F0001230120A1B0A8DF811208DF8133001F0FD
:10120000B8B9912C00F0A487A02C41F0B281D2F89B
:1012100018328DF810301A0A8DF811201A0C1B0E96
:101220008DF812208DF8133001F0A3B9C12C01F014
:10123000A08000F28680B72C01F01C8040D8B22C30
:1012400000F0C78721D8AA2C00F09C87C0F08D87BA
:10125000B02C00F0A887B12C41F08B81B2F82A2283
:101260008DF81020120A8DF81120B3F82C22B3F853
:101270002E328DF812208DF81430120A1B0A8DF8C8
:1012800013208DF8153001F074B9B42C00F0CD871F
:10129000C0F0B587B52C00F0DE87B62C41F069812F
:1012A000B2F84622B3F848328DF810208DF812308B
:1012B000120A1B0A8DF811208DF8133001F059B96C
:1012C000BC2C01F01A8021D8B92C00F0F187C0F0B5
:1012D000E087BA2C00F0FB87BB2C41F04A81B2F8C2
:1012E0005C228DF81020120A8DF81120B3F85E22CE
:1012F000B3F860328DF812208DF81430120A1B0AF0
:101300008DF813208DF8153001F033B9BE2C01F0A3
:101310001280C1F00180BF2C01F01C80C02C41F074
:101320002881B2F87222B3F874328DF810208DF84B
:101330001230120A1B0A8DF811208DF8133001F0BB
:1013400018B9CB2C01F0948040D8C62C01F0548001
:1013500021D8C32C01F02B80C1F01A80C42C01F0DD
:101360003580C52C41F00581B2F888228DF8102017
:10137000120A8DF81120B3F88A22B3F88C328DF856
:1013800012208DF81430120A1B0A8DF813208DF8E4
:10139000153001F0EEB8C82C01F04C80C1F03B8054
:1013A000C92C01F05680CA2C41F0E380B2F89E228D
:1013B000B3F8A0328DF810208DF81230120A1B0AF3
:1013C0008DF811208DF8133001F0D3B8D02C01F036
:1013D000A0801AD8CD2C01F07080C1F05F80CE2C97
:1013E00001F08180CF2C41F0C480B2F8B822B3F86C
:1013F000BA328DF810208DF81230120A1B0A8DF8BF
:1014000011208DF8133001F0B4B8D92C01F096807A
:101410000DD8D12C01F08580D82C41F0AA80EB4B5F
:1014200018689B880490ADF8143001F0A2B8B4F5A8
:10143000FC7F01F09080B4F5FD7F41F09A8092F836
:10144000D2228DF8102093F8D3228DF8112093F832
:10145000D4228DF8122093F8D52293F8D6328DF845
:1014600013208DF8143001F084B812888DF8102004
:10147000C2F303228DF811205A889B888DF8122020
:101480008DF81430C2F30322C3F303238DF8132025
:101490008DF8153001F06DB8D2888DF81020C2F3A8
:1014A00003228DF811201A895B898DF812208DF89E
:1014B0001430C2F30322C3F303238DF813208DF8F5
:1014C000153001F056B892898DF81020C2F303222E
:1014D0008DF81120DA891B8A8DF812208DF81430CE
:1014E000C2F30322C3F303238DF813208DF81530C4
:1014F00001F03FB8138B8DF81030C3F303238DF840
:101500001130538B8DF81230C3F303238DF8133051
:10151000938B8DF81430C3F303238DF8153001F04D
:1015200028B8D28B1B8C8DF810208DF81230C2F3A6
:101530000322C3F303238DF811208DF8133001F03B
:1015400018B8528C9B8C8DF810208DF81230C2F395
:101550000322C3F303238DF811208DF8133001F01B
:1015600008B8D28C1B8D8DF810208DF81230C2F384
:101570000322C3F303238DF811208DF8133000F0FC
:10158000F8BFD38D8DF81030C3F303238DF81130DD
:10159000138E8DF81230C3F303238DF8133000F04F
:1015A000E8BF528E8DF81020C2F303228DF811206F
:1015B0009A8EDB8E8DF812208DF81430C2F3032240
:1015C000C3F303238DF813208DF8153000F0D1BF3D
:1015D000128F8DF81020C2F303228DF811205A8F3C
:1015E0009B8F8DF812208DF81430C2F30322C3F3C1
:1015F00003238DF813208DF8153000F0BABFD28F79
:10160000B3F840308DF810208DF81230C2F3032269
:10161000C3F303238DF811208DF8133000F0A9BF18
:10162000B2F846308DF81030C3F303238DF8113033
:10163000B2F848308DF81230C3F303238DF813301D
:1016400000F097BFB2F84A20B3F84C308DF8102064
:101650008DF81230C2F30322C3F303238DF8112057
:101660008DF8133000F085BFB2F84E20B3F850303B
:101670008DF810208DF81230C2F30322C3F3032338
:101680008DF811208DF8133000F073BFB2F852209E
:10169000B3F854308DF810208DF81230C2F30322C5
:1016A000C3F303238DF811208DF8133000F061BFD0
:1016B000B2F85A308DF81030C3F303238DF811308F
:1016C000B2F85C308DF81230C3F303238DF8133079
:1016D00000F04FBFB2F85E208DF81020C2F3032255
:1016E0008DF81120B3F86020B3F862308DF8122025
:1016F0008DF81430C2F30322C3F303238DF81320B3
:101700008DF8153000F035BFB2F864208DF8102048
:10171000C2F303228DF81120B3F86620B3F86830C5
:101720008DF812208DF81430C2F30322C3F3032383
:101730008DF813208DF8153000F01BBFB2F86A2029
:10174000B3F86C308DF810208DF81230C2F30322FC
:10175000C3F303238DF811208DF8133000F009BF77
:10176000B2F872308DF81030C3F303238DF81130C6
:10177000B2F874308DF81230C3F303238DF81330B0
:1017800000F0F7BEB2F87620B3F878308DF810206C
:101790008DF81230C2F30322C3F303238DF8112016
:1017A0008DF8133000F0E5BEB2F87A20B3F87C3043
:1017B0008DF810208DF81230C2F30322C3F30323F7
:1017C0008DF811208DF8133000F0D3BE518BFE1F21
:1017D00092F87E208DF8102093F87F2093F88030C7
:1017E0008DF811208DF8123000F0C3BE92F88430CD
:1017F0008DF8103092F885308DF8113000F0B9BEB8
:1018000092F8862093F887308DF810208DF81130EB
:1018100000F0AFBE92F888308DF8103000F0A9BE0D
:1018200092F889208DF8102093F88A2093F88B3055
:101830008DF811208DF8123000F09BBE92F8903098
:101840008DF8103000F095BEB2F894208DF810207D
:10185000120A8DF81120B3F89620B3F898308DF85D
:1018600012208DF81430120A1B0A8DF813208DF8FF
:10187000153000F07EBEB2F89A208DF81020120AC2
:101880008DF81120B3F89C20B3F89E308DF812200B
:101890008DF81430120A1B0A8DF813208DF81530BC
:1018A00000F067BEB2F8A6308DF810301B0A8DF834
:1018B0001130B2F8A8308DF812301B0A8DF81330B1
:1018C000B2F8AA308DF814301B0A8DF8153000F0EC
:1018D00050BEB2F8AC208DF81020120A8DF81120FD
:1018E000B3F8AE20B3F8B0308DF812208DF8143074
:1018F000120A1B0A8DF813208DF8153000F039BE3E
:10190000B2F8B220B3F8B4308DF810208DF8123050
:10191000120A1B0A8DF811208DF8133000F029BE31
:10192000B2F8B620B3F8B8308DF810208DF8123028
:10193000120A1B0A8DF811208DF8133000F019BE21
:10194000B2F8BE308DF810301B0A8DF81130B2F8A5
:10195000C0308DF812301B0A8DF8133000F009BE2C
:10196000B2F8C220B3F8C4308DF810208DF81230D0
:10197000120A1B0A8DF811208DF8133000F0F9BD02
:10198000B2F8C6208DF81020120A8DF81120B3F895
:10199000C820B3F8CA308DF812208DF81430120A1E
:1019A0001B0A8DF813208DF8153000F0E2BDB2F857
:1019B000CC208DF81020120A8DF81120B3F8CE201B
:1019C000B3F8D0308DF812208DF81430120A1B0AAB
:1019D0008DF813208DF8153000F0CBBDB2F8D6305D
:1019E0008DF810301B0A8DF81130B2F8D8308DF810
:1019F00012301B0A8DF8133000F0BBBDB2F8DA20AC
:101A0000B3F8DC308DF810208DF81230120A1B0A62
:101A10008DF811208DF8133000F0ABBDB2F8DE2048
:101A2000B3F8E0308DF810208DF81230120A1B0A3E
:101A30008DF811208DF8133000F09BBDB2F8E22034
:101A4000B3F8E4308DF810208DF81230120A1B0A1A
:101A50008DF811208DF8133000F08BBDB2F8EA300C
:101A60008DF810301B0A8DF81130B2F8EC308DF87B
:101A700012301B0A8DF8133000F07BBDB2F8EE2057
:101A8000B3F8F0308DF810208DF81230120A1B0ACE
:101A90008DF811208DF8133000F06BBDB2F8F220F4
:101AA0008DF81020120A8DF81120B3F8F420B3F845
:101AB000F6308DF812208DF81430120A1B0A8DF8BA
:101AC00013208DF8153000F054BDB2F8F8208DF8D1
:101AD0001020120A8DF81120B3F8FA20B3F8FC3068
:101AE0008DF812208DF81430120A1B0A8DF813207D
:101AF0008DF8153000F03DBDB2F802318DF8103090
:101B00001B0A8DF81130B2F804318DF812301B0A1F
:101B10008DF8133000F02DBDB2F80621B3F808316E
:101B20008DF810208DF81230120A1B0A8DF8112042
:101B30008DF8133000F01DBDB2F80A21B3F80C3156
:101B40008DF810208DF81230120A1B0A8DF8112022
:101B50008DF8133000F00DBDB2F80E21B3F810313E
:101B60008DF810208DF81230120A1B0A8DF8112002
:101B70008DF8133000F0FDBCB2F818318DF810303C
:101B80001B0A8DF81130B2F81A318DF812301B0A89
:101B90008DF81330B2F81C318DF814301B0A8DF813
:101BA000153000F0E6BCB2F81E218DF81020120AA4
:101BB0008DF81120B3F82021B3F822318DF81220CE
:101BC0008DF81430120A1B0A8DF813208DF8153089
:101BD00000F0CFBCB2F824218DF81020120A8DF845
:101BE0001120B3F82621B3F828318DF812208DF892
:101BF0001430120A1B0A8DF813208DF8153000F0EE
:101C0000B8BCB2F82A218DF81020120A8DF81120E4
:101C1000B3F82C21B3F82E318DF812208DF8143042
:101C2000120A1B0A8DF813208DF8153000F0A1BCA4
:101C3000B2F834318DF810301B0A8DF81130B2F83B
:101C400036318DF812301B0A8DF8133000F091BC3C
:101C5000B2F83821B3F83A318DF810208DF81230EF
:101C6000120A1B0A8DF811208DF8133000F081BC88
:101C7000B2F83C21B3F83E318DF810208DF81230C7
:101C8000120A1B0A8DF811208DF8133000F071BC78
:101C9000B2F84021B3F842318DF810208DF812309F
:101CA000120A1B0A8DF811208DF8133000F061BC68
:101CB000B2F84A318DF810301B0A8DF81130B2F8A5
:101CC0004C318DF812301B0A8DF81330B2F84E31BA
:101CD0008DF814301B0A8DF8153000F04ABCB2F8AC
:101CE0005021B3F852318DF810208DF81230120ABD
:101CF0001B0A8DF811208DF8133000F03ABCB2F8B1
:101D00005821B3F85A318DF810208DF81230120A8C
:101D10001B0A8DF811208DF8133000F02ABCB2F8A0
:101D20005C21B3F85E318DF810208DF81230120A64
:101D30001B0A8DF811208DF8133000F01ABCB2F890
:101D400064318DF810301B0A8DF81130B2F866310D
:101D50008DF812301B0A8DF8133000F00ABCB2F86F
:101D60006821B3F86A318DF810208DF81230120A0C
:101D70001B0A8DF811208DF81330FAE3B2F86C21AC
:101D8000B3F86E318DF810208DF81230120A1B0A4C
:101D90008DF811208DF81330EBE3B2F870218DF837
:101DA0001020120A8DF81120B3F87221B3F87431A3
:101DB0008DF812208DF81430120A1B0A8DF81320AA
:101DC0008DF81530D5E3B2F87C318DF810301B0A50
:101DD0008DF81130B2F87E318DF812301B0A8DF873
:101DE0001330C6E3B2F88021B3F882318DF81020A9
:101DF0008DF81230120A1B0A8DF811208DF813305D
:101E0000B7E3B2F88421B3F886318DF810208DF84D
:101E10001230120A1B0A8DF811208DF81330A8E336
:101E2000B2F88821B3F88A318DF810208DF812307D
:101E3000120A1B0A8DF811208DF8133099E3B2F8BD
:101E400090318DF810301B0A8DF81130B2F89231B4
:101E50008DF812301B0A8DF81330B2F894318DF8DA
:101E600014301B0A8DF8153083E3B2F896218DF8F3
:101E70001020120A8DF81120B3F89821B3F89A3186
:101E80008DF812208DF81430120A1B0A8DF81320D9
:101E90008DF815306DE3B2F89C218DF81020120AF0
:101EA0008DF81120B3F89E21B3F8A0318DF81220DF
:101EB0008DF81430120A1B0A8DF813208DF8153096
:101EC00057E3B2F8A2218DF81020120A8DF81120E4
:101ED000B3F8A421B3F8A6318DF812208DF8143090
:101EE000120A1B0A8DF813208DF8153041E3B2F861
:101EF000AE318DF810301B0A8DF81130B2F8B031C8
:101F00008DF812301B0A8DF8133032E3B2F8B2218B
:101F1000B3F8B4318DF810208DF81230120A1B0A74
:101F20008DF811208DF8133023E3B2F8B621B3F801
:101F3000B8318DF810208DF81230120A1B0A8DF876
:101F400011208DF8133014E3B2F8BA21B3F8BC3184
:101F50008DF810208DF81230120A1B0A8DF811200E
:101F60008DF8133005E3B2F8C2318DF810301B0A3A
:101F70008DF81130B2F8C4318DF812301B0A8DF88B
:101F80001330B2F8C6318DF814301B0A8DF81530B5
:101F9000EFE2B2F8C8218DF81020120A8DF8112056
:101FA000B3F8CA21B3F8CC318DF812208DF8143073
:101FB000120A1B0A8DF813208DF81530D9E2B2F8F9
:101FC000CE21B3F8D0318DF810208DF81230120ADE
:101FD0001B0A8DF811208DF81330CAE2B2F8D22115
:101FE000B3F8D4318DF810208DF81230120A1B0A84
:101FF0008DF811208DF81330BBE2B2F8DA318DF88C
:1020000010301B0A8DF81130B2F8DC318DF8123027
:102010001B0A8DF81330ACE2B2F8DE21B3F8E031E0
:102020008DF810208DF81230120A1B0A8DF811203D
:102030008DF813309DE2B2F8E221B3F8E4318DF867
:1020400010208DF81230120A1B0A8DF811208DF81D
:1020500013308EE2B2F8E621B3F8E8318DF81020A3
:102060008DF81230120A1B0A8DF811208DF81330EA
:102070007FE2B2F8EE318DF810301B0A8DF8113086
:10208000B2F8F0318DF812301B0A8DF81330B2F827
:10209000F2318DF814301B0A8DF8153069E2B2F870
:1020A000F4218DF81020120A8DF81120B3F8F621D2
:1020B000B3F8F8318DF812208DF81430120A1B0A8B
:1020C0008DF813208DF8153053E2B2F8FA21B3F8E9
:1020D000FC318DF810208DF81230120A1B0A8DF891
:1020E00011208DF8133044E2B2F8FE21B3F800322B
:1020F0008DF810208DF81230120A1B0A8DF811206D
:102100008DF8133035E2B2F806328DF810301B0A24
:102110008DF81130B2F808328DF812301B0A8DF8A4
:10212000133026E2B2F80E228DF81020120A8DF834
:102130001120B3F81022B3F812328DF812208DF866
:102140001430120A1B0A8DF813208DF8153010E296
:10215000B2F814328DF810301B0A8DF8113008E2F5
:1021600092F81C328DF8103003E292F81D228DF89F
:10217000102093F81E2293F81F328DF811208DF84D
:102180001230F6E192F820228DF8102093F82122E7
:102190008DF8112093F8222293F823328DF8122023
:1021A0008DF81330E5E1B2F824228DF81020120AE0
:1021B0008DF81120B3F82622B3F828328DF81220BA
:1021C0008DF81430120A1B0A8DF813208DF8153083
:1021D000CFE1B2F830328DF810301B0A8DF8113093
:1021E000B2F832328DF812301B0A8DF81330B2F883
:1021F00034328DF814301B0A8DF81530B9E1B2F87D
:1022000036228DF81020120A8DF81120B3F83822EA
:10221000B3F83A328DF812208DF81430120A1B0AE6
:102220008DF813208DF81530A3E1B2F83C228DF81B
:102230001020120A8DF81120B3F83E22B3F8403274
:102240008DF812208DF81430120A1B0A8DF8132015
:102250008DF815308DE1B2F84222B3F844328DF892
:1022600010208DF81230120A1B0A8DF811208DF8FB
:1022700013307EE1B2F84A328DF810301B0A8DF827
:102280001130B2F84C328DF812301B0A8DF8133031
:102290006FE1B2F84E22B3F850328DF810208DF86D
:1022A0001230120A1B0A8DF811208DF8133060E1EC
:1022B000B2F85222B3F854328DF810208DF8123053
:1022C000120A1B0A8DF811208DF8133051E1B2F873
:1022D00056228DF81020120A8DF81120B3F85822DA
:1022E000B3F85A328DF812208DF81430120A1B0AF6
:1022F0008DF813208DF815303BE1B2F862328DF87D
:1023000010301B0A8DF81130B2F864328DF812309B
:102310001B0A8DF813302CE1B2F86622B3F868324C
:102320008DF810208DF81230120A1B0A8DF811203A
:102330008DF813301DE1B2F86A22B3F86C328DF8D3
:1023400010208DF81230120A1B0A8DF811208DF81A
:1023500013300EE1B2F86E22B3F870328DF810200F
:102360008DF81230120A1B0A8DF811208DF81330E7
:10237000FFE0B2F876328DF810301B0A8DF811307C
:10238000B2F878328DF812301B0A8DF81330F0E075
:10239000B2F87A22B3F87C328DF810208DF8123022
:1023A000120A1B0A8DF811208DF81330E1E0B2F803
:1023B0007E22B3F880328DF810208DF81230120A88
:1023C0001B0A8DF811208DF81330D2E0B2F882226A
:1023D0008DF81020120A8DF81120B3F88422B3F87A
:1023E00086328DF812208DF81430120A1B0A8DF8EF
:1023F00013208DF81530BCE0B2F88E328DF8103015
:102400001B0A8DF81130B2F890328DF812301B0A89
:102410008DF81330ADE0B2F89222B3F894328DF813
:1024200010208DF81230120A1B0A8DF811208DF839
:1024300013309EE0B2F89622B3F898328DF810204F
:102440008DF81230120A1B0A8DF811208DF8133006
:102450008FE0B2F89A22B3F89C328DF810208DF8F4
:102460001230120A1B0A8DF811208DF8133080E00B
:10247000B2F8A2328DF810301B0A8DF81130B2F884
:10248000A4328DF812301B0A8DF81330B2F8A63240
:102490008DF814301B0A8DF815306AE0B2F8A822C6
:1024A000B3F8AA328DF812208DF81430120A1B0AE4
:1024B0008DF813208DF815305BE0B2F8AC228DF862
:1024C0001020120A8DF81120B3F8AE22B3F8B03202
:1024D0008DF812208DF81430120A1B0A8DF8132083
:1024E0008DF8153045E0B2F8B2228DF81020120AAE
:1024F0008DF81120B3F8B422B3F8B6328DF812205B
:102500008DF81430120A1B0A8DF813208DF815303F
:102510002FE002F52F7292E803000490ADF814103A
:1025200027E092F8C2228DF8102093F8C32293F886
:10253000C4328DF811208DF812301AE092F8CB22B7
:102540008DF8102093F8CC2293F8CD328DF811201D
:102550008DF812300DE0B2F8CE22B3F8D0328DF8FB
:1025600010208DF81230120A1B0A8DF811208DF8F8
:102570001330DB4B9B681D68EB7943F02003EB7154
:10258000019A4FEA0B2343EA826343F0C00343EA14
:1025900004446B68AA6864F31C036B606FF06043CB
:1025A00063F31C02AA60120E42F02002EA720823B2
:1025B0002B739DF812309DF811201B0443EA02236F
:1025C0009DF8102013439DF8132043EA02632B610A
:1025D0009DF814209DF8153042EA032242EA074391
:1025E00043EA06636B61284602F0F2FB2B684FF06A
:1025F0008072DA6100F0B4BEB4F5FD7F00F0A3860E
:10260000A4F13008B8F11A0F06D8DFF8D88298F88C
:10261000D282C8F3400850E0A4F15008B8F11A0F74
:1026200006D8DFF8C08298F8D282C8F3800844E068
:10263000A4F1B008B8F11F0F3EF683AADFF8A48218
:1026400098F8D28208F0010837E01F2C07D1A54B7B
:1026500093F8D332DE0700F13683FEF77CBA202CE4
:1026600007D1A04B93F8D432580740F03183FEF7DE
:1026700072BA212C07D19B4B93F8D532190740F041
:102680003083FEF768BA232C07D1964B93F8D632E5
:102690005B0740F03183FEF75EBAA4F1A808B8F1F9
:1026A000020F0ED940F2F7380AEA0808A8F1D0085C
:1026B000B8F1010F3EF64FAA03E0B8F1000F3EF467
:1026C0004AAA622C00F09D8400F26381442C854F5D
:1026D00000F0BF8300F2A580372C00F0518350D862
:1026E000312C00F0128321D8212C00F0FA8207D877
:1026F0001F2C00F0E882202C00F0EA82FEF72BBAB3
:10270000232C00F0F982302C7EF425AADBB2C9B26A
:1027100045EA032342EA002246EA0121A7F8943061
:10272000A7F89620A7F89810FEF715BA342C00F0F9
:102730000C8315D8322C00F0F882332C7EF40BAACF
:10274000DBB2C9B245EA032342EA002246EA01218C
:10275000A7F8A630A7F8A820A7F8AA10FEF7FBB99B
:10276000352C00F00283362C7EF4F5A9DBB245EA65
:10277000032342EA0022A7F8B630A7F8B820FEF7F4
:10278000EAB93D2C00F0328325D83A2C00F00E83B4
:1027900010D8382C00F0FF82392C7EF4DCA9DBB293
:1027A00045EA032342EA0022A7F8C230A7F8C42072
:1027B000FEF7D1B93B2C00F009833C2C7EF4CBA969
:1027C000DBB245EA032342EA0022A7F8D230A7F899
:1027D000D420FEF7C0B9402C00F01E8310D83E2C48
:1027E00000F00F833F2C7EF4B6A9DBB245EA032349
:1027F00042EA0022A7F8DE30A7F8E020FEF7ABB9E6
:10280000422CDBB24FEA002000F0118300F2188363
:1028100045EA03231043A7F8E630A7F8E800FEF7DF
:102820009AB9552C00F089835ED84A2C00F04A836F
:1028300025D8472C00F02D8310D8452C00F01983A3
:10284000462C7EF488A9DBB245EA032342EA002243
:10285000A7F8FE30A7F80021FEF77DB9482C00F05C
:102860002383492C7EF477A9DBB245EA032342EAAD
:102870000022A7F80A31A7F80C21FEF76CB9522CF8
:1028800000F03B8315D8502C00F02783512C7EF4A8
:1028900062A9DBB2C9B245EA032342EA002246EA52
:1028A0000121A7F81831A7F81A21A7F81C11FEF783
:1028B00052B9532C00F03183542C7EF44CA9DBB276
:1028C000C9B245EA032342EA002246EA0121A7F8F9
:1028D0002A31A7F82C21A7F82E11FEF73CB900BF2A
:1028E0007088FE1F8C88FE1F5B2C00F052832AD854
:1028F000582C00F0388310D8562C00F02983572C20
:102900007EF429A9DBB245EA032342EA0022A7F8B4
:102910003831A7F83A21FEF71EB9592C00F02E8362
:102920005A2C7EF418A9DBB2C9B245EA032342EA65
:10293000002246EA0121A7F84431A7F84621A7F86A
:102940004811FEF708B95E2C00F03E8310D85C2CCD
:1029500000F02F835D2C7EF4FEA8DBB245EA032352
:1029600042EA0022A7F85431A7F85621FEF7F3B83F
:10297000602CDBB24FEA002000F0318300F2388394
:1029800045EA03231043A7F85C31A7F85E01FEF780
:10299000E2B8BD2C00F0F58300F2C580B02CDFF862
:1029A00020E500F0768364D8682C00F05C832AD898
:1029B000652C00F03D8315D8632C00F02E83642C29
:1029C0007EF4C9A8DBB2C9B245EA032342EA002279
:1029D00046EA0121AEF87031AEF87221AEF87411FA
:1029E000FEF7B9B8662C00F03383672C7EF4B3A8E9
:1029F000DBB245EA032342EA0022AEF88031AEF8AA
:102A00008221FEF7A8B8A82C00F0578410D8692CB2
:102A100000F034836A2C7EF49EA8DBB245EA0323DF
:102A200042EA0022AEF88C31AEF88E21FEF793B860
:102A3000A92C00F04B84AA2C7EF48DA89EF82022AD
:102A4000009922EA01079EF821228EF8207222EADC
:102A500003038EF821329EF823229EF8223222EAC6
:102A6000000223EA0C0C8EF822C28EF82322FEF715
:102A700072B8B62C00F04D832AD8B32C00F029830D
:102A800015D8B12C00F01583B22C7EF464A8DBB20B
:102A9000C9B245EA032342EA002246EA0121AEF820
:102AA0003032AEF83222AEF83412FEF754B8B42CFD
:102AB00000F01F83B52C7EF44EA8DBB245EA032359
:102AC00042EA0022AEF84232AEF84422FEF743B8A2
:102AD000B92C00F0348310D8B72C00F02583B82C23
:102AE0007EF439A8DBB245EA032342EA0022AEF8BD
:102AF0004E32AEF85022FEF72EB8BB2CDBB24FEAB6
:102B0000002000F0278300F23383C9B245EA032393
:102B1000104346EA0121AEF85632AEF85802AEF83C
:102B20005A12FEF718B8C92C00F0898355D8C32C67
:102B3000E34F00F0538325D8C02C00F0398310D820
:102B4000BE2C00F02A83BF2C7EF405A8DBB245EA38
:102B5000032342EA0022A7F86E32A7F87022FDF79D
:102B6000FABFC12C00F02F83C22C7DF4F4AFDBB28E
:102B700045EA032342EA0022A7F87A32A7F87C222A
:102B8000FDF7E9BFC62C00F0448315D8C42C00F033
:102B90003083C52C7DF4DFAFDBB2C9B245EA032335
:102BA00042EA002246EA0121A7F88832A7F88A22E1
:102BB000A7F88C12FDF7CFBFC72C00F03583C82CC7
:102BC0007DF4C9AFDBB245EA032342EA0022A7F84D
:102BD0009632A7F89822FDF7BEBFCF2C00F0618394
:102BE00030D8CC2CB64F00F0418315D8CA2C00F059
:102BF0003283CB2C7DF4AFAFDBB2C9B245EA0323FD
:102C000042EA002246EA0121A7F8A232A7F8A4224C
:102C1000A7F8A612FDF79FBFCD2C00F03283CE2C73
:102C20007DF499AFDBB2C9B245EA032342EA002240
:102C300046EA0121A7F8B232A7F8B422A7F8B612E3
:102C4000FDF789BFD82C00F064831BD8D02C00F08E
:102C50005283D12C7DF47FAF994A009892F8C2122A
:102C600021EA000792F8C31282F8C27221EA030334
:102C700082F8C33292F8C43223EA0C0C82F8C4C240
:102C8000FDF769BFB4F5FC7F00F05183B4F5FD7F1B
:102C900000F05983D92C7DF45EAF894A009892F8F0
:102CA000CB1221EA000792F8CC1282F8CB7221EA0B
:102CB000030382F8CC3292F8CD3223EA0C0C82F86E
:102CC000CDC2FDF748BF7E4B83F88850FDF743BF68
:102CD0007B4B83F8895083F88AE083F88B20FDF7DB
:102CE0003ABF774B83F88C5083F88DE083F88E20C1
:102CF00083F88F90FDF72FBF714B83F8915083F8C5
:102D000092E083F89320FDF726BFDBB2C9B245EA13
:102D1000032342EA002246EA0121A7F89A30A7F8E5
:102D20009C20A7F89E10FDF716BFDBB2C9B245EA9A
:102D3000032342EA002246EA0121A7F8A030A7F8BF
:102D4000A220A7F8A410FDF706BFDBB2C9B245EA7E
:102D5000032342EA002246EA0121A7F8AC30A7F893
:102D6000AE20A7F8B010FDF7F6BEDBB245EA0323AC
:102D700042EA0022A7F8B230A7F8B420FDF7EBBE74
:102D8000DBB245EA032342EA0022A7F8BA30A7F8EB
:102D9000BC20FDF7E0BEDBB245EA032342EA002295
:102DA000A7F8BE30A7F8C020FDF7D5BEDBB2C9B288
:102DB00045EA032342EA002246EA0121A7F8C63089
:102DC000A7F8C820A7F8CA10FDF7C5BEDBB2C9B284
:102DD00045EA032342EA002246EA0121A7F8CC3063
:102DE000A7F8CE20A7F8D010FDF7B5BEDBB245EAB4
:102DF000032342EA0022A7F8D630A7F8D820FDF72F
:102E0000AABEDBB245EA032342EA0022A7F8DA3081
:102E1000A7F8DC20FDF79FBEDBB245EA032342EAB8
:102E20000022A7F8E230A7F8E420FDF794BE45EAB7
:102E300003231043A7F8EA30A7F8EC00FDF78BBE98
:102E400045EA03231043A7F8EE30A7F8F000FDF79A
:102E500082BEDBB2C9B245EA032342EA002246EA57
:102E60000121A7F8F230A7F8F420A7F8F610FDF733
:102E700072BEDBB2C9B245EA032342EA002246EA47
:102E80000121A7F8F830A7F8FA20A7F8FC10FDF701
:102E900062BEDBB245EA032342EA0022A7F8023110
:102EA000A7F80421FDF757BEDBB245EA032342EA47
:102EB0000022A7F80631A7F80821FDF74CBE00BF95
:102EC0008C88FE1FDBB245EA032342EA0022A7F802
:102ED0000E31A7F81021FDF73EBEDBB2C9B245EABC
:102EE000032342EA002246EA0121A7F81231A7F89B
:102EF0001421A7F81611FDF72EBEDBB2C9B245EAC0
:102F0000032342EA002246EA0121A7F81E31A7F86E
:102F10002021A7F82211FDF71EBEDBB2C9B245EA97
:102F2000032342EA002246EA0121A7F82431A7F848
:102F30002621A7F82811FDF70EBEDBB245EA0323D0
:102F400042EA0022A7F83031A7F83221FDF703BE8C
:102F5000DBB245EA032342EA0022A7F83431A7F89E
:102F60003621FDF7F8BDDBB245EA032342EA002231
:102F7000A7F83C31A7F83E21FDF7EDBDDBB245EAED
:102F8000032342EA0022A7F84031A7F84221FDF7C7
:102F9000E2BDDBB2C9B245EA032342EA002246EAB7
:102FA0000121A7F84A31A7F84C21A7F84E11FDF7E7
:102FB000D2BDDBB245EA032342EA0022A7F8503132
:102FC000A7F85221FDF7C7BDDBB245EA032342EA69
:102FD0000022A7F85831A7F85A21FDF7BCBD45EAF1
:102FE00003231043A7F86031A7F86201FDF7B3BDD2
:102FF00045EA03231043A7F86431A7F86601FDF7FB
:10300000AABDD949DBB245EA032342EA0022A1F86E
:103010006831A1F86A21FDF79EBDDBB245EA0323C2
:1030200042EA0022AEF86C31AEF86E21FDF793BD96
:10303000DBB2C9B245EA032342EA002246EA012193
:10304000AEF87631AEF87821AEF87A11FDF783BD8F
:10305000DBB245EA032342EA0022AEF87C31AEF847
:103060007E21FDF778BDDBB245EA032342EA002268
:10307000AEF88431AEF88621FDF76DBDDBB245EACE
:10308000032342EA0022AEF88831AEF88A21FDF728
:1030900062BDDBB2C9B245EA032342EA002246EA36
:1030A0000121AEF82432AEF82622AEF82812FDF740
:1030B00052BDDBB2C9B245EA032342EA002246EA26
:1030C0000121AEF82A32AEF82C22AEF82E12FDF70E
:1030D00042BDDBB2C9B245EA032342EA002246EA16
:1030E0000121AEF83632AEF83822AEF83A12FDF7CA
:1030F00032BDDBB2C9B245EA032342EA002246EA06
:103100000121AEF83C32AEF83E22AEF84012FDF797
:1031100022BDDBB245EA032342EA0022AEF8463282
:10312000AEF84822FDF717BDDBB245EA032342EAB9
:103130000022AEF84A32AEF84C22FDF70CBDDBB2ED
:1031400045EA032342EA0022AEF85232AEF8542296
:10315000FDF701BDC9B245EA0323104346EA012148
:10316000AEF85C32AEF85E02AEF86012FDF7F3BC6A
:1031700045EA03231043AEF86232AEF86402FDF76D
:10318000EABC7949DBB245EA032342EA0022A1F80E
:103190006632A1F86822FDF7DEBCDBB245EA032304
:1031A00042EA0022A7F86A32A7F86C22FDF7D3BCE6
:1031B000DBB245EA032342EA0022A7F87232A7F8FD
:1031C0007422FDF7C8BCDBB245EA032342EA0022C1
:1031D000A7F87632A7F87822FDF7BDBCDBB245EA46
:1031E000032342EA0022A7F87E32A7F88022FDF7E7
:1031F000B2BCDBB2C9B245EA032342EA002246EA86
:103200000121A7F88232A7F88422A7F88612FDF7D9
:10321000A2BCDBB245EA032342EA0022A7F88E32C1
:10322000A7F89022FDF797BCDBB245EA032342EAF8
:103230000022A7F89232A7F89422FDF78CBC4A49E5
:10324000DBB245EA032342EA0022A1F89A32A1F850
:103250009C22FDF780BCDBB245EA032342EA002250
:10326000A7F89E32A7F8A022FDF775BCC9B242EAC2
:10327000002246EA0121A7F8A822A7F8AA12FDF722
:103280006ABCDBB2C9B245EA032342EA002246EA3D
:103290000121A7F8AC32A7F8AE22A7F8B012FDF7CB
:1032A0005ABC3149DBB245EA032342EA0022A1F8C5
:1032B000B832A1F8BA22FDF74EBC9EF81C32009A33
:1032C00023EA02078EF81C72FDF745BC9EF81D220A
:1032D000009922EA01079EF81E228EF81D7222EA4A
:1032E00003038EF81E329EF81F3223EA0C0C8EF870
:1032F0001FC2FDF730BC1D4A002302A9C85C12F8AA
:10330000011F013321EA0001062B1170F5D1FDF7F1
:1033100022BC174A002302A9C85C12F8011F01331E
:1033200021EA0001062B1170F5D1FDF714BC0E49FE
:10333000DBB245EA032342EA0022A1F8CE32A1F82B
:10334000D022FDF708BC084B83F8D25283F8D3E2B1
:1033500083F8D42283F8D59283F8D662FDF7FBBBBD
:1033600007B0BDE8F08F00BF8C88FE1F478BFE1FA3
:10337000508BFE1F004870478C88FE1F0B8803701F
:10338000C3F3032343704B888370C3F30323C370D9
:103390008B880371C3F3032343717047CB88037099
:1033A000C3F3032343700B898370C3F30323C370F8
:1033B0004B890371C3F30323437170478B890370F7
:1033C000C3F303234370CB898370C3F30323C37018
:1033D0000B8A0371C3F30323437170474B8A037055
:1033E000C3F3032343708B8A8370C3F30323C37037
:1033F000CB8A0371C3F30323437170470B8B0370B4
:10340000C3F3032343704B8B8370C3F30323C37055
:103410008B8B0371C3F3032343717047CB8B037012
:10342000C3F3032343700B8C8370C3F30323C37074
:1034300070474B8C0370C3F3032343708B8C8370F2
:10344000C3F30323C3707047CB8C0370C3F3032310
:1034500043700B8D8370C3F30323C37070474B8D90
:103460000370C3F3032343708B8D8370C3F3032373
:10347000C3707047CB8D0370C3F3032343700B8E6F
:103480008370C3F30323C37070474B8E0370C3F381
:10349000032343708B8E8370C3F30323C370CB8EDF
:1034A0000371C3F30323437170470B8F0370C3F39E
:1034B000032343704B8F8370C3F30323C3708B8F3D
:1034C0000371C3F3032343717047CB8F0370C3F3BE
:1034D00003234370B1F840308370C3F30323C370F8
:1034E0007047B1F842300370C3F303234370B1F85F
:1034F00044308370C3F30323C3707047B1F8463080
:103500000370C3F303234370B1F848308370C3F3EF
:103510000323C3707047B1F84A300370C3F3032329
:103520004370B1F84C308370C3F30323C37070470A
:10353000B1F84E300370C3F303234370B1F8503039
:103540008370C3F30323C3707047B1F85230037024
:10355000C3F303234370B1F854308370C3F30323E0
:10356000C3707047B1F856300370C3F30323437040
:10357000B1F858308370C3F30323C3707047B1F8B8
:103580005A300370C3F303234370B1F85C30837087
:10359000C3F30323C3707047B1F85E300370C3F305
:1035A00003234370B1F860308370C3F30323C37007
:1035B000B1F862300371C3F3032343717047B1F86C
:1035C00064300370C3F303234370B1F86630837033
:1035D000C3F30323C370B1F868300371C3F303234B
:1035E00043717047B1F86A300370C3F3032343702B
:1035F000B1F86C308370C3F30323C3707047B1F824
:103600006E300370C3F303234370B1F870308370DE
:10361000C3F30323C3707047B1F872300370C3F370
:1036200003234370B1F874308370C3F30323C37072
:103630007047B1F876300370C3F303234370B1F8D9
:1036400078308370C3F30323C3707047B1F87A30C6
:103650000370C3F303234370B1F87C308370C3F36A
:103660000323C370704791F87E30037091F87F3068
:10367000437091F880308370704791F88130037007
:1036800091F88230437091F883308370704791F8DD
:103690008430037091F885304370704791F886301C
:1036A000037091F887304370704791F88830037049
:1036B000704791F88930037091F88A30437091F81F
:1036C0008B308370704791F88C30037091F88D3097
:1036D000437091F88E30837091F88F30C3707047CB
:1036E00091F890300370704791F89130037091F821
:1036F0009230437091F8933083707047B1F89430F2
:1037000003701B0A4370B1F8963083701B0AC370B4
:10371000B1F8983003711B0A43717047B1F89A30C1
:1037200003701B0A4370B1F89C3083701B0AC3708E
:10373000B1F89E3003711B0A43717047B1F8A03095
:1037400003701B0A4370B1F8A23083701B0AC37068
:10375000B1F8A43003711B0A43717047B1F8A63069
:1037600003701B0A4370B1F8A83083701B0AC37042
:10377000B1F8AA3003711B0A43717047B1F8AC303D
:1037800003701B0A4370B1F8AE3083701B0AC3701C
:10379000B1F8B03003711B0A43717047B1F8B23011
:1037A00003701B0A4370B1F8B43083701B0AC370F6
:1037B0007047B1F8B63003701B0A4370B1F8B830E7
:1037C00083701B0AC3707047B1F8BA3003701B0ACC
:1037D0004370B1F8BC3083701B0AC3707047B1F8F6
:1037E000BE3003701B0A4370B1F8C03083701B0AEF
:1037F000C3707047B1F8C23003701B0A4370B1F850
:10380000C43083701B0AC3707047B1F8C6300370B0
:103810001B0A4370B1F8C83083701B0AC370B1F83B
:10382000CA3003711B0A43717047B1F8CC30037082
:103830001B0A4370B1F8CE3083701B0AC370B1F815
:10384000D03003711B0A43717047B1F8D230037056
:103850001B0A4370B1F8D43083701B0AC3707047E1
:10386000B1F8D63003701B0A4370B1F8D8308370BA
:103870001B0AC3707047B1F8DA3003701B0A43703B
:10388000B1F8DC3083701B0AC3707047B1F8DE30CA
:1038900003701B0A4370B1F8E03083701B0AC370D9
:1038A0007047B1F8E23003701B0A4370B1F8E4309E
:1038B00083701B0AC3707047B1F8E63003701B0AAF
:1038C0004370B1F8E83083701B0AC3707047B1F8D9
:1038D000EA3003701B0A4370B1F8EC3083701B0AA6
:1038E000C3707047B1F8EE3003701B0A4370B1F833
:1038F000F03083701B0AC3707047B1F8F230037068
:103900001B0A4370B1F8F43083701B0AC370B1F81E
:10391000F63003711B0A43717047B1F8F830037039
:103920001B0A4370B1F8FA3083701B0AC370B1F8F8
:10393000FC3003711B0A43717047B1F8FE3003700D
:103940001B0A4370B1F8003183701B0AC3707047C3
:10395000B1F8023103701B0A4370B1F8043183706F
:103960001B0AC3707047B1F8063103701B0A43701D
:10397000B1F8083183701B0AC3707047B1F80A317F
:1039800003701B0A4370B1F80C3183701B0AC370BB
:103990007047B1F80E3103701B0A4370B1F8103153
:1039A00083701B0AC3707047B1F8123103701B0A91
:1039B0004370B1F8143183701B0AC370B1F816312B
:1039C00003711B0A43717047B1F8183103701B0A69
:1039D0004370B1F81A3183701B0AC370B1F81C31FF
:1039E00003711B0A43717047B1F81E3103701B0A43
:1039F0004370B1F8203183701B0AC370B1F82231D3
:103A000003711B0A43717047B1F8243103701B0A1C
:103A10004370B1F8263183701B0AC370B1F82831A6
:103A200003711B0A43717047B1F82A3103701B0AF6
:103A30004370B1F82C3183701B0AC370B1F82E317A
:103A400003711B0A43717047B1F8303103701B0AD0
:103A50004370B1F8323183701B0AC3707047B1F8FC
:103A6000343103701B0A4370B1F8363183701B0A7E
:103A7000C3707047B1F8383103701B0A4370B1F856
:103A80003A3183701B0AC3707047B1F83C31037040
:103A90001B0A4370B1F83E3183701B0AC370704734
:103AA000B1F8403103701B0A4370B1F842318370A2
:103AB0001B0AC3707047B1F8443103701B0A43708E
:103AC000B1F8463183701B0AC370B1F848310371F5
:103AD0001B0A43717047B1F84A3103701B0A4370E7
:103AE000B1F84C3183701B0AC370B1F84E310371C9
:103AF0001B0A43717047B1F8503103701B0A4370C1
:103B0000B1F8523183701B0AC3707047B1F8543159
:103B100003701B0A4370B1F8563183701B0AC370DF
:103B20007047B1F8583103701B0A4370B1F85A312D
:103B300083701B0AC3707047B1F85C3103701B0AB5
:103B40004370B1F85E3183701B0AC3707047B1F8DF
:103B5000603103701B0A4370B1F8623183701B0A35
:103B6000C3707047B1F8643103701B0A4370B1F839
:103B7000663183701B0AC3707047B1F868310370F7
:103B80001B0A4370B1F86A3183701B0AC370704717
:103B9000B1F86C3103701B0A4370B1F86E31837059
:103BA0001B0AC3707047B1F8703103701B0A437071
:103BB000B1F8723183701B0AC370B1F874310371AC
:103BC0001B0A43717047B1F8763103701B0A4370CA
:103BD000B1F8783183701B0AC370B1F87A31037180
:103BE0001B0A43717047B1F87C3103701B0A4370A4
:103BF000B1F87E3183701B0AC3707047B1F8803111
:103C000003701B0A4370B1F8823183701B0AC370C2
:103C10007047B1F8843103701B0A4370B1F88631E4
:103C200083701B0AC3707047B1F8883103701B0A98
:103C30004370B1F88A3183701B0AC3707047B1F8C2
:103C40008C3103701B0A4370B1F88E3183701B0AEC
:103C5000C3707047B1F8903103701B0A4370B1F81C
:103C6000923183701B0AC370B1F8943103711B0A3F
:103C700043717047B1F8963103701B0A4370B1F875
:103C8000983183701B0AC370B1F89A3103711B0A13
:103C900043717047B1F89C3103701B0A4370B1F84F
:103CA0009E3183701B0AC370B1F8A03103711B0AE7
:103CB00043717047B1F8A23103701B0A4370B1F829
:103CC000A43183701B0AC370B1F8A63103711B0ABB
:103CD00043717047B1F8A83103701B0A4370B1F803
:103CE000AA3183701B0AC370B1F8AC3103711B0A8F
:103CF00043717047B1F8AE3103701B0A4370B1F8DD
:103D0000B03183701B0AC3707047B1F8B2310370D1
:103D10001B0A4370B1F8B43183701B0AC37070473B
:103D2000B1F8B63103701B0A4370B1F8B831837033
:103D30001B0AC3707047B1F8BA3103701B0A437095
:103D4000B1F8BC3183701B0AC3707047B1F8BE3143
:103D500003701B0A4370B1F8C03183701B0AC37033
:103D60007047B1F8C23103701B0A4370B1F8C43117
:103D700083701B0AC370B1F8C63103711B0A43710B
:103D80007047B1F8C83103701B0A4370B1F8CA31EB
:103D900083701B0AC370B1F8CC3103711B0A4371E5
:103DA0007047B1F8CE3103701B0A4370B1F8D031BF
:103DB00083701B0AC3707047B1F8D23103701B0ABD
:103DC0004370B1F8D43183701B0AC3707047B1F8E7
:103DD000D63103701B0A4370B1F8D83183701B0AC7
:103DE000C3707047B1F8DA3103701B0A4370B1F841
:103DF000DC3183701B0AC3707047B1F8DE31037089
:103E00001B0A4370B1F8E03183701B0AC37070471E
:103E1000B1F8E23103701B0A4370B1F8E4318370EA
:103E20001B0AC3707047B1F8E63103701B0A437078
:103E3000B1F8E83183701B0AC3707047B1F8EA31FA
:103E400003701B0A4370B1F8EC3183701B0AC37016
:103E50007047B1F8EE3103701B0A4370B1F8F031CE
:103E600083701B0AC370B1F8F23103711B0A4371EE
:103E70007047B1F8F43103701B0A4370B1F8F631A2
:103E800083701B0AC370B1F8F83103711B0A4371C8
:103E90007047B1F8FA3103701B0A4370B1F8FC3176
:103EA00083701B0AC3707047B1F8FE3103701B0AA0
:103EB0004370B1F8003283701B0AC3707047B1F8C9
:103EC000023203701B0A4370B1F8043283701B0A7C
:103ED000C3707047B1F8063203701B0A4370B1F823
:103EE000083283701B0AC3707047B1F80A3203703E
:103EF0001B0A4370B1F80C3283701B0AC370704701
:103F0000B1F80E3203701B0A4370B1F8103283709F
:103F10001B0AC370B1F8123203711B0A4371704758
:103F2000B1F8143203701B0A43707047D1F818328D
:103F30000370D1F818321B0A4370B1F81A3283703B
:103F400091F81B32C370704791F81C3203707047B0
:103F500091F81D32037091F81E32437091F81F32B0
:103F60008370704791F82032037091F821324370CA
:103F700091F82232837091F82332C3707047B1F800
:103F8000243203701B0A4370B1F8263283701B0A77
:103F9000C370B1F8283203711B0A43717047B1F83E
:103FA0002A3203701B0A4370B1F82C3283701B0A4B
:103FB000C370B1F82E3203711B0A43717047B1F818
:103FC000303203701B0A4370B1F8323283701B0A1F
:103FD000C370B1F8343203711B0A43717047B1F8F2
:103FE000363203701B0A4370B1F8383283701B0AF3
:103FF000C370B1F83A3203711B0A43717047B1F8CC
:104000003C3203701B0A4370B1F83E3283701B0AC6
:10401000C370B1F8403203711B0A43717047B1F8A5
:10402000423203701B0A4370B1F8443283701B0A9A
:10403000C3707047B1F8463203701B0A4370B1F881
:10404000483283701B0AC3707047B1F84A3203705C
:104050001B0A4370B1F84C3283701B0AC37070475F
:10406000B1F84E3203701B0A4370B1F850328370BE
:104070001B0AC3707047B1F8523203701B0A4370B9
:10408000B1F8543283701B0AC3707047B1F85632CE
:1040900003701B0A4370B1F8583283701B0AC37057
:1040A000B1F85A3203711B0A43717047B1F85C32A0
:1040B00003701B0A4370B1F85E3283701B0AC37031
:1040C000B1F8603203711B0A43717047B1F8623274
:1040D00003701B0A4370B1F8643283701B0AC3700B
:1040E0007047B1F8663203701B0A4370B1F868324A
:1040F00083701B0AC3707047B1F86A3203701B0AE1
:104100004370B1F86C3283701B0AC3707047B1F80A
:104110006E3203701B0A4370B1F8703283701B0A51
:10412000C3707047B1F8723203701B0A4370B1F864
:10413000743283701B0AC3707047B1F87632037013
:104140001B0A4370B1F8783283701B0AC370704742
:10415000B1F87A3203701B0A4370B1F87C32837075
:104160001B0AC3707047B1F87E3203701B0A43709C
:10417000B1F8803283701B0AC3707047B1F8823285
:1041800003701B0A4370B1F8843283701B0AC3703A
:10419000B1F8863203711B0A43717047B1F8883257
:1041A00003701B0A4370B1F88A3283701B0AC37014
:1041B000B1F88C3203711B0A43717047B1F88E322B
:1041C00003701B0A4370B1F8903283701B0AC370EE
:1041D0007047B1F8923203701B0A4370B1F8943201
:1041E00083701B0AC3707047B1F8963203701B0AC4
:1041F0004370B1F8983283701B0AC3707047B1F8EE
:104200009A3203701B0A4370B1F89C3283701B0A08
:10421000C3707047B1F89E3203701B0A4370B1F847
:10422000A03283701B0AC3707047B1F8A2320370CA
:104230001B0A4370B1F8A43283701B0AC370B1F833
:10424000A63203711B0A43717047B1F8A83283701C
:104250001B0AC370B1F8AA3203711B0A437170477D
:10426000B1F8AC3203701B0A4370B1F8AE32837000
:104270001B0AC370B1F8B03203711B0A4371704757
:10428000B1F8B23203701B0A4370B1F8B4328370D4
:104290001B0AC370B1F8B63203711B0A4371704731
:1042A000B1F8B83203701B0A4370B1F8BA328370A8
:1042B0001B0AC370704791F8BC32037091F8BD328D
:1042C000437091F8BE32837091F8BF32C37091F899
:1042D000C032037191F8C1324371704791F8C23214
:1042E000037091F8C332437091F8C4328370704701
:1042F00091F8C532037091F8C632437091F8C73215
:10430000837091F8C832C37091F8C932037191F883
:10431000CA324371704791F8CB32037091F8CC32B6
:10432000437091F8CD3283707047B1F8CE3203708C
:104330001B0A4370B1F8D03283701B0AC3707047F8
:1043400091F8D232037091F8D332437091F8D4329D
:10435000837091F8D532C37091F8D63203717047EB
:104360002DE9F04F85B004460191FFF703F80746A9
:10437000FFF700F84FF4007303804FF4407343805D
:104380004FF4447383805023C3805123038152230D
:104390004381532383815423C3814FF4C863038231
:1043A0004FF41663438240F66113838240F6621332
:1043B000C3822023038340F66313438340F66413D0
:1043C000838340F66513C3833023038440F2DC53B8
:1043D00043844023838440F2DD53C3844123038517
:1043E00040F2EE2343854223838540F2EF23C385C9
:1043F0004323038644234386452383864623C3867B
:1044000047230387482343874923838740F2DE53AA
:10441000C3874FF43C73A0F840304FF49E73A0F86C
:1044200042304A23A0F84430CE23A0F8463040F270
:10443000DF53A0F84A3040F2F123A0F84E304D236C
:10444000A0F8503040F2F223A0F8523040F2F323AB
:10445000A0F854304E23A0F856304F23A0F858301F
:104460004FF4807540F66613A0F85A30A0F86A50F1
:10447000212340F20115A0F85C30A0F86C50FA231B
:104480004FF43D75A0F85E30A0F86E50FB2340F26B
:10449000F5254B21A0F86030A0F87050FC234FF4B4
:1044A000BC65A0F848104C22A0F86230A0F8725009
:1044B000A0F87810FD234FF48175CF214FF0FE0C4A
:1044C000A0F84C20A0F86430A0F87450FF23A0F8A6
:1044D0007A10A0F87C2003219C254FF0A5094FF00D
:1044E0005A081F22A0F86830A0F8765080F8812082
:1044F000A0F866C080F87E9080F87F8080F88010F9
:1045000080F88230C32380F88430E72380F8863037
:104510007E2380F88A3080F88B3080F88F301E231D
:1045200080F8923080F893300A23A0F894304FF648
:10453000FB73A0F896304FF6FD73A0F89C3004236F
:10454000A0F89E306423A0F8A6304FF6CE73A0F8F2
:10455000F2304FF6D0730E22A0F8F4304FF6D2733B
:104560004FF0020E012680F88C2080F88D2080F814
:104570008E2000250722A0F8F6304FF0060A40F6FC
:10458000FF73A0F81231A0F81431A0F81631A0F88A
:104590002431A0F87031A0F8723180F883E080F8FF
:1045A000856080F8876080F888E080F889C080F8AE
:1045B000905080F891A0A0F89820A0F89A10A0F848
:1045C0007431A0F836324FF44873A0F882324FF6B7
:1045D0003873A0F8AC324FF69C7341F2883BA0F8D8
:1045E000A832A0F8AA32524BA0F824B2C0F8183270
:1045F0004FF47A6B0F23A0F826B2A0F828B280F807
:104600001CA280F81DC280F81E5280F81F5280F84C
:10461000BC9280F8BD8280F8C532A0F8CEE2A0F846
:10462000D01280F8D23280F8D36280F8D42280F899
:10463000D53280F8D622FBF7AFFE0B3400211422CE
:10464000A4F10B0000F0FAFCDFF8F0903948D9F83B
:1046500004202B5A126824F80B3C3749C3F3090392
:104660001B041943536861F31C0353600023136157
:10467000536113684FF48032DA614FF4FA630293A6
:104680008046029B5A1E02920BB100BFF9E7FCF76D
:1046900003FA4FF4FA730393039B5A1E03920BB170
:1046A00000BFF9E7D9F808301B681A6904F8082C2C
:1046B0001A69120A04F8072C5A8A04F8062CDA7CC4
:1046C00004F8052C5A6904F8042C5A69120A04F8F3
:1046D000032CDA8A04F8022CDB7D04F8013CA844A0
:1046E0002046D8F80430394698472346012203F87B
:1046F000092DE21E13F8010F197A884203D0002316
:1047000004F8093C01E09342F4D114F8093C08355F
:10471000002B08BF0026B5F5A16F04F114048DD15C
:10472000019AA1233046138005B0BDE8F08F00BF89
:10473000785634124C500008A0C000107088FE1F3C
:1047400001F0FC030344F0B501F003041E69E4002A
:10475000F825A54026EA05051D61466F4F00032593
:10476000BD4026EA05054567164DA84203D005F56C
:104770008075A84207D1056E012606FA01F125EAE7
:104780000101016618E092F90050002D14DA556815
:104790008D404560CD0800EB850001F00701066CF7
:1047A000890007258D4026EA05050564167A056C03
:1047B00006FA01F12943016412781969A2400A43FB
:1047C0001A61F0BD008E024810B50446FBF788FD63
:1047D000064B07481B68B3FBF0F303FB04F0002310
:1047E000834202D000BF0133FAE710BDC0FF0320AF
:1047F00040420F0020F070420C23000F5843014B41
:10480000C250704714440050034B044A5B6910685F
:1048100003F00103D840704700460050C0FF03205A
:10482000034AD36823F480331843D060704700BF35
:1048300000460050034A936923F480331843906183
:10484000704700BF00460050034A536A23F44033C8
:1048500018435062704700BF00460050064AD368B4
:1048600020B923F4807323F0010303E043F4807341
:1048700043F00103D360704710470050054BD3F855
:10488000C4301B07FAD4044AD36823F0400318430A
:10489000D06070470040005000430050054BD3F8F3
:1048A000C4301B07FAD4044AD36823F080031843AA
:1048B000D06070470040005000430050034AD36866
:1048C000013823F0FF030343D360704700460050D4
:1048D000034A136A013823F001030343136270474C
:1048E00000460050034A1369013823F001030343D3
:1048F0001361704700460050034A5369013823F0A2
:10490000010303435361704700460050034A936913
:10491000013823F0070303439361704700460050BA
:10492000034AD369013823F03F030343D36170473F
:1049300000460050034A536A013823F0FF03034343
:104940005362704700460050034A936B013823F0CE
:1049500003030343936370470046005020F0704206
:104960000C23000F5843014BC2507047484600507B
:10497000034A536923F4803323F0020353617047E1
:1049800010470050194A536943F0010310B55361B1
:104990001469164BE407FBD55C6901380139000640
:1049A00040EA012044F010045C615861596941F00B
:1049B00040015961596921F010015961596941F467
:1049C00080215961136909495807FBD54B6923F0C8
:1049D00001034B6113690549DB07FBD44B6923F0E5
:1049E00040034B61024B0822DA6010BD10470050B3
:1049F0006041005010B50B4C6368012843F48013EC
:104A000063600AD1636823F4801363606420FFF756
:104A1000DBFE636843F4002363606420BDE810405C
:104A2000FFF7D2BE104700500A4B1A68D20704D5D0
:104A3000094B1A68900506D4704701225A601A681B
:104A4000D107FCD5F4E74FF400729A601A6892051A
:104A5000FCD470470042005000440050034B1868DB
:104A600080F00800C0F3C000704700BF0043005052
:104A7000104B4FF40002DA600F4AD16921F0300187
:104A8000D16159680802FCD50A494FF40030C8606A
:104A9000082151605A689103FCD5064A4FF4002161
:104AA000D1600549CA6842F00802CA605A68120318
:104AB000FCD57047744000500043005070B50C4D59
:104AC0000C4E6B6823F480336B60746800F018FA46
:104AD000094BB0FBF3F024F47023013823F03003CA
:104AE00043EA004373606B6823F400336B6070BD6E
:104AF0001047005000470050A0252600044B1868BE
:104B000000F46070A0F5607358425841704700BFD0
:104B100010470050034A536823F4803323F0020304
:104B20005360704710470050034A536843F4803382
:104B300043F002035360704710470050064B9A68D9
:104B4000013822F4FE0242EA00429A601A68920694
:104B5000FCD53220FFF738BE104700502DE9F04158
:104B60000F46044690461E46069DFFF777FE012F2E
:104B7000364F55D134B900F0C3F9354CB0FBF4F0E1
:104B8000800501E04FF0C0607B6843F00103704393
:104B90001822B0FBF8F47B60B4FBF2F2920D3B6894
:104BA0002A49DB07FBD54B6843F010034B6088684C
:104BB000284B08F1FF38034043EA0863013E43EA0B
:104BC0000623013A43EA02438B604B6843F04003FB
:104BD0004B604B6823F010034B604B6843F4802319
:104BE0004B603B68194A5E07FBD5536823F001030D
:104BF00053603B68D807FCD43C20B4FBF0F0800D38
:104C0000854201D2FFF79AFF5A20B4FBF0F0800DE5
:104C1000854201D2FFF792FF2846FFF78FFF10E091
:104C2000BB68013D23F07F031D43BD603B68074A1D
:104C3000D906FBD5536843F0010353603B68DB079B
:104C4000FCD5054B0522DA60BDE8F0811047005025
:104C500040420F00FF8080F06041005037B50446AD
:104C60000020FFF7DDFDFFF7DFFEE3791BB9607A77
:104C7000FFF714FE06E0FFF7FBFEFFF7EFFE00284C
:104C8000FBD0F4E71C4BD3F8C430002BFAD1207AC8
:104C9000FFF7B0FE207CFFF711FE607CFFF722FEDD
:104CA000A07CFFF715FEE07CFFF726FEA37913B981
:104CB000E3783BB10BE0FFF701FFFFF71FFF002890
:104CC000FBD0F5E7A37963B9FFF72EFF09E0FFF703
:104CD00021FFA578A088E178627823780095FFF716
:104CE0003DFFE068B0F5803F01D1FFF799FD03B0CB
:104CF000BDE83040FBF7F4BA0040005010B5044660
:104D00000648FFF72BFE0548FFF774FD236823F0E4
:104D10000103236023689B07FCD410BD1000001022
:104D2000D0F8C83103F00F03012B03D0022B03D1BD
:104D300000F0E6B8FFF768BD0020704770B5054683
:104D400014460E46FFF7DAFFD5F8C83123F00F03FB
:104D500046EA0301C5F8C8112846FFF7E1FFB0FB9A
:104D6000F4F2C2F58062002A38BF002240F2FF331D
:104D70009A4228BF1A46EB6823F4434323F0FF030B
:104D8000EB60EB6843F480431343EB60C2F5806251
:104D9000B0FBF2F070BD0000037E012B14D103685C
:104DA0002022DA610368017B1A68090601F070614C
:104DB00022F070620A431A6002691A6142695A61FC
:104DC000024ADA6100207047032070474000280043
:104DD0000268916802F1384321F47F4110B5A3F5D0
:104DE000A83391609168DB0023F0FF030B439360CD
:104DF000037E012B044628D82023D361C37942685F
:104E000013F0200F08BF02F06041036803BF41EABE
:104E100082429A6181689A6106BF01F0604242EA6B
:104E200081428268DA60027E012A08D1FFF7B4FF6E
:104E300023684FF00062DA612368044A04E04FF40B
:104E40000062DA610368024ADA6110BDC000200620
:104E50004006A000436F490010B503248C4023EAAC
:104E600004034367436F8A401343436710BD704791
:104E7000C368184770B5114C206800F021F8064649
:104E8000C8B9251D0C342B681868FFF7A1FF55F829
:104E9000041B0B681A68936823F007000B7C03431C
:104EA00093609368C97B23F0700343EA0113A54222
:104EB0009360E8D100E00126304670BD7088FE1F87
:104EC000437A10B5044633B94068217A2268FFF767
:104ED00035FF01236372002010BD10B50446221D6A
:104EE000217C0068FFF72CFC2068217C627CFFF7A6
:104EF000B1FF002010BD01230370002070470000A7
:104F000000487047001BB70030B5164D0FCD87B075
:104F100001AC0FC42B68236001A8FFF79FFE00209F
:104F2000FFF7ACFC4FF48030FFF784FC0620FFF75E
:104F3000EDFCFFF71DFD64210320FFF723FD0A4A66
:104F4000936B23F4803393630220FFF7FDFC002072
:104F5000FFF77AFC0120FFF7EDFC0120FFF7E0FCF2
:104F600007B030BD7C5500080046005008B5094820
:104F7000FFF7C1FF60B90848FFF77AFF40B907485B
:104F8000FFF7ABFF20B90648BDE80840FFF7A5BF13
:104F900008BD00BF688BFE1F7088FE1F54550008B7
:104FA0006855000810B5ADF6984D72B6FFF7DEFFF4
:104FB000044600B1FEE7FBF71FFD0DF1020101A859
:104FC000ADF80240FFF7CCF9074A084B002814BFA0
:104FD000184610460123017C02688B405360FBF7A2
:104FE0005BFDFBF7D9F9FAE768550008545500084E
:104FF00070B50E4B0E4CE41AA41000251E46A542B7
:1050000004D056F8253098470135F8E7FFF72FFF11
:10501000084C094BE41AA41000251E46A54204D0F2
:1050200056F8253098470135F8E770BD8C88FE1F8B
:105030008C88FE1F8C88FE1F8C88FE1F024403464E
:10504000934202D003F8011BFAE77047000000000A
:105050007D330008010000009D33000802000000BD
:10506000BD33000803000000DD3300080400000029
:10507000FD330008050000001D3400080600000094
:10508000333400080700000049340008080000001D
:105090005F34000809000000753400080A000000B1
:1050A0008B3400080B000000AB3400080C0000003B
:1050B000CB3400080D000000E33400080E000000AF
:1050C000FD3400080F000000173500081000000034
:1050D00031350008110000004B35000812000000B7
:1050E00065350008130000007F350008140000003B
:1050F0009935000815000000BF35000816000000B3
:10510000E535000817000000FF3500081800000012
:105110001936000819000000333600081A00000094
:105120004D3600081B000000673600081C00000018
:105130007B3600081D0000008F3600081E000000AE
:105140009D3600081F000000AB360008200000005C
:10515000B336000821000000C73600082200000016
:10516000E136000823000000E936000830000000A6
:10517000FD360008310000001D3700083200000035
:105180003D370008330000005D37000834000000A0
:105190007D370008350000009D370008360000000C
:1051A000B337000837000000C93700083800000096
:1051B000DF37000839000000F53700083A0000002A
:1051C0000B3800083B0000002B3800083C000000B2
:1051D0004B3800083D000000613800083E00000028
:1051E000773800083F0000008D38000840000000BC
:1051F000A338000841000000B93800084200000050
:10520000CF38000843000000E538000844000000E3
:10521000FB380008450000001B390008460000006C
:105220003B390008470000005139000848000000E1
:1052300067390008490000007D3900084A00000075
:105240009339000850000000A939000851000000FF
:10525000C939000852000000E93900085300000075
:10526000093A000854000000293A000855000000DF
:10527000493A0008560000005F3A00085700000055
:10528000753A0008580000008B3A000859000000E9
:10529000A13A00085A000000B73A00085B0000007D
:1052A000D73A00085C000000F73A00085D000000F3
:1052B0000D3B00085E000000233B00085F0000007B
:1052C000393B0008600000004F3B0008610000000F
:1052D000653B0008620000007B3B000863000000A3
:1052E000913B000864000000A73B00086500000037
:1052F000C73B000866000000E73B000867000000AD
:10530000FD3B000868000000133C00086900000035
:10531000293C00086A0000003F3C000870000000C3
:10532000553C000871000000753C00087200000048
:10533000953C000873000000B53C000874000000B4
:10534000D53C000875000000F53C00087600000020
:105350000B3D000877000000213D000878000000A8
:10536000373D0008790000004D3D00087A0000003C
:10537000633D00087B000000833D00087C000000C6
:10538000A33D00087D000000B93D00087E0000003C
:10539000CF3D00087F000000E53D000880000000D0
:1053A000FB3D000881000000113E00088200000063
:1053B000273E0008830000003D3E000884000000F6
:1053C000533E000885000000733E00088600000080
:1053D000933E000887000000A93E000888000000F6
:1053E000BF3E000889000000D53E00088A0000008A
:1053F000EB3E000890000000013F00089100000013
:10540000213F0008A00000002D3F0008A800000078
:10541000493F0008A9000000513F0008AA00000011
:10542000653F0008B00000007F3F0008B1000000A9
:105430009F3F0008B2000000BF3F0008B30000001B
:10544000DF3F0008B4000000FF3F0008B500000087
:105450001F400008B600000035400008B7000000FB
:105460004B400008B800000061400008B90000008F
:1054700077400008BA0000008D400008BB00000023
:10548000AD400008BC000000CD400008BD00000099
:10549000E3400008BE000000F9400008BF00000023
:1054A0000F410008C000000025410008C1000000B5
:1054B0003B410008C200000051410008C300000049
:1054C00067410008C40000007D410008C5000000DD
:1054D0009D410008C6000000BD410008C700000053
:1054E000D3410008C8000000E9410008C9000000DD
:1054F000FF410008CA00000015420008CB00000070
:105500002B420008CC0000004B420008CD000000F8
:1055100061420008CE00000081420008CF00000078
:10552000A1420008D0000000B7420008D1000000EE
:10553000DD420008D8000000F1420008D900000058
:1055400017430008F80100002B430008FA0100008F
:105550004143000800840248800000000000010070
:1055600000000000000000000084024880000000ED
:1055700000000100000000000100000030020101F5
:105580000000010000000000000001000201010114
:105590003088FE1F00000000000000000000000036
:1055A00000000000000000005088FE1F0000000006
:1055B00000000000000001000000000000000000EA
:1055C00000500148FF070080FF070020080000008E
:1055D00000000000000000000100000000000000CA
:1055E00020500148FF070080FF070020080000004E
:1055F00000000000000000000100000000000000AA
:105600008088FE1F0088FE1F1888FE1F754E000848
:0C56100000449508004001480100000023
:0400000508000201EC
:00000001FF
