:020000040C00EE
:100000000088FE1F010200089902000899020008FA
:1000100099020008990200089902000800000000F7
:10002000000000000000000000000000990200082D
:10003000990200080000000099020008C91A00088F
:100040009902000899020008990200089902000824
:100050009902000899020008990200089902000814
:1000600099020008000000000000000000000000ED
:100070009902000800000000990200089902000897
:1000800099020008990200089902000899020008E4
:1000900099020008990200089902000899020008D4
:1000A00099020008990200089902000899020008C4
:1000B00099020008990200089902000899020008B4
:1000C00099020008990200089902000899020008A4
:1000D0009902000899020008990200089902000894
:1000E0009902000899020008990200089902000884
:1000F0009902000899020008990200089902000874
:100100009902000899020008990200089902000863
:100110009902000899020008990200089902000853
:100120009902000899020008990200089902000843
:100130009902000899020008990200089902000833
:100140009902000899020008990200089902000823
:100150009902000899020008990200089902000813
:10016000000000000000000000000000000000008F
:1001700099020008990200089902000899020008F3
:1001800099020008990200089902000899020008E3
:1001900099020008990200089902000899020008D3
:1001A00099020008990200089902000899020008C3
:1001B00099020008990200089902000899020008B3
:1001C00099020008990200089902000899020008A3
:1001D0009902000899020008990200080000000036
:1001E0009902000899020008990200089902000883
:1001F0009902000899020008990200080000000016
:10020000DFF874D01D4880471D4C1E4DAC4209DA02
:1002100021686268A368043BA2BFC858D050FAE7BF
:100220000C34F3E7184B194CA34208DA19685A68E2
:100230000020043AA4BF8850FBE70833F4E71448D1
:1002400080471448804700005437000C0088FE1F88
:10025000700000005437000C0088FE1F00000000F2
:100260007088FE1F0C02000000000020000000004B
:1002700000000020000000000088FE1F9D02000812
:1002800048020008600200086002000878020008C6
:100290004923000859210008FEE7000098B500AF87
:1002A000054A4FF0005314460FCB84E80F0001F0CD
:1002B0006DFD01F0E9FD98BDC4FF032080B584B059
:1002C00000AF2F4BDB6803F48033002B3ED02D4B67
:1002D000DB6803F00103002B02D02B4BFB6002E034
:1002E00001F0B4FDF860274B1B6803F00403002BFA
:1002F00020D0244B9B6803F070631B0E0133BB605E
:10030000204B9B6803F4FE431B0A01337B601D4BAB
:100310009B6803F4FE031B0C01333B60BB683A6827
:1003200002FB03F3FA68B2FBF3F37A6802FB03F310
:10033000FB600DE0134B9B6803F07F0301333B60D0
:10034000FA683B68B2FBF3F3FB6001E00E4BFB6025
:100350000B4BDB68DBB20133FA68B2FBF3F3FB60F3
:10036000074B1B6903F001030133FA68B2FBF3F397
:10037000FB60064AFB6813601037BD4680BD00BFB6
:10038000004600501047005000366E01C0FF0320A9
:1003900080B485B000AFF8600B467A60FB72FB7AE0
:1003A0009B08DBB21846FB7A9B08DBB21A46FB6857
:1003B000043253F82220FB7A03F00303DB001946D2
:1003C000F8238B40DB4302EA0301FB68021D43F87C
:1003D0002210FB685A6FFB7A5B00194603238B409F
:1003E000DB431A40FB685A67FB683A4A934203D0E2
:1003F000FB68394A93420AD1FB681A6EFB7A0121E5
:1004000001FA03F3DB431A40FB681A6642E07B689B
:100410001B78DBB25BB2002B3CDA7B685A68FB7A54
:100420009A40FB685A60FB7ADB08DBB21846FB7A1D
:10043000DB08DBB21A46FB68103253F82220FB7A45
:1004400003F007039B00194607238B40DB4302EAB6
:100450000301FB6800F1100243F82210FB7ADB086D
:10046000DBB21846FB7ADB08DBB21A46FB681032B7
:1004700053F822207B681B7A1946FB7A03F00703A6
:100480009B0001FA03F342EA0301FB6800F110024A
:1004900043F82210FB7A9B08DBB21846FB7A9B08D4
:1004A000DBB21A46FB68043253F822207B681B78C3
:1004B0001946FB7A03F00303DB0001FA03F342EA77
:1004C0000301FB68021D43F822101437BD465DF896
:1004D000047B7047008E0248008F024880B400AF52
:1004E000034B1B681846BD465DF8047B704700BF90
:1004F000C0FF032080B400AF034BD3F8C4301846CC
:10050000BD465DF8047B70470040005080B584B064
:1005100000AF7860FFF7D2FE0B4B1B680B4AA2FBC3
:1005200003239A0C7B6802FB03F37B600023FB60D0
:1005300003E000BFFB680133FB60FA687B689A4206
:10054000F7D31037BD4680BDC0FF032083DE1B43B9
:1005500080B400AF034B5B681846BD465DF8047B72
:10056000704700BF7440005080B483B000AF786023
:10057000034A7B68D3600C37BD465DF8047B704747
:1005800074400050B0B584B002AF7860002000F035
:10059000C5F800F0CBFA7B68DB79002B0AD000F0BD
:1005A00003FB00BF00F0EEFA034683F00103DBB269
:1005B000002BF7D17B685B7A184600F029F900BF61
:1005C000FFF798FF0346002BFAD17B681B7A184689
:1005D00000F086FA7B681B7C184600F037F97B68D0
:1005E0005B7C184600F05AF97B689B7C184600F04B
:1005F00041F97B68DB7C184600F064F97B689B79E5
:10060000002B0AD000F008FB00BF00F02DFB0346D2
:1006100083F00103DBB2002BF7D17B68DB78002B82
:1006200009D17B689B7983F00103DBB2002B17D0E3
:1006300000F03EFB14E000F02BFB7B6899887B68A0
:10064000DA787B685B781D467B681B781C467B6884
:100650009B780093084611462A46234600F038FB53
:100660007B68DB68B3F5803F03D14FF4803000F046
:1006700055F8FFF723FE0837BD46B0BD80B485B0FE
:1006800000AF78607B681B0FFB607B6823F07043D2
:10069000BB60FA6813465B0013449B001A46044B88
:1006A0001344BA681A601437BD465DF8047B70477E
:1006B0001444005080B485B000AF78607B681B0F95
:1006C000FB607B6823F07043BB60FA6813465B00F5
:1006D00013449B001A46084B13441A68BB68134026
:1006E000002B14BF01230023DBB218461437BD468C
:1006F0005DF8047B704700BF0C44005080B500AF2C
:10070000FFF7ECFE0246044B5B6903F0010322FA9B
:1007100003F3184680BD00BF0046005080B483B08C
:1007200000AF78600649064BDB6823F480327B68B3
:100730001343CB600C37BD465DF8047B704700BFA8
:100740000046005080B483B000AF78600649064B85
:100750009B6923F480327B6813438B610C37BD4661
:100760005DF8047B704700BF0046005080B483B042
:1007700000AF78600649064B5B6A23F440327B6821
:1007800013434B620C37BD465DF8047B704700BFD6
:100790000046005080B483B000AF0346FB80FB8866
:1007A000002B08D10A4A0A4BDB6823F4807323F03C
:1007B0000103D36007E0064A054BDB6843F480730E
:1007C00043F00103D3600C37BD465DF8047B7047EE
:1007D0001047005080B483B000AF0346FB7100BFE8
:1007E000094BD3F8C43003F00803002BF8D10749B4
:1007F000064BDB6823F04002FB791343CB600C37D8
:10080000BD465DF8047B7047004000500043005037
:1008100080B483B000AF0346FB7100BF094BD3F82F
:10082000C43003F00803002BF8D10749064BDB68FE
:1008300023F08002FB791343CB600C37BD465DF893
:10084000047B7047004000500043005080B483B0E8
:1008500000AF78600649064BDB6823F0FF027B6837
:10086000013B1343CB600C37BD465DF8047B7047FA
:100870000046005080B483B000AF78600649064B54
:100880001B6A23F001027B68013B13430B620C37A8
:10089000BD465DF8047B70470046005080B483B0CD
:1008A00000AF78600649064B1B6923F001027B68A4
:1008B000013B13430B610C37BD465DF8047B704769
:1008C0000046005080B483B000AF78600649064B04
:1008D0005B6923F001027B68013B13434B610C37DA
:1008E000BD465DF8047B70470046005080B483B07D
:1008F00000AF78600649064B9B6923F007027B68CE
:10090000013B13438B610C37BD465DF8047B704798
:100910000046005080B483B000AF78600649064BB3
:10092000DB6923F03F027B68013B1343CB610C374B
:10093000BD465DF8047B70470046005080B483B02C
:1009400000AF78600649064B5B6A23F0FF027B68C4
:10095000013B13434B620C37BD465DF8047B704787
:100960000046005080B483B000AF78600649064B63
:100970009B6B23F003027B68013B13438B630C37B3
:10098000BD465DF8047B70470046005080B485B0DA
:1009900000AF78607B681B0FFB607B6823F07043BF
:1009A000BB60FA6813465B0013449B001A46044B75
:1009B0001344BA681A601437BD465DF8047B70476B
:1009C0004846005080B485B000AF78607B681B0F4C
:1009D000FB607B6823F07043BB60FA6813465B00E2
:1009E00013449B001A46084B13441A68BB68134013
:1009F000002B14BF01230023DBB218461437BD4679
:100A00005DF8047B704700BF4046005080B400AFE3
:100A1000054A054B5B6923F4803323F002035361DD
:100A2000BD465DF8047B70471047005080B483B02A
:100A300000AF78603960284A274B5B6943F00103B7
:100A4000536100BF244B1B6903F00103002BF9D055
:100A5000214A214B5B6943F0100353611E493B68F7
:100A6000013B1A027B68013B1B0613434B611A4A88
:100A7000194B5B6943F040035361174A164B5B699E
:100A800023F010035361144A134B5B6943F4802332
:100A9000536100BF104B1B6903F00403002BF9D016
:100AA0000D4A0D4B5B6923F00103536100BF0A4BF4
:100AB0001B6903F00103002BF9D1074A064B5B6960
:100AC00023F040035361054B0822DA600C37BD4622
:100AD0005DF8047B704700BF104700506041005034
:100AE00080B582B000AF0346FB710F4A0E4B5B68C6
:100AF00043F480135360FB79012B0ED10A4A0A4B51
:100B00005B6823F4801353606420FFF7FFFC064A00
:100B1000054B5B6843F4002353606420FFF7F6FC49
:100B20000837BD4680BD00BF1047005080B400AFFD
:100B3000124B1B6803F00103002B09D10F4B01225C
:100B40005A6000BF0D4B1B6803F00103002BF9D066
:100B50000B4B1B6803F40073002B0AD0084B4FF4B7
:100B600000729A6000BF064B1B6803F40073002BF1
:100B7000F9D1BD465DF8047B704700BF00420050CC
:100B80000044005080B400AF064B1B6803F008031C
:100B9000002B0CBF01230023DBB21846BD465DF8D5
:100BA000047B70470043005080B500AF4FF4000055
:100BB000FFF7DAFC174A174BDB6923F03003D361E8
:100BC00000BFFFF7C5FC034603F40003002BF8D079
:100BD0004FF40030FFF7C8FC0E4B08225A6000BFEC
:100BE000FFF7B6FC034603F40033002BF8D04FF4B4
:100BF0000020FFF7B9FC074A064BDB6843F0080307
:100C0000D36000BFFFF7A4FC034603F40023002BCE
:100C1000F8D080BD00430050B0B500AF0F4A0F4B75
:100C20005B6823F4803353600D4D0D4B5B6823F4F8
:100C3000702424F0300401F009F90246094BA3FBAB
:100C400002231B0D013B1B0423436B60034A034B30
:100C50005B6823F400335360B0BD00BF1047005001
:100C6000004700506BCA5F6B80B400AF074B1B6836
:100C700003F46073B3F5607F0CBF01230023DBB284
:100C80001846BD465DF8047B704700BF1047005012
:100C900080B400AF054A054B5B6823F4803323F032
:100CA00002035360BD465DF8047B70471047005057
:100CB00080B400AF054A054B5B6843F4803343F0D2
:100CC00002035360BD465DF8047B70471047005037
:100CD00080B586B000AFBA607B600346FB810B46EF
:100CE0007B73FB891846FFF755FD7B7B012B40F09A
:100CF0008B80FB89002B09D101F0A8F80246544BE8
:100D0000A3FB02239B0C9B057B6102E04FF0C063B9
:100D10007B617B697A6802FB03F2BB68B2FBF3F389
:100D20007B617B694B4AA2FB03231B099B0D3B6143
:100D3000494A494B5B6843F00103536000BF464B8F
:100D40001B6803F00103002BF9D0434A424B5B6858
:100D500043F01003536040493F4B9A683F4B1340A8
:100D60007A68013A12021A433B69013B1B041A4399
:100D7000BB68013B1B0613438B60374A364B5B68ED
:100D800043F040035360344A334B5B6823F0100355
:100D90005360314A304B5B6843F48023536000BF9B
:100DA0002D4B1B6803F00403002BF9D02A4A2A4B71
:100DB0005B6823F00103536000BF274B1B6803F0FF
:100DC0000103002BF9D17B69254AA2FB03235B09B0
:100DD0009B0D3B613A6A3B699A4202D2386900F046
:100DE00045F87B695B081F4AA2FB03235B099B0D47
:100DF0003B613A6A3B699A4202D2386900F036F8A0
:100E0000386A00F033F81CE01349134B9B6823F059
:100E10007F023B6A013B13438B6000BF0E4B1B6894
:100E200003F01003002BF9D00B4A0B4B5B6843F027
:100E30000103536000BF084B1B6803F00103002B44
:100E4000F9D0094B0522DA601837BD4680BD00BFD6
:100E500083DE1B43ABAAAAAA10470050FF8080F094
:100E600089888888B7600BB66041005080B582B031
:100E700000AF78600B490B4B9B6823F4FE027B6844
:100E8000013B1B0413438B6000BF064B1B6803F040
:100E90002003002BF9D03220FFF738FB0837BD467E
:100EA00080BD00BF1047005080B483B000AF7860B1
:100EB0000B46FB701346BB707B685A6FFB785B0078
:100EC000194603238B40DB431A407B685A677B68D3
:100ED0005A6FBB78F97849008B401A437B685A6790
:100EE0000C37BD465DF8047B704700BF80B586B007
:100EF00000AFF860B9601346FB7110237B61F8689E
:100F000000F05EF8BB681B7A002B02D0BB681B7A2E
:100F10007B61FB79002B14D0BB681B79002B09D0B7
:100F2000BB681B681A467B69F86811461A4600F0D0
:100F300005F906E0BB681B68F86819467A6900F095
:100F40008BF8BB68DB79013B5A007B695B08013396
:100F50001B02134343F4403343F00103FA68D363A5
:100F6000BB685B79013B1B0643F48172FB685A63E3
:100F7000BB689B79002B09D0FB685A6BBB689B79D7
:100F8000013B1B041A43FB685A6308E0FB685A6B79
:100F9000BB685B79013B1B041A43FB685A63FB681F
:100FA0004FF4A0629A63FB684FF0FF32DA64BB68CB
:100FB0005B891A46FB681A641837BD4680BD00BFBE
:100FC00080B582B000AF78607B681A4A934203D044
:100FD0007B68194A934203D1184800F0D9F916E00A
:100FE0007B68174A934203D07B68164A934203D129
:100FF000154800F0CDF90AE07B68144A934203D00B
:101000007B68134A934202D1124800F0C1F97B6811
:101010000322DA6000BF7B68DB6803F00103002B6A
:10102000F9D07B681B6C23F00F027B681A640837C9
:10103000BD4680BD0000034000020340080003409D
:10104000000002480002024808000248004002482E
:10105000004202480840024880B58EB000AFF860F8
:10106000B9607A60BB68632B5AD97B68002B57D074
:10107000FFF744FB02462F4BA3FB02235B093B62B5
:10108000BB682C4AA2FB03235B09BB604FF480635F
:10109000FB620123BB6240F2FF337B624FF480634B
:1010A0003B6322E03B6A3A6B02FB03F2BB68796860
:1010B00001FB03F3B2FBF3F3FB61FB699B0ABB612A
:1010C000FB69C3F309037B61BB69B3F5806F09D882
:1010D0007A697B6A9A4205D27B697B62BB69BB6293
:1010E0003B6BFB623B6B013B3B633B6B002BD9D102
:1010F000FB6A013B43F40042FB681A61FB685A69D2
:101100000D4B13407A68013A92021A43BB6A013BC5
:101110001B041A43FB685A61002387F8373002E04A
:10112000012387F8373097F8373018463837BD46EF
:1011300080BD00BF1F85EB51EF8000FC80B58CB0F7
:1011400000AFF860B9607A60FFF7D8FA03463B62F7
:10115000BB687A6802FB03F3FB610123FB623A6A16
:10116000FB699A425FDD3A6AFB6992FBF3F3BB626B
:1011700010E0FB6A0133FB62BB687A6802FB03F391
:101180001A46FB6A03FB02F3FB613A6AFB6992FBB6
:10119000F3F3BB62BB6A40F2FE329342E9D83A6A8B
:1011A0007B68B96A01FB03F3F96A01FB03F3B2FB45
:1011B000F3F3BB613A6ABB6A0133796801FB03F35D
:1011C000F96A01FB03F3B2FBF3F37B61BA687B6955
:1011D000D31A83EAE372A2EBE372B968BB69CB1A54
:1011E000002BB8BF5B429A4202DABB6A0133BB6292
:1011F000BB6AC3F58063BB62BB6A43F48042FB6891
:101200001A61FB685A690C4B13407A68013A9202E2
:101210001A43FB6A013B1B041A43FB685A61002313
:1012200087F8273002E0012387F8273097F8273026
:1012300018463037BD4680BDEF8000FC80B485B0D5
:1012400000AFF860B9603B601346FB71FB68D3F8F0
:10125000083123F0E062FB68C3F80821FB68D3F88B
:101260000821094B13403A681102BA681143FA7910
:1012700012060A431A43FB68C3F808211437BD4617
:101280005DF8047B704700BFC0C0FFF880B485B034
:1012900000AFF860B9603B601346FB71FB68D3F8A0
:1012A0000C3123F0E062FB68C3F80C21FB68D3F833
:1012B0000C210A4B13403A681102BA681143FA79BB
:1012C00012060A43134343F08052FB68C3F80C2113
:1012D0001437BD465DF8047B704700BFC0C0FFEF08
:1012E00080B485B000AFF8600B467A60FB72FB6893
:1012F0009A69FB7A072101FA03F3DB431A40FB7A70
:10130000796801FA03F31A43FB689A611437BD4602
:101310005DF8047B704700BF80B485B000AFF86013
:101320000B467A60FB72FB68D3F80821FB7A072131
:1013300001FA03F3DB431A40FB7A796801FA03F3FD
:101340001A43FB68C3F808211437BD465DF8047BD7
:10135000704700BF80B485B000AFF8600B467A607C
:10136000FB72FB68D3F80C21FB7A072101FA03F327
:10137000DB431A40FB7A796801FA03F31A43FB68EE
:10138000C3F80C211437BD465DF8047B704700BFDD
:1013900080B582B000AF78607B68284A934218D14C
:1013A0004FF40060FFF7F2FA00BF4FF40060FFF760
:1013B00009FB0346002BF8D14FF40060FFF75EF9FC
:1013C00000BF4FF40060FFF775F90346002BF8D11A
:1013D00030E07B681A4A934214D11A48FFF7D6FAD4
:1013E00000BF1848FFF7EEFA0346002BF9D1154865
:1013F000FFF744F900BF1348FFF75CF90346002BE1
:10140000F9D117E07B68104A934213D10F48FFF7D8
:10141000BDFA00BF0D48FFF7D5FA0346002BF9D1FE
:101420000A48FFF72BF900BF0848FFF743F90346C6
:10143000002BF9D10837BD4680BD00BF080003402E
:101440000800024880000010084002480001001017
:1014500080B584B000AF7860144B1B68002B02D1BC
:10146000124B134A1A60114B1B68FB607B680333F5
:1014700023F003037B600D4B1A687B6813440D4A0D
:10148000934207D2094B1A687B681344074A1360DA
:10149000FB6806E000F052FF02460C2313604FF099
:1014A000FF3318461037BD4680BD00BF7088FE1F51
:1014B00000000020C0FF032080B400AFBD465DF8EF
:1014C000047B704780B584B000AF78600023FB7365
:1014D0007B685B685B6898470346FB73FB7B184639
:1014E0001037BD4680BD00BF80B483B000AF7860C8
:1014F0000B46FB701346BB70F878FB787A680633AE
:101500009B0013445B6823F00702BB781A43796899
:10151000831D9B000B445A600C37BD465DF8047B6D
:10152000704700BF80B483B000AF786039607B68DB
:10153000D3F808213B681A437B68C3F808210C37AD
:10154000BD465DF8047B704780B483B000AF78601F
:1015500039607B68D3F80C213B681A437B68C3F879
:101560000C210C37BD465DF8047B704780B582B016
:1015700000AF78603960786839680122FFF7B6FCFF
:101580000837BD4680BD00BF80B483B000AF78602F
:101590007B681B6C23F00F0343F002027B681A6424
:1015A0000C37BD465DF8047B704700BF80B582B044
:1015B00000AF0023FB7125480F21254AFEF7E8FE06
:1015C00024482549FFF7D2FF224800210222FFF7D5
:1015D0008BFF2048102104220123FFF72FFE1D4816
:1015E000002104220F23FFF751FE1A48FFF7CCFF1A
:1015F00016480E21194AFEF7CBFE1648102102228A
:10160000FFF76EFE134810210122FFF785FE1148F7
:101610004FF08041FFF786FF0E4810210022FFF7B0
:1016200099FE0C484FF08041FFF78EFF09481321C7
:101630000022FFF78FFE07484FF00051FFF784FFAD
:10164000FB7918460837BD4680BD00BF00820248BE
:1016500070350008000002482435000830350008C5
:1016600080B400AF044BDB6803F4E0631B0A184648
:10167000BD465DF8047B704700ED00E080B483B0A8
:1016800000AF03463960FB7197F90730002B0ADB86
:101690000D4997F907303A68D2B29200D2B20B44A2
:1016A00083F800230AE00949FB7903F00F03043BA8
:1016B0003A68D2B29200D2B20B441A760C37BD46C9
:1016C0005DF8047B704700BF00E100E000ED00E042
:1016D00080B489B000AFF860B9607A60FB6803F04D
:1016E0000703FB61FB69C3F10703062B28BF062331
:1016F000BB61FB690633062B02D9FB69013B00E0A5
:1017000000237B61BB69012202FA03F35A1EBB6806
:101710001A407B699A407B69012101FA03F3591E43
:101720007B680B40134318462437BD465DF8047BA5
:10173000704700BF80B582B000AF78607B68013B26
:10174000B3F1807F01D301230FE00A4A7B68013B9C
:1017500053604FF0FF303F21FFF790FF054B002211
:101760009A60044B07221A60002318460837BD46CA
:1017700080BD00BF10E000E090B486B000AF78609C
:101780000023FB736B497A681346DB0013449B000C
:101790000B4418331B68BB60674B1B68002B09D1D7
:1017A0007A681346DB0013449B00624A1344624A82
:1017B0001360BBE0604B1B687B61BB683B61ABE0C7
:1017C0007B699B691A463B699B1A3B613B69002B0D
:1017D0007ADC7B695B68002B26D07B6959687A6864
:1017E0001346DB0013449B00524A13440B607B6991
:1017F000596850487A681346DB0013449B00034441
:1018000059604C497A681346DB0013449B000B4433
:101810007A691A607A681346DB0013449B00454AD4
:101820001A447B695A601CE0434B196841487A6846
:101830001346DB0013449B00034419603E4B1968B8
:101840007A681346DB0013449B003A4A13444B600A
:101850007A681346DB0013449B00364A1344364A29
:10186000136034497A681346DB0013449B000B4431
:101870001B689A693B69D1182E487A681346DB00C9
:1018800013449B000344183319602A497A681346AD
:10189000DB0013449B000B44196826487A68134602
:1018A000DB0013449B0003441B689869214C7A6851
:1018B0001346DB0013449B00234418331B68C31AF0
:1018C0008B610123FB7324E03B69002B21DD7B69E5
:1018D0001B68002B1DD117497A681346DB0013449F
:1018E0009B000B447A695A607A681346DB00134404
:1018F0009B00104A1A447B691A6039690D487A685E
:101900001346DB0013449B00034418331960012382
:10191000FB737B691B687B617B69002B06D0FB7BBB
:1019200083F00103DBB2002B7FF44AAF1837BD46CA
:1019300090BC70475889FE1F9088FE1F80B485B008
:1019400000AF78607A681346DB0013449B00294A95
:101950001344FB60FB685B68002B07D1FB681B68C6
:10196000002B03D1244B00221A603DE0FB685B682A
:10197000002B14D1FB681B681F4A13601E4B1B68A9
:1019800000225A601C4B1B681B4A12689169FA6856
:1019900092690A449A61FB6800221A6024E0FB689D
:1019A0001B68002B07D1FB685B6800221A60FB688C
:1019B00000225A6018E0FB685B68FA6812681A60D7
:1019C000FB681B68FA6852685A60FB681B68FA6813
:1019D00012689169FA6892690A449A61FB68002268
:1019E0001A60FB6800225A601437BD465DF8047B1C
:1019F000704700BF5889FE1F9088FE1F80B582B0D7
:101A000000AF2F4B1B687B6050E07B6893F8203061
:101A1000002B13D07B685B691846FFF78FFF7B684C
:101A200000225A737B685B691A4601239340DA43AC
:101A3000244B1B681340234A136034E07B681B7BF4
:101A4000002B12D17B685B7B012B2CD17B685B69FF
:101A50001846FFF773FF7B6802225A737B689B6806
:101A60007A681269104698471DE07B681B7B012B42
:101A700018D17B685B7B012B15D17B685B691846AD
:101A8000FFF75CFF7B68DA697B689A617B685B695A
:101A90001846FFF771FE7B689B687A6812691046EA
:101AA000984700E009E0064B1B687B607B68002BD1
:101AB00003D07B689B69002BA7D00837BD4680BD4B
:101AC0009088FE1F9488FE1F80B582B000AF0E4B39
:101AD0001B687B600D4B1B6801330C4A13607B68ED
:101AE000002B0ED07B689B69012B05D97B689B6915
:101AF0005A1E7B689A6104E07B6800229A61FFF7B6
:101B00007DFF0837BD4680BD9088FE1F9888FE1F68
:101B100080B584B000AF78600023FB737B681B78CE
:101B200083F00103DBB2002B24D0154B00221A6096
:101B30001448FFF7FFFD0346FB73FB7B012B03D12A
:101B4000114800F02FFC15E0FFF78AFD0346184608
:101B50003F210022FFF7BCFD03464FF0FF3019463E
:101B6000FFF78CFD094B00221A607B6801221A7076
:101B70000023FB73FB7B18461037BD4680BD00BFBA
:101B80009088FE1F803202007C3500089488FE1F7A
:101B900080B400AF044BDB6803F4E0631B0A184613
:101BA000BD465DF8047B704700ED00E080B483B073
:101BB00000AF0346FB7197F90730002B0BDB084998
:101BC00097F907305B09FA7902F01F02012000FA49
:101BD00002F241F823200C37BD465DF8047B7047C4
:101BE00000E100E080B483B000AF03463960FB71D0
:101BF00097F90730002B0ADB0D4997F907303A684F
:101C0000D2B29200D2B20B4483F800230AE0094911
:101C1000FB7903F00F03043B3A68D2B29200D2B2D0
:101C20000B441A760C37BD465DF8047B704700BF45
:101C300000E100E000ED00E080B489B000AFF860A2
:101C4000B9607A60FB6803F00703FB61FB69C3F1CD
:101C50000703062B28BF0623BB61FB690633062B4F
:101C600002D9FB69013B00E000237B61BB690122D3
:101C700002FA03F35A1EBB681A407B699A407B69DB
:101C8000012101FA03F3591E7B680B4013431846E8
:101C90002437BD465DF8047B704700BF80B582B035
:101CA00000AF78607B681B785BB21846FFF77EFF59
:101CB0000837BD4680BD00BF90B583B000AF7860E7
:101CC0007B681C78FFF764FF01467B685B781A46E7
:101CD0007B689B78084611461A46FFF7ADFF02461F
:101CE00063B218461146FFF77DFF7B68DB78002B57
:101CF00002D07868FFF7D2FF002318460C37BD46A4
:101D000090BD00BF80B582B000AF78607B68196875
:101D10007B681A7C7B680433084611461A46FEF736
:101D200037FB7B6819687B681A7C7B685B7C08469C
:101D300011461A46FFF7B8F8002318460837BD4683
:101D400080BD00BF80B485B000AF78607B6803F0D1
:101D50000703FB600C4BDB68BB60BA684FF6FF0300
:101D60001340BB60FB681A02BB68134343F0BF63B8
:101D700043F40033BB60044ABB68D3601437BD46EC
:101D80005DF8047B704700BF00ED00E080B582B0D5
:101D900000AF0120FFF7D6FF72B6214B214A9A60AF
:101DA000BFF34F8F62B61E4A1D4BD3F8883043F401
:101DB0007003C2F888301C4B03F5805314331B6842
:101DC0007B607B6823F00F037B607B6843F0040338
:101DD0007B60154B03F5805314337A681A60104A00
:101DE0000F4B5B6923F0100353610D4A0C4B5B6989
:101DF00023F0080353610A4A094B5B6A23F48033DA
:101E00005362074A064B5B6A23F400335362044A69
:101E1000034B5B6A23F4802353620837BD4680BDC1
:101E200000ED00E0000000080010005880B485B00C
:101E300000AF78600023FB737B6801221A70FB7B84
:101E400018461437BD465DF8047B704780B400AF78
:101E5000024B1846BD465DF8047B7047001BB70077
:101E600080B483B000AF78600649064B9B6B23F4C7
:101E700080327B6813438B630C37BD465DF8047B6F
:101E8000704700BF00460050B0B586B000AF164B9B
:101E90003C1D1D460FCD0FC42B6823603B1D18460B
:101EA000FEF770FB0020FEF795FC4FF48030FEF744
:101EB00049FC0620FEF71AFDFEF7A8FD0320642169
:101EC000FEF7B4FD0020FFF7CBFF0220FEF74AFD2E
:101ED0000020FEF74BFC0120FEF730FD0120FEF74D
:101EE00019FD1837BD46B0BDC835000880B582B0B1
:101EF00000AF0023FB711948FFF798FF0346FB7101
:101F0000FB79002B04D11648FFF7DCFA0346FB717E
:101F1000FB79002B04D11348FFF7FAFD0346FB7150
:101F2000FB79002B04D11048FFF7C6FE0346FB7176
:101F3000FB79002B04D10D48FFF7BEFE0346FB7171
:101F4000FB79002B04D10A48FFF7DCFE0346FB7146
:101F5000FB7918460837BD4680BD00BFA088FE1F2C
:101F60000088FE1F9C88FE1FAC350008B0350008B5
:101F7000B435000880B483B000AF0346FB7197F915
:101F80000730002B10DB0B4997F907305B09FA7912
:101F900002F01F02012000FA02F2203341F8232050
:101FA000BFF34F8FBFF36F8F0C37BD465DF8047BD7
:101FB000704700BF00E100E080B483B000AF7860FC
:101FC0000B467B807A887B68C3F880210C37BD463E
:101FD0005DF8047B704700BF80B483B000AF7860C9
:101FE0007B68D3F8143103F48053002B14BF012312
:101FF0000023DBB218460C37BD465DF8047B704702
:1020000080B483B000AF78607B68D3F8143103F4F8
:102010000063002B14BF01230023DBB218460C37EA
:10202000BD465DF8047B704780B483B000AF786034
:102030007B68D3F81C319BB218460C37BD465DF85F
:10204000047B704780B483B000AF78607B684FF446
:102050008042C3F818210C37BD465DF8047B7047F9
:1020600080B483B000AF78607B68D3F8143103F09C
:102070000803002B14BF01230023DBB218460C37E2
:10208000BD465DF8047B704780B483B000AF7860D4
:102090007B689B6C18460C37BD465DF8047B704727
:1020A00080B485B000AF78600023FB6002E0FB687D
:1020B0000133FB607B684FF4E14202FB03F2FB68F3
:1020C0009A42F4D81437BD465DF8047B704700BFD0
:1020D00080B584B000AF786039601E4B1B6818462D
:1020E000FFF7B0FF0023FB6016E000BF194B1B6831
:1020F0001846FFF771FF0346002BF7D1154B1968FF
:102100007A68FB6813441B789BB208461946FFF7B0
:1021100053FFFB680133FB60FA683B689A42E4D3E3
:1021200000BF0C4B1B681846FFF76AFF034683F09D
:102130000103DBB2002BF4D100BF064B1B6818462D
:10214000FFF7A2FF034603F00103002BF5D0103781
:10215000BD4680BD0088FE1F90B5CFB000AFFFF731
:10216000C5FE01F075F85B20FFF704FF5A20FFF76A
:1021700001FF654800F08CF96448142100F012F961
:102180000023C7F834310DE0614AD7F834311344E5
:102190001B786048194600F005F9D7F8343101334F
:1021A000C7F83431D7F83431132BEDD95A4800F041
:1021B0006FF957481421FFF78BFF0023C7F8303120
:1021C0000DE0D7F83041631CC7F83031534B1B6822
:1021D0001846FFF729FF0346DAB23B461A554F4B24
:1021E0001B681846FFF73CFF034683F00103DBB290
:1021F000002B03D0D7F830311F2BE2D90023C7F8CA
:102200002C31474BC7F8283122E0444B1B68184655
:10221000FFF726FF034683F00103DBB2002B12D049
:10222000D7F82C41631CC7F82C313C4B1B6818466F
:10223000FFF7FAFE0346DAB207F120031A55394BCD
:10224000C7F8283104E0D7F82831013BC7F8283116
:10225000D7F82831002B03D0D7F82C31FF2BD4D955
:102260003148D7F8301100F09DF80023C7F8243129
:102270000DE03A46D7F8243113441B782548194617
:1022800000F090F8D7F824310133C7F82431D7F89B
:102290002421D7F830319A42EBD3D7F83031002BD4
:1022A00002D1224800F07EF81B4800F0F1F82048E7
:1022B000D7F82C1100F076F80023C7F820310EE093
:1022C00007F12002D7F8203113441B781148194632
:1022D00000F068F8D7F820310133C7F82031D7F87B
:1022E0002021D7F82C319A42EAD3D7F82C31002B91
:1022F00002D1104800F056F80F4800F0C9F84FF42A
:10230000FA60FFF7CDFE37E7DC3500081836000825
:10231000A036000828360008303600080088FE1F66
:1023200000BADB0000F91500343600084836000812
:10233000683600087C3600089C360008014B186897
:10234000704700BF6C88FE1F70B50E4B0E4CE41A30
:10235000A41000251E46A54204D056F82530984703
:102360000135F8E7FFF7A8F8084C094BE41AA41068
:1023700000251E46A54204D056F825309847013561
:10238000F8E770BD7088FE1F7088FE1F7088FE1F02
:102390007088FE1F02440346934202D003F8011BDB
:1023A000FAE770470FB40A4B13B51C6824B1A36950
:1023B00013B9204600F022FA05AB2046A168049A22
:1023C000019300F0B3FB02B0BDE8104004B07047C9
:1023D0006C88FE1F70B50E46054618B183690BB9AF
:1023E00000F00CFAAC68A389190701D5236983B9F9
:1023F0002846214600F0A8F858B14FF0FF3070BDD4
:10240000002B0EDB236816F8012C1A7023680133A9
:102410002360A36816F8012B013BA360002AEFD1CB
:1024200016E0A269934209DB236816F8012C1A70A2
:10243000236819780A29EAD1284602E016F8011C17
:102440002846224600F02CF8421C50425041D3E767
:10245000002B15DAA269934208DB23680A221A705E
:102460002368197891420FD1284601E028460A21B5
:10247000224600F015F8431C5842584130B1BCE7E1
:1024800023680A221A702368013323600A2070BD72
:10249000024B01461868FFF79DBF00BF6C88FE1F06
:1024A00070B50D461446064618B183690BB900F0A5
:1024B000A5F9224B9C4201D1746808E0204B9C4254
:1024C00001D1B46803E01F4B9C4208BFF468A369C4
:1024D000A360A3891A0709D523693BB12368206942
:1024E000181A63699842EDB20FDB08E030462146C6
:1024F00000F02AF80028F1D04FF0FF3070BD3046D0
:10250000214600F011F90028F6D1A368013BA36031
:1025100023685A1C22601D7063690130984204D000
:10252000A389DB0707D50A2D05D13046214600F0E7
:10253000FBF80028E0D1284670BD00BFBC3600087B
:10254000DC360008FC360008314B70B51D680646C5
:102550000C4625B1AB6913B9284600F04FF92D4B55
:102560009C4201D16C6808E02B4B9C4201D1AC68C5
:1025700003E02A4B9C4208BFEC68A3899AB211077A
:102580001DD4D50602D40922326038E0500712D596
:10259000616B41B104F14403994202D0304600F02E
:1025A00003FA00236363A38923F02403A381002398
:1025B000636023692360A38943F00803A38123692F
:1025C0004BB9A38903F42073B3F5007F03D03046E1
:1025D000214600F09BF9A38913F0010205D00022E7
:1025E000A26062695242A26103E0990758BF626922
:1025F000A26022694AB903F0800080B230B143F092
:102600004003A3814FF0FF3070BD002070BD00BFBC
:102610006C88FE1FBC360008DC360008FC3600085B
:102620008A892DE9F041054610070C4657D44B68BE
:10263000002B02DC0B6C002B18DDE66AB6B102F44D
:102640008052002392B22F682B600AB1626D10E0B5
:10265000216A28460123B047411C024609D12B6854
:102660003BB11D2B01D0162B47D12F600020BDE8B8
:10267000F081A3895B0705D56368D21A636B0BB140
:10268000236CD21AE66A216A00232846B047461C0A
:10269000A38905D12A681AB11D2A01D0162A19D199
:1026A00000226260D9042269226004D5421C01D153
:1026B0002B6803B96065616B2F600029D6D004F1E7
:1026C0004403994202D0284600F06EF9002060636E
:1026D000BDE8F08143F04003A381BDE8F0810F69BC
:1026E000002FC3D093070E6808BF4B690F6018BF57
:1026F0000023C7EB06088B6012E0A38943F0400378
:10270000A3814FF0FF30BDE8F0812846216AA66A18
:102710003A464346B0470028EFDD0744C0EB0808BF
:10272000B8F1000FF1DCA1E738B50B6905460C469E
:10273000DBB118B183690BB900F060F80C4B9C4217
:1027400001D16C6808E00B4B9C4201D1AC6803E0FE
:10275000094B9C4208BFEC68B4F90C302BB12846F9
:102760002146BDE83840FFF75BBF002038BD00BF01
:10277000BC360008DC360008FC360008014900F0D1
:10278000A7B800BF29270008002310B5044603603E
:102790004360836081814366C281036143618361D9
:1027A00019465C300822FFF7F5FD054B6362054BC7
:1027B000A362054BE362054B2462236310BD00BF97
:1027C0007D3000089F300008D7300008FB3000083B
:1027D00070B568234D1E5D430E4605F1740100F08F
:1027E00027F9044640B1002180E842000C30A06087
:1027F00005F16802FFF7CEFD204670BD836910B574
:10280000044633BB8364C3640365124B124A1B68DE
:102810008262984204BF0123836100F01FF8606068
:10282000204600F01BF8A060204600F017F80421B5
:10283000E06000226068FFF7A7FFA068092101227D
:10284000FFF7A2FFE06812210222FFF79DFF01239C
:10285000A36110BDB83600087D270008F8B51B4BF2
:102860001E68B369074613B93046FFF7C7FF4836FD
:10287000B4687368013B04D4B4F90C5075B1683482
:10288000F8E733682BB938460421FFF7A1FF306021
:1028900008B13668ECE70C233B60F8BD4FF6FF73D8
:1028A000E3810123A38165662560A56065602561DC
:1028B0006561A56104F15C0029460822FFF76AFD05
:1028C0006563A563A564E5642046F8BDB8360008D5
:1028D0002DE9F8438046894600F14804002694B16A
:1028E000A5686768013F0CD4AB89012B07D9B5F9FE
:1028F0000E30013303D040462946C84706436835A9
:10290000F0E72468EBE73046BDE8F883F0B58B8943
:102910009D0791B006460C4626D4B1F90E10002949
:1029200009DAA38913F0800F4FF0000514BF402788
:102930004FF480670DE001AA00F006FC0028F0DBF0
:10294000029D05F47045A5F500514D424D414FF4EF
:1029500080673046394600F06BF860B9A3899A0564
:102960001DD443F00203A38104F1470323602361D4
:102970000123636113E00B4BB362A389206043F032
:102980008003A381206167614DB13046B4F90E1018
:1029900000F0ECFB18B1A38943F00103A38111B04F
:1029A000F0BD00BF7D27000830B500293DD051F8AB
:1029B000042C0B1F1D49002AB8BF9B180A680C463F
:1029C00012B95A600B6030BD93420DD21968581885
:1029D000904201BF5A5852181A6042685A602360E8
:1029E00030BD994203D80A4651680029F9D11468CC
:1029F00015199D420AD11B682344D01888421360E0
:102A000013D10868034413604B680DE002D90C230E
:102A1000036030BD1C681819884204BF0868496803
:102A2000596004BF00191860536030BDA888FE1FAC
:102A300070B5CC1C24F0030408340C2C38BF0C24D3
:102A4000002C064603DA0C233360002070BD8C4254
:102A5000F9D3204A136810461946A1B10A68121B1F
:102A60000ED40B2A03D90A608B188C501FE08B42BE
:102A70000DBF5A684A685A60026018BF0B4616E0DC
:102A80000B464968E9E7144D2B681BB9304600F046
:102A9000E5FA28603046214600F0E0FA421C034681
:102AA000D1D0C51C25F0030585420AD11C6003F175
:102AB0000B001A1D20F00700821A0AD051429950CB
:102AC00070BD3046E91A00F0C9FA0130BBD02B4680
:102AD000ECE770BDA888FE1FA488FE1F9368013B29
:102AE000002B10B5936009DA9469A34202DBCBB2E4
:102AF0000A2B03D1BDE81040FFF7D2BC1368581C65
:102B000010601970C8B210BDF8B506460F461446DD
:102B1000D518AC4208D0304614F8011B3A46FFF7EE
:102B2000DDFF431CF5D100E00020F8BD2DE9F043A6
:102B30009DB00D4690460393064618B183690BB9C4
:102B4000FFF75CFE754B9D4201D1756808E0744B40
:102B50009D4201D1B56803E0724B9D4208BFF56804
:102B6000AB891C070AD52B6943B1002309932023A5
:102B70008DF8293030238DF82A3041E0304629463F
:102B8000FFF7E2FC0028F0D04FF0FF30C2E0039ADC
:102B9000111D12680391002ABBBF524243F0020389
:102BA00007920792B8BF0493013423782E2B7BD071
:102BB000DFF8808121784046032200F0F9FA38B12D
:102BC000049AC8EB0000402383401343049301346C
:102BD000217855488DF82810062204F1010800F0EC
:102BE000E7FA002800F08580504B002B78D1039B3A
:102BF000073323F0070308330393099B3B440993EE
:102C000043461C4613F8012B1AB9B4EB08090ED041
:102C100002E0252AF5D1F8E73046294642464B46E0
:102C2000FFF772FF013070D0099B4B440993237862
:102C3000002B6AD000234FF0FF32049307930592D4
:102C400006938DF853301A9304F101084446DFF8D7
:102C5000E89021784846052200F0AAFA08F1010818
:102C6000049B30B1C9EB000001228240134304935E
:102C7000ECE7D80644BF20228DF85320190744BF43
:102C80002B228DF8532022782A2A80D007992346B8
:102C90001C4601332278303A092A03D80A2000FB67
:102CA0000121F5E7079180E763782A2B0AD1039B7E
:102CB0001A1D1B680392002BB8BF4FF0FF3302347C
:102CC000059375E7611C00220C4601312378303BE7
:102CD000092B03D80A2000FB0232F5E7059267E7CB
:102CE00003AB0093304604A92A46114BAFF3008092
:102CF00007E003AB0093304604A92A460C4B00F0D2
:102D000093F8421C07467FF478AFAB895B063FF52A
:102D10003BAF09981DB0BDE8F08300BFBC3600088A
:102D2000DC360008FC3600082637000800000000EA
:102D3000092B0008223700081C3700082DE9F8434A
:102D400091461F468A680B69DDF820809342B8BF20
:102D50001346C9F8003091F8432006460C4612B1DC
:102D60000133C9F800302368990642BFD9F8003012
:102D70000233C9F80030256815F006051CD094F818
:102D800043302268003318BF012392061FD5E11893
:102D90005A1C302081F84300224494F8451082F8F0
:102DA0004310023313E03046394604F1190201237F
:102DB000C047013007D00135E368D9F800209B1ADD
:102DC0009D42F0DBDBE74FF0FF30BDE8F883304693
:102DD000394604F14302C0470130F4D02268D9F8E3
:102DE0000050E36802F00602042A08BF5D1B226956
:102DF000A3680CBF25EAE57500259342C4BF9B1A62
:102E0000ED184FF00009A9450ADA3046394604F1B9
:102E10001A020123C0470130D5D009F10109F2E7B8
:102E20000020BDE8F88300002DE9FF410C4617465D
:102E3000227E6E2A984606460A9B01F1430100F065
:102E4000A98012D8632A23D00AD8002A00F0B680BD
:102E5000582A40F0C58084F84520DFF8F8E151E0B9
:102E6000642A1ED0692A1CD0BAE0732A00F0AA8016
:102E700009D86F2A2BD0702A40F0B280226842F025
:102E80002002226039E0752A21D0782A35D0A7E0C7
:102E90001A68111D1960136884F8423004F1420564
:102EA000A2E020681A6810F0800F03D0101D18608F
:102EB000136805E04506F9D5101D1860B2F9003019
:102EC000002B3BDA2D225B4284F8432036E0206859
:102ED0001A6810F0800F03D0101D1860136804E00A
:102EE0004006F9D5101D18601388227EDFF864E1D2
:102EF0006F2A0CBF08220A221CE07822DFF858E172
:102F000084F845202268186812F0800F00F104054B
:102F10001D6001D0036802E05506FBD50388D00789
:102F200044BF42F0200222601BB9226822F0200236
:102F300022601022002084F8430002E0DFF814E150
:102F40000A226568A560002DA2BF206820F0040059
:102F5000206003B965B10D46B3FBF2F002FB1033FC
:102F60001EF8033005F8013D03460028F4D100E0C7
:102F70000D46082A0BD12368DA0708D52369626851
:102F80009A42DEBF302305F8013C05F1FF35491BAD
:102F900021612EE025681A68606915F0800F03D062
:102FA000151D1D60136808E015F0400F02F10405BF
:102FB0001D60136801D0188000E0186000232361B1
:102FC0000D4616E01A68111D1960156862682846DA
:102FD000002100F0EDF808B1401B6060636804E078
:102FE00004F1420584F8422001232361002384F880
:102FF0004330CDF800803046214603AA3B46FFF718
:103000009DFE013002D14FF0FF301FE030463946BF
:103010002A462369C0470130F5D023689B0705D4B1
:10302000E068039B9842B8BF18460FE00025E368AC
:10303000039A9B1A9D42F3DA3046394604F119028D
:103040000123C0470130DED00135F0E704B0BDE810
:10305000F08100BF2D3700083E37000838B5064C18
:103060000023054608462360FEF7F2F9431C02D10F
:10307000236803B12B6038BD788AFE1F10B50C465B
:10308000B1F90E1000F0A4F80028ABBF636DA3895E
:103090001B1823F48053ACBF6365A38110BD2DE9D9
:1030A000F0411D468B89DB0507460C46164605D5C3
:1030B000B1F90E100022022300F068F8A389B4F9D8
:1030C0000E1023F48053A381384632462B46BDE8C8
:1030D000F04100F017B810B50C46B1F90E1000F031
:1030E00055F8431CA38915BF606523F4805343F44E
:1030F0008053A38118BFA38110BDB1F90E1000F059
:1031000013B8000038B5074C05460020206008467B
:1031100011461A4600F067F9431C02D1236803B137
:103120002B6038BD788AFE1F38B5064C0023054653
:103130000846236000F086F9431C02D1236803B1DE
:103140002B6038BD788AFE1F38B5074C0023054632
:1031500008461146236000F0BAF9431C02D12368E7
:1031600003B12B6038BD00BF788AFE1F38B5064C0E
:10317000002305460846236000F0B7F9431C02D13E
:10318000236803B12B6038BD788AFE1F38B5074C21
:10319000054600202060084611461A4600F011F945
:1031A000431C02D1236803B12B6038BD788AFE1F0F
:1031B00010B5C9B202449042034606D01C788C4236
:1031C00000F10100F7D1184610BD002010BD00002D
:1031D00038B5074C054600202060084611461A46BF
:1031E00000F098F8431C02D1236803B12B6038BD6E
:1031F000788AFE1F0A4B10B50446186818B1836917
:103200000BB9FFF7FBFA132C07D8064850F83430F7
:10321000013302D000EBC40010BD002010BD00BF80
:103220006C88FE1FB888FE1FF8B50546FFF786F8C4
:1032300000270646132420463946ABBE04463460B8
:103240002846F8BD431C01D1FFF7EEBF70470000D0
:103250002DE9FF47DFF89890CDF804904FF0030870
:103260000023CDF80C800124029301AF204639469B
:10327000ABBE05461A4ECDF804900423CDF80C8061
:103280003560029320463946ABBE8246154DCDF8D7
:1032900004900823CDF80C80C5F800A002932046C6
:1032A0003946ABBE0446104A1460013404BF2B6893
:1032B000136000210D4B4FF0FF3043F83100013116
:1032C0001429F7D131682868126819600021596003
:1032D0009860D9601A61596104B0BDE8F08700BFF9
:1032E000B088FE1FAC88FE1FB488FE1FB888FE1F82
:1032F0004F37000830B585B001AD019002910392BF
:10330000062420462946ABBE04462046FFF79AFF16
:1033100005B030BD70B50E461546FFF76BFF04468D
:1033200030B9FFF70BF8092303604FF0FF3070BD91
:1033300031462A460068FFF7DDFF431C1FBF636864
:10334000281A1B18636070BDF7B50C461646FFF7C8
:1033500051FF054618B9FEF7F1FF092304E0022EDC
:1033600006D9FEF7EBFF162303604FF0FF3026E08F
:10337000012E03D14368E41811D5F2E7022E0ED1D5
:1033800002AF036847F8083D0C2630463946ABBE0D
:1033900006463046FFF756FF431CE6D004442B6830
:1033A0006F468DE818000A2630463946ABBE064601
:1033B0003046FFF747FF0028D7DB6C60204603B09C
:1033C000F0BDFFF7C1BF30B585B001AD01900291EE
:1033D0000392052420462946ABBE04462046FFF74B
:1033E00031FF05B030BD70B50E461546FFF702FF40
:1033F000044620B9FEF7A2FF0923036011E02A4624
:1034000000683146FFF7DFFF021E0ADB6368A81A77
:1034100003449542636006D10020BDE87040FFF789
:1034200003BF4FF0FF3070BD37B502AD022445F841
:10343000040D20462946ABBE04462046FFF702FF96
:1034400003B030BD38B50546FFF7D4FE044630B9A9
:10345000FEF774FF092303604FF0FF3038BD013DD4
:10346000012D09D8084B9A681B699A4204D14FF084
:10347000FF330360002038BD2068FFF7D5FF10B987
:103480004FF0FF33236038BDB888FE1F70B50C467F
:10349000FFF7B0FE064630B9FEF750FF0923036080
:1034A0004FF0FF3070BD636843F4005363604FF426
:1034B0008063E3620C2528463146ABBE05462846AC
:1034C000FFF7C0FE431C1CBF2061002070BD38B553
:1034D0003C2205460C4608460021FEF75BFF2846C5
:1034E0002146BDE83840FFF7D1BF70B5FFF782FE37
:1034F0000925044618B9FEF721FF05600FE02846AC
:103500002146ABBE0446012C09D0FEF717FF00246C
:103510000646132528462146ABBE054635602046A3
:1035200070BD000000C2010000080801100000008A
:10353000900000000100000002000000008202482C
:103540000E0000003035000824350008AD150008D5
:10355000000000000000000000000000000000006B
:10356000000000003C3500080002020404000000D6
:1035700000000000010000000200000053595354F5
:10358000494D45525F496E69743A2054696D6572C0
:103590002072656C6F61642076616C7565206F7553
:1035A00074206F662072616E676500005B3F0001EA
:1035B0005A3F000100850248800000000000010021
:1035C00000000000080000003002010100000100BE
:1035D000000000000000010002010101424D5320E3
:1035E000525334383520646961676E6F7374696350
:1035F000202831313532303020384E312C2055538F
:103600004943315F4348302050322E31342F5032FD
:103610002E3135290D000000545820202825752012
:103620006279746573293A00202530325800000011
:103630000D0000004543484F20282575206279740D
:103640006573293A0000000020286E6F6E6520E245
:10365000809420545820706174682070726F626C7E
:10366000656D3F2900000000424D5320202825753C
:10367000206279746573293A0000000020286E6F7B
:103680006E6520E2809420424D53206E6F7420724C
:103690006573706F6E64696E672900000D0A0D0016
:1036A0007E3232303034413432453030323031467F
:1036B0004432390D430000000C88FE1F000000005A
:1036C00000000000000000000000000000000000FA
:1036D00000000000000000000000000000000000EA
:1036E00000000000000000000000000000000000DA
:1036F00000000000000000000000000000000000CA
:1037000000000000000000000000000000000000B9
:10371000000000000000000000000000232D302BFE
:103720002000686C4C0065666745464700303132C2
:103730003334353637383941424344454600303119
:103740003233343536373839616263646566003A3E
:04375000747400008D
:1037540000000248483500087488FE1F000000007D
:10376400BC360008DC360008FC3600080000000007
:10377400000000000000000000000000B436000853
:103784000000000000000000000000000000000035
:103794000000000000000000000000000000000025
:1037A4000000000000000000000000000000000015
:1037B4000000000000000000000000000C88FE1F54
:0400000508000201EC
:00000001FF
